:020000040800F2
:1000000060270120450B0008E9050008EB05000802
:10001000EF050008F3050008F705000800000000E0
:10002000000000000000000000000000FB050008C8
:10003000FD05000800000000FF050008010600089B
:100040005F0B00085F0B00085F0B00085F0B0008E8
:100050005F0B00085F0B00085F0B00085F0B0008D8
:100060005F0B00085F0B00085F0B00085F0B0008C8
:100070005F0B00085F0B00085F0B00085F0B0008B8
:100080005F0B00085F0B00085F0B00085F0B0008A8
:100090005F0B00085F0B00085F0B00085F0B000898
:1000A0005F0B00085F0B00085F0B00085F0B000888
:1000B0005F0B00085F0B00085F0B00085F0B000878
:1000C0005F0B00085F0B00085F0B00085F0B000868
:1000D0005F0B0008BB0A00085F0B00085F0B0008FD
:1000E0005F0B00085F0B00085F0B00085F0B000848
:1000F0005F0B00085F0B00085F0B00085F0B000838
:100100005F0B00085F0B00085F0B00085F0B000827
:100110005F0B00085F0B00085F0B00085F0B000817
:100120002B0400085F0B00085F0B00085F0B000842
:100130005F0B00085F0B00085F0B00085F0B0008F7
:100140005F0B00085F0B00085F0B00085F0B0008E7
:100150005F0B00085F0B00085F0B00085F0B0008D7
:100160005F0B00085F0B00085F0B00085F0B0008C7
:100170005F0B00085F0B00085F0B00085F0B0008B7
:100180005F0B00085F0B000800F002F800F03CF87D
:100190000AA090E8000C82448344AAF10107DA45E2
:1001A00001D100F031F8AFF2090EBAE80F0013F0F8
:1001B000010F18BFFB1A43F0010318470CBB0000E6
:1001C0002CBB0000103A24BF78C878C1FAD8520777
:1001D00024BF30C830C144BF04680C6070470000C1
:1001E0000023002400250026103A28BF78C1FBD840
:1001F000520728BF30C148BF0B6070471FB503F0DE
:1002000059F91FBD10B510BD02F0F4FC1146FFF7FF
:10021000F5FF00F0B3F802F012FD03B4FFF7F2FFB0
:1002200003BC00F0E7FB000000B59BB00121D648FD
:1002300001F03AFC01214FF4E06001F08FFC042052
:10024000009003208DF8040000208DF80700694617
:10025000CE4800F061FF0121080201F0D4FC00212A
:100260004FF4807001F0CFFC0121480201F0CBFC7B
:1002700000214FF4007001F0C6FC0121880201F05A
:10028000C2FC00214FF4806001F0BDFC0020029010
:10029000BF480390BF480490002005904FF40060D1
:1002A0000690002007904FF480600890800009902D
:1002B00080000A9080110B9040020C9000200D905D
:1002C00001200E9000200F90109002A9B24800F07B
:1002D0006BFD01221821B04800F02DFE0121AE482F
:1002E00000F09CFD17201190002014904FF4004066
:1002F00013900020129011A801F064FD00201590C9
:100300008DF8580001208DF85900002017901990A1
:1003100001208DF8680015A9A04801F024FD0023F4
:1003200001220C219D4801F0A4FD01219B4801F010
:1003300040FE15A99A4801F016FD002301220C2168
:10034000974801F096FD15A9964801F00CFD002391
:1003500001220C21934801F08CFD012001F03FFEA9
:1003600001218E4801F045FD01218D4801F041FD3C
:1003700001218C4801F03DFD1BB000BD08B500F027
:10038000A1FAA82000F0B4FA4FF4E12000F040FBFD
:100390004FF48050844B854AC10300907E48A830BA
:1003A00000F038FAFFF740FF7C4801F0BEFD002066
:1003B0007F4908607F49086036E000E030BF7D4833
:1003C00000680028FAD000240BE07B4800EB840092
:1003D00090ED000A794800EB840080ED000A601C73
:1003E00084B2B4F5006FF0DB00207249086001228E
:1003F00080216E48001F01F0EFF84FF480516648ED
:10040000A83000F046FA0DE04FF020516248A830C5
:1004100000F061FD30B14FF020515F48A83000F08E
:1004200076FD00E0F0E700BFC7E710B52DED088BC3
:1004300086B001230022190301A802F083FA5D4867
:10044000006838B15E49544800F0BCFD06B0BDEC10
:10045000088B10BD5A49504800F08AFDB0B3584986
:100460004D4800F0AFFD00242DE04A4951F824002A
:1004700002F024FE41EC1B0B9FED520B53EC102BB2
:1004800002F030FE41EC1A0B9FED500B53EC102B99
:1004900002F0BCFC41EC190B9FED4E0B53EC102B02
:1004A00002F01EFF41EC180B02F0D6FB3E4A42F868
:1004B00034009FED4A0A6000401C114601EB8000A9
:1004C00080ED000A641CB4F5006FCEDB444932486D
:1004D00000F04EFD002854D041492F4800F072FD35
:1004E0004FF400642DE02B4951F8240002F0E6FDA2
:1004F00041EC1B0B9FED330B53EC102B02F0F2FD84
:1005000041EC1A0B9FED310B53EC102B02F07EFCEB
:1005100041EC190B9FED2F0B53EC102B02F0E0FE7A
:1005200041EC180B02F098FB1F4A42F834009FED93
:100530002B0A6000401C114601EB800080ED000A90
:10054000641CB4F5805FCEDB174901A802F0DCF92A
:100550004FF480522349144801F02CFE00240AE095
:10056000204800EB840090ED000A134800EB840063
:1005700080ED000A641CB4F5006FF1DB0E480D49F4
:10058000086000BF62E7000004004000000802406D
:100590000823014038000020106402400020014080
:1005A000002101400022014038A000200410014039
:1005B0000000002004000020388000203860002067
:1005C000104000106666666666660A40000000001D
:1005D0000000B0409A9999999999F93F000000005C
:1005E0002080001038200020704700BFFEE700BFC9
:1005F000FEE700BFFEE700BFFEE7704770477047A9
:10060000704700000CB5002001900090764800680B
:1006100040F480307449086000BF7348006800F4FB
:10062000003000900198401C0190009818B9019882
:10063000B0F5A04FF1D16C48006800F4003010B163
:100640000120009001E0002000900098012846D190
:1006500065484030006840F0805063494031086090
:100660006248006840F44040604908605E480830D5
:1006700000685D49083108600846006840F40040A1
:1006800008600846006840F4A05008605848091FF8
:100690000860081F006840F08070091F086000BFF4
:1006A0005148006800F000700028F9D040F2057051
:1006B000504908604C480830006820F003004A495F
:1006C000083108600846006840F00200086000BF7A
:1006D00045480830006800F00C000828F8D10CBD2F
:1006E00010B54548006840F47000434908603E4832
:1006F000006840F001003C49086000203A49083198
:100700000860394800683D490840374908603C485E
:10071000091D0860081F006820F48020091F086078
:10072000002031490C310860FFF76CFF4FF000608A
:1007300031498039086010BD70B5002000220223C5
:1007400000240221284D08352D6805F00C0020B149
:10075000042806D0082834D107E02A4D2A4E3560F7
:1007600033E02A4D284E35602FE01F4D2D1D2D689A
:10077000C5F380541C4D2D1D2D6805F03F0154B16B
:10078000224DB5FBF1F5184E361D3668C6F38816B6
:1007900005FB06F209E01B4DB5FBF1F5124E361DC7
:1007A0003668C6F3881605FB06F20F4D2D1D2D6821
:1007B000C5F301456D1C6B00B2FBF3F5124E3560BD
:1007C00003E0104D104E356000BF00BF064D0835E8
:1007D0002D68C5F303150E4E705D0B4D2D68C54099
:1007E000094E356070BD00000038024000700040C6
:1007F00008544007003C024088ED00E0FFFFF6FE91
:10080000103000240024F4000800002000127A00B8
:100810000C0000202DE9F04190B004460D4617462B
:100820001E46DDF858802648844204D901218805F7
:1008300001F03AF903E00121480501F035F92046BD
:1008400000F010FA00BF204600F035FB0028FAD176
:1008500001950297039640200490CDF81480002063
:1008600006904FF4806007900020089009900A904D
:100870004FF480300B9000200C9003200D9000204E
:100880000E900F9001A9204600F08EFA10B0BDE83E
:10089000F08170B504460D460021204600F0BEFAF6
:1008A00000BF204600F007FB0028FAD12946204669
:1008B00000F0D5FA0121204600F0B0FA70BD00002A
:1008C0000064024008B54FF4A06000F05BF900201E
:1008D0008DF8020001208DF8030038208DF800000B
:1008E00002208DF80100684600F051F908BD0000B3
:1008F00010B504466FF0040000F096F9E11704EB20
:100900005171C1F3C701394A11701046007800EBEC
:100910004001C1EBC0104FF6FF7101EAC00034493D
:10092000088010BD0146314A12784A434FF0E02357
:100930005A6100229A611A46126942F001021A6154
:1009400000BF4FF0E022106900F001021AB100F47C
:100950008032002AF5D04FF0E022126922F0010225
:100960004FF0E0231A6100229A6170470146204A45
:1009700012884A434FF0E0235A6100229A611A46D6
:10098000126942F001021A6100BF4FF0E0221069C3
:1009900000F001021AB100F48032002AF5D04FF0C5
:1009A000E022126922F001024FF0E0231A610022D6
:1009B0009A61704770B504464FF4077094FBF0F0ED
:1009C000C6B24FF4077094FBF0F100FB114085B202
:1009D00005E04FF40770FFF7C9FF701EC6B2002E86
:1009E000F7D115B12846FFF7C1FF70BD1C000020EC
:1009F0001E000020014600BF704700BF4D4A12880C
:100A000002F04002002AF9D0C2B24A4B9A807047E5
:100A100010B588B004460121022001F045F80121FB
:100A2000102001F09BF807220621434800F0FFFB4D
:100A300007221146404800F0FAFBC0200690022031
:100A40008DF81C008DF81D0000208DF81E0001207F
:100A50008DF81F0006A9384800F05EFB02940020C4
:100A6000ADF80C00ADF80E00ADF81000ADF81400B4
:100A70000C20ADF8120002A92E4800F078FC0121EC
:100A80002C4800F0FCFC40212A4800F0E0FD012247
:100A900040F22551274800F0A8FD25208DF80400DC
:100AA00003208DF805008DF8060001208DF8070061
:100AB00001A800F06CF808B010BD10B540F2255147
:100AC0001C4800F0CDFD10B31A4800F007FDC4B279
:100AD0001A48008800F40040C8B91848008800F49B
:100AE000804060B10A2C03D000201449088020E027
:100AF0001248008840F400401049088019E00D2C8D
:100B000006D10E48008840F480400C49088010E06F
:100B10000A480088C0F30D0009490C5407480088B2
:100B2000401C0649088008460088C72801DD0020CF
:100B3000088010BD00100140000402402400002085
:100B4000382001200948804709480047FEE7FEE7B2
:100B5000FEE7FEE7FEE7FEE7FEE7FEE7FEE7FEE76D
:100B600004480549054A064B70470000E1060008A5
:100B700089010008602101206027012060230120F5
:100B80006023012032490143324A1160704770B539
:100B9000002100230F22C4781CB32E4C246804F4D7
:100BA000E064C4F5E064C4F30721C1F10404E3B2D6
:100BB0000A4144789C40E1B28478144021430C07F8
:100BC000210E254C05786155047804F01F05012499
:100BD000AC4005786D11AD0005F1E025C5F8004188
:100BE00009E0047804F01F050124AC401B4D067891
:100BF000761145F8264070BD194A0A400243154B4C
:100C00001B1F1A60704739B1124A121D1268024345
:100C1000104B1B1D1A6006E00E4A121D126882431B
:100C20000C4B1B1D1A607047042808D14FF0E021BF
:100C3000096941F004014FF0E022116107E04FF033
:100C4000E021096921F004014FF0E02211617047B1
:100C50000000FA050CED00E000E400E080E100E0B7
:100C600080FFFF1F016821F0010101600021016088
:100C700041608160C160016121214161DB4988429D
:100C800004D13D21D94A103A91608CE0D7491831FE
:100C9000884205D14FF47461D44A103A916082E0E1
:100CA000D2493031884205D14FF47411CF4A103AFD
:100CB000916078E0CD494831884205D14FF07461A8
:100CC000CA4A103A91606EE0C8496031884204D146
:100CD000C749C64A103AD16065E0C44978318842B4
:100CE00004D1C449C14A103AD1605CE0BF49903197
:100CF000884204D1C049BD4A103AD16053E0BB4993
:100D0000A831884205D14FF03D51B84A103AD16020
:100D100049E0BA49884204D13D21B84A083A1160F5
:100D200041E0B6491831884205D14FF47461B34AA5
:100D3000083A116037E0B1493031884205D14FF4AB
:100D40007411AE4A083A11602DE0AC49483188422E
:100D500005D14FF07461A94A083A116023E0A74910
:100D60006031884204D1A249A44A121F11601AE0DE
:100D7000A2497831884204D19E49A04A121F1160CD
:100D800011E09E499031884204D19B499B4A121F31
:100D9000116008E09949A831884204D14FF03D51D3
:100DA000964A121F1160704710B500220268944BDA
:100DB0001A40CC680B6823434C6923438C69234356
:100DC000CC6923430C6A23434C6A23438C6A234334
:100DD0004C6B23438C6B23431A430260426922F01D
:100DE0000702D1E90B3423431A4342610B69436084
:100DF0004B6883608B68C36010BD00210160416057
:100E00008160C160016141618161C16101624162D2
:100E10008162C162016341638163704721B10268ED
:100E200042F00102026003E0026822F00102026067
:100E3000704721B1026842F40042026003E0026898
:100E400022F400420260704721B1026842F02002A1
:100E5000026003E0026822F02002026070474160F5
:100E600070470146486880B2704722B1036843F476
:100E70000023036003E0036823F40023036001619F
:100E8000704721B1026842F48022026003E00268E8
:100E900022F48022026070470AB1016100E0C16063
:100EA0007047014600200A6802F400220AB10120BE
:100EB00000E000207047014600200A6802F00102AD
:100EC0000AB1012000E000207047014600204A6975
:100ED00002F03800704730B503460A46002000246F
:100EE000464DAB4202D24149103901E04349103925
:100EF00002F000550DB14C6800E00C68414D2C40EB
:100F000004EA02050DB1012000E0002030BD0246D8
:100F10003A4B9A4202D23548103801E0374810382F
:100F200001F000531BB1374B0B40C36002E0354B5F
:100F30000B408360704710B501F080034BB122B1C4
:100F4000436943F08003436103E0436923F0800376
:100F5000436180290BD02AB1036801F01E042343AA
:100F6000036004E0036801F01E04A343036010BDA6
:100F700070B50246002000240025204EB24202D265
:100F80001A4B103B01E01D4B103B1F4E0E4036B17B
:100F90001E2606EAD124166806EA040502E0566910
:100FA00006F0800501F000560EB15C6800E01C6898
:100FB000144E344004EA010616B10DB1012000E0E0
:100FC000002070BD02460D4B9A4202D207481038ED
:100FD00001E00A48103801F000531BB1094B0B40E7
:100FE000C36002E0074B0B40836070471060024013
:100FF0003D000020400F002000003D201064024012
:101000003F801CF07D0F7D0F3C0F3C0F10B5044658
:101010009848844208D10121084600F0B0FD002123
:10102000012000F0ACFD76E09348844208D1012114
:10103000022000F0A4FD0021022000F0A0FD6AE0E3
:101040008E48844208D10121042000F098FD00213F
:10105000042000F094FD5EE08948844208D101211B
:10106000082000F08CFD0021082000F088FD52E0EF
:101070008448844208D10121102000F080FD002125
:10108000102000F07CFD46E07F48844208D1012119
:10109000202000F074FD0021202000F070FD3AE0D7
:1010A0007A48844208D10121402000F068FD0021E7
:1010B000402000F064FD2EE07548844208D10121F3
:1010C000802000F05CFD0021802000F058FD22E02F
:1010D0007048844208D10121801500F050FD0021A4
:1010E000A01500F04CFD16E06B48844208D10121A8
:1010F000401500F044FD0021601500F040FD0AE0BD
:101100006648844207D10121001500F038FD002116
:10111000201500F034FD10BDF0B50A460021002373
:10112000002400BF3DE0012505FA01F3156805EA3A
:1011300003049C4234D105684F000326BE40B543EA
:10114000056015794E00B540066835430560157990
:10115000012D02D01579022D16D185684F00032686
:10116000BE40B543856055794E00B540866835432D
:101170008560456801268E40B5434560456896798F
:101180008E40B6B235434560C5684F000326BE4069
:10119000B543C560D5794E00B540C6683543C560D6
:1011A000491C1029BFD3F0BD4FF6FF71016000212B
:1011B000017141718171C171704708B54FF480327E
:1011C0000092009A0A430092009AC261C161009A9B
:1011D000C261C2690092C269009208BD0246002045
:1011E00013690B400BB1012000E00020704701465D
:1011F000086980B270470246002053690B400BB16A
:10120000012000E0002070470146486980B2704725
:1012100001837047418370470AB1018300E0418335
:1012200070474161704742694A4042617047F0B57A
:10123000002300244D07ED0E02FA05F3CE1000F155
:10124000200555F826504E07F70E0F26BE40B54331
:10125000CF1000F1200646F82750CE1000F12005EF
:1012600055F8265045EA0304CE1000F1200545F854
:101270002640F0BD00000240000402400008024089
:10128000000C02400010024000140240001802400E
:10129000001C0240002002400024024000280240BE
:1012A00010B50446FA48844208D10121102000F00C
:1012B000AAFC0021102000F0A6FC57E0F54884426B
:1012C00009D10121480400F08DFC00214FF40030C9
:1012D00000F088FC4AE0F048844209D101218804EA
:1012E00000F080FC00214FF4802000F07BFC3DE00A
:1012F000EA48844209D10121C80400F073FC0021AE
:101300004FF4002000F06EFC30E0E548844209D143
:101310000121080500F066FC00214FF4801000F068
:1013200061FC23E0DF48844208D10121202000F045
:101330006AFC0021202000F066FC17E0DA488442B5
:1013400009D10121880700F04DFC00214FF08040B9
:1013500000F048FC0AE0D548844207D1012140054D
:1013600000F040FC0021600500F03CFC10BD2DE9C0
:10137000FF4705460E460024A14600BFA046B0899F
:1013800000B100BF2C8A24F44054F08804432C821E
:10139000AC8941F20C608443B0883189084371897B
:1013A00008430443AC81AC8A24F44074B0890443FC
:1013B000AC82684600F0A7FAB548854202D0B94829
:1013C000854202D1DDF80C9001E0DDF80890A88993
:1013D00000F4004040B109EBC90000EB091031688E
:1013E0004900B0FBF1F707E009EBC90000EB091079
:1013F00031688900B0FBF1F76420B7FBF0F004011D
:101400002009642101FB1078A88900F4004040B154
:10141000322000EBC800B0FBF1F000F007000443FD
:1014200008E0322000EB08106421B0FBF1F000F07E
:101430000F0004432C81BDE8FF874FF41651016073
:1014400000218180C18001810C21418100218181A5
:10145000704710B502460020108A20F470600B8897
:101460004C8823438C882343CC8823431843108221
:1014700010BD0021018041808180C180704721B171
:10148000828942F40052828104E082894DF6FF7322
:101490001A4082817047028B02F47F420283028BE2
:1014A0000A430283704721B1828942F4004282815B
:1014B00003E08289C2F30E028281704721B1828AE1
:1014C00042F40062828204E0828A4FF2FF731A4083
:1014D00082827047C1F30802828070470146888883
:1014E000C0F308007047028A4FF6F0731A40028278
:1014F000028A0A430282704721B1828942F00202C5
:10150000828104E082894FF6FD731A408281704720
:1015100082894FF2FF731A40828182890A43828155
:101520007047028A4FF6DF731A400282028A0A432A
:101530000282704721B1028A42F48042028204E0B2
:10154000028A4BF6FF731A4002827047818941F08C
:1015500001018181704721B1828A42F008028282B2
:1015600004E0828A4FF6F7731A4082827047028B3A
:10157000D2B20283028B42EA01220283704721B178
:10158000828A42F02002828204E0828A4FF6DF7370
:101590001A408282704721B1828A42F01002828210
:1015A00004E0828A4FF6EF731A4082827047828A83
:1015B0004FF6FB731A408282828A0A438282704706
:1015C00021B1828A42F00202828204E0828A4FF6CE
:1015D000FD731A40828270471AB1838A0B4383825B
:1015E00002E0838A8B4383827047F0B50346002470
:1015F00000260025002040F66A17B94200D100BF3E
:101600001846C1F3421401F01F06012707FA06F538
:10161000012C01D10C3004E0022C01D1103000E08B
:1016200014301AB107682F43076002E00768AF4320
:101630000760F0BD02460020B1F5007F00D100BF79
:1016400013880B400BB1012000E00020704701F42B
:101650000072B2F5007F00D100BFCA43028070471C
:1016600070B50246002400230025002040F66A16CB
:10167000B14200D100BFC1F3421501F01F030126A2
:1016800006FA03F3012D13D19689334017E00000C9
:10169000001001400044004000480040004C004061
:1016A000005000400014014000780040007C0040E1
:1016B000022D02D1168A334001E0968A33400C1283
:1016C000012606FA04F41688344013B10CB1012047
:1016D00000E0002070BD10B50022002340F66A141F
:1016E000A14200D100BF0A1201249440A3B2DC43FE
:1016F000048010BDF948006840F00100F749086017
:101700000020F64908310860F4480068F4490840B0
:10171000F2490860F348091D0860F348EF49843135
:101720000860F0481038091D0860EC48006820F493
:101730008020EA4908600020E8490C310860E74948
:101740008C31086070470021E44A921C11701146E8
:101750000870704710B501460022002300204A118E
:10176000012A02D1DD4C236808E0022A03D1DB4CB8
:101770007034236802E0D94C7434236801F01F02EE
:10178000012494401C400CB1012000E0002010BD59
:1017900038B5002000900024002500BF3120FFF75D
:1017A000D9FF05460098401C00900098B0F5A04F66
:1017B00001D0002DF2D03120FFF7CCFF08B1012479
:1017C00000E00024204638BD01460020C34A1068CE
:1017D00020F0F80040EAC10010607047C34908607B
:1017E00070470021BD4A703211701170012802D07B
:1017F00004280AD104E00121B84A7032117005E0D2
:101800000521B64A7032117000E000BF00BF70477A
:10181000B7490860704770B5049C41EA82150126FB
:10182000C6EB530645EA0645054345EA0465AB4E5B
:10183000361D356070BDAD4908667047820142EAC9
:101840000172A64B84331A607047A84988667047B6
:1018500010B5830143EA016343EA02739F4C883465
:10186000236010BDA14908677047A049C86470474C
:1018700002460020994B0833186820F0EC6042EAD9
:1018800001031843954B0833186070470246002047
:10189000924B0833186820F0784042EA010318435D
:1018A0008E4B083318607047014600208B4A08327F
:1018B000106820F003000843106070478748083024
:1018C000006800F00C00704701460020834A08328F
:1018D000106820F0F00008431060704701460020B7
:1018E0007E4A0832106820F4E050084310607047C8
:1018F00001460020794A0832106820F4604040EA2E
:10190000C10010607047F0B50021002200240225BC
:1019100000260223714F08373F6807F00C0121B100
:10192000042905D0082937D105E0724F076036E059
:10193000714F076033E0694F3F1D3F68C7F3805622
:10194000664F3F1D3F6807F03F036EB16A4FB7FB1C
:10195000F3F7DFF888C10CF1040CDCF800C0CCF31D
:10196000881C07FB0CF40CE0624FB7FBF3F7DFF8C1
:101970006CC10CF1040CDCF800C0CCF3881C07FB34
:101980000CF4564F3F1D3F68C7F301477F1C7D0095
:10199000B4FBF5F7076002E0564F076000BF00BFD9
:1019A0004E4F08373F6807F0F0010909534F7A5C42
:1019B0000768D7404760494F08373F6807F4E05150
:1019C000890A4E4F7A5C4768D7408760434F083793
:1019D0003F6807F46041490B484F7A5C4768D7403D
:1019E000C760F0BD002100F44072B2F5407F0AD11B
:1019F0003A4A0832116821F4F811414A0240114371
:101A0000364A08321160354A70321268C0F30B034F
:101A10001A43324B70331A607047354944390860B5
:101A2000704733494039086070473649086070474D
:101A300001460020294A8C32106820F01F004A1EFF
:101A40001043264A8C321060704701460020234A1A
:101A50008C32106820F4F8504A1E40EA02201F4AD7
:101A60008C3210607047014600201C4A8C3210688E
:101A700020F4401008431060704701460020174AC8
:101A80008C32106820F44000084310607047014613
:101A90000020124A8C32106820F440300843106055
:101AA000704719490860704739B10C4A30321268E2
:101AB00002430A4B30331A6006E0084A303212689B
:101AC0008243064B30331A607047F9B1034A34320F
:101AD00012680243014B34331A601CE000380240A4
:101AE000FFFFF6EA103000240030002000004742DB
:101AF000800E47420024F40000127A0026000020E5
:101B0000FFFCFF0F5C014742E01147428F4A126819
:101B100082438E4B1A60704739B18C4A121D12688D
:101B200002438A4B1B1D1A6006E0884A121D126888
:101B30008243864B1B1D1A60704739B1834A0C32B1
:101B400012680243814B0C331A6006E07F4A0C3264
:101B5000126882437D4B0C331A60704739B17B4A5F
:101B6000103212680243794B10331A6006E0774A4C
:101B7000103212688243754B10331A60704739B1C6
:101B8000724A243A12680243704B243B1A6006E002
:101B90006E4A243A126882436C4B243B1A607047A9
:101BA00039B16A4A203A12680243684B203B1A60F6
:101BB00006E0664A203A12688243644B203B1A6072
:101BC000704739B1614A1C3A126802435F4B1C3BB3
:101BD0001A6006E05D4A1C3A126882435B4B1C3B6C
:101BE0001A60704739B1594A143A12680243574B88
:101BF000143B1A6006E0554A143A12688243534B6C
:101C0000143B1A60704739B1504A103A12680243C7
:101C10004E4B103B1A6006E04C4A103A1268824361
:101C20004A4B103B1A60704739B1484A1C3212685F
:101C30000243464B1C331A6006E0444A1C321268C9
:101C40008243424B1C331A60704739B13F4A2032FD
:101C5000126802433D4B20331A6006E03B4A2032B3
:101C600012688243394B20331A60704739B1374AC2
:101C7000243212680243354B24331A6006E0334A9B
:101C8000243212688243314B24331A60704739B1D1
:101C90002E4A2C32126802432C4B2C331A6006E079
:101CA0002A4A2C3212688243284B2C331A60704720
:101CB00039B1264A303212680243244B30331A605D
:101CC00006E0224A303212688243204B30331A60D9
:101CD0007047012808D11D493C31096841F00801CD
:101CE0001A4A3C32116007E018493C31096821F07A
:101CF0000801164A3C321160704739B1134A273A3D
:101D000012780243114B273B1A7006E00F4A273A1C
:101D1000127882430D4B273B1A7070470B484030B6
:101D2000006840F080700949403108607047014602
:101D30000020064A283A12680A400AB1012000E051
:101D40000020704701492639087070473438024036
:101D500010B501210802FFF756FF00214FF48070F3
:101D6000FFF751FF10BD30B5024600200023506838
:101D7000F84C20400D790C6844EA0524204350605B
:101D80009068F54C2040D1E903542C438D682C43D6
:101D90004D7944EA450420439060D06A20F47000F5
:101DA0000C7D641EE4B2234340EA0350D06230BD90
:101DB00000210160017141718160C16001610121F7
:101DC000017570470021E54A1168E54A1140D0E9E4
:101DD00000231A4383681A43C3681A431143E14A34
:101DE000C2F8041370470021016041608160C16046
:101DF000704721B1826842F00102826003E082688C
:101E000022F00102826070470A4600214168D64BE9
:101E100019401143416070474162826270470A462F
:101E20000021416821F01F0111434160704738B122
:101E3000CA49096841F40001CA4AC2F8041306E01D
:101E4000C649096821F40001C64AC2F80413704764
:101E500038B1C249096841F48001C24AC2F804138A
:101E600006E0BE49096821F48001BE4AC2F80413A5
:101E70007047F0B504460D4600200021092D11DD04
:101E8000E068A5F10A0606EB4607072606FA07F101
:101E90008843A5F10A0606EB460603FA06F1084355
:101EA000E0600CE0206905EB4507072606FA07F11C
:101EB000884305EB450603FA06F108432061072A2B
:101EC0000FDA606B561E06EB86071F2606FA07F12F
:101ED0008843561E06EB860605FA06F10843606342
:101EE00022E00D2A0FDA206BD61F06EB86071F268D
:101EF00006FA07F18843D61F06EB860605FA06F1B7
:101F00000843206310E0E06AA2F10D0606EB8607A5
:101F10001F2606FA07F18843A2F10D0606EB860696
:101F200005FA06F10843E062F0BD816841F08041A6
:101F300081607047014600208A6802F080420AB141
:101F4000012000E00020704721B1826842F48062E5
:101F5000826003E0826822F480628260704721B16F
:101F6000826842F00202826003E0826822F002028C
:101F70008260704710B50A4600210023416821F4B1
:101F80006041531E41EA4331416010BD21B14268B6
:101F900042F40062426003E0426822F40062426060
:101FA00070470146C86C80B270476C48001D0068DD
:101FB000704721B1826842F48072826003E08268D7
:101FC00022F480728260704721B1826842F400720C
:101FD000826003E0826822F400728260704738B148
:101FE0005E49096841F400515E4AC2F8041306E0F4
:101FF0005A49096821F400515A4AC2F8041370473B
:10200000F0B504461546002000220026092911DDFE
:10201000E068A1F10A0707EB470C072707FA0CF263
:102020009043A1F10A0707EB470703FA07F21043B1
:10203000E0600CE0206901EB410C072707FA0CF285
:10204000904301EB410703FA07F210432061A06BB4
:10205000C0F30156EF1C06F1010CA7EB0C0707EBD0
:10206000870C1F2707FA0CF29043EF1C06F1010CB6
:10207000A7EB0C0707EB870701FA07F21043A063F1
:10208000F0BD10B50A4600210023816B21F44011F8
:10209000531E41EA0351816310BD08B5002300932C
:1020A0000090009B0B440093009B1A6008BD0A46F9
:1020B0000021816821F470211143816070470A4634
:1020C0000021816821F440111143816070478168CB
:1020D00041F4800181607047014600208A6802F463
:1020E00080020AB1012000E00020704721B142685F
:1020F00042F48062426003E0426822F480624260FF
:10210000704721B1426842F48052426003E0426865
:1021100022F480524260704708B5024600200090C9
:10212000009201F12800009B18440090009800687C
:1021300080B208BD10B50B460021D9B2012404FAC3
:1021400001F11AB144680C43446002E044688C43D6
:10215000446010BDFFFEFFFCFDF7FFC004230140FB
:10216000E030FCFF00200140FFFD3FFF0246002061
:1021700013680B400BB1012000E000207047CA43F8
:102180000260704770B502460020002300240B1245
:10219000556801268E4005EA060415681D4015B1F4
:1021A0000CB1012000E0002070BD00220A12D343D0
:1021B000036070479FED3A0A5FEA920C53D000BF6C
:1021C000F0EC010A0B1DB0EC011A60EEA00A41EE22
:1021D000010AF5EEC00AF1EE10FAC6BFB1EEE01A40
:1021E00081ED001A81ED000AF0EC010A191DB0EC36
:1021F000011A60EEA00A41EE010AF5EEC00AF1EE06
:1022000010FAC6BFB1EEE01A83ED001A83ED000AA2
:10221000F0EC010A0B1DB0EC011A60EEA00A41EED1
:10222000010AF5EEC00AF1EE10FAC6BFB1EEE01AEF
:1022300081ED001A81ED000AF0EC010A191DB0ECE5
:10224000011A60EEA00A41EE010AF5EEC00AF1EEB5
:1022500010FAC6BFB1EEE01A83ED001A83ED000A52
:10226000BCF1010CACD112F0030208BF704700BFF3
:10227000F0EC010A0B46B0EC011A091D60EEA00A51
:1022800041EE010AF5EEC00AF1EE10FAC6BFB1EE5A
:10229000E01A83ED001A83ED000A521EE8D1704760
:1022A000000000002DE9F04F8D082DED048B82B069
:1022B0000026AC463446019506EB0C0909EB0C0AE6
:1022C0000AEB0C0800EBC60700EBC90900EBCA0AD1
:1022D00000EBC80897ED003AD9ED003ADAED006A54
:1022E00098ED006A97ED010ADAED014A33EE265ABD
:1022F00073EE860A99ED014AD8ED015A30EE241AA0
:102300004FEA440B02EBCB0E70EE644A74EE251AD2
:1023100035EE200A9EED002ADEED012A87ED000A47
:1023200031EE210A73EEC63A34EE656A87ED010A92
:1023300035EE600A33EE663A71EE610A02EBC407CD
:1023400074EEE35A33EE064A97ED005A73EEA41A80
:10235000D7ED014A33EE461A24EE056A0BEB04076B
:1023600025EE855A02EBC70760EE026A65EEA45AB5
:1023700024EE244A97ED003AD7ED013A60EEA24AE6
:1023800020EE822A21EE037A20EE220A61EEA30AD1
:1023900021EE833A61EE231A76EEA42A32EE400A49
:1023A00036EE251A75EE443AC9ED002A77EE200A7A
:1023B00089ED010A73EE611A8AED001ACAED013A3D
:1023C000C8ED000A761CC8ED011A1C446D1E7FF48E
:1023D00073AF4FF6FF7404EA830B019B0093042B49
:1023E0007DD966464FEA9C0C4FF00008C146ACF11F
:1023F000010E00BF4FEA480303EB080402EBC303DE
:1024000002EBC80593ED003AD3ED014A02EBC40399
:1024100095ED005AD5ED015A93ED006A93ED014A0E
:10242000D8444B4603EB0C0404EB0C0707EB0C0AF7
:1024300000EBC30500EBC70700EBC40400EBCA0ABE
:10244000D5ED003A97ED007AD4ED008A9AED008A36
:1024500095ED010AD4ED010AD7ED017ADAED011A02
:1024600033EEC72A70EE676A70EEE12A33EE877AA0
:1024700078EE883A30EE270A38EEC81A70EEA11AC4
:1024800072EE227A32EE622A77EE232A70EE618AA9
:1024900036EEC18A30EE210A77EE630A31EE261A53
:1024A000C5ED002A85ED010A28EE050A67EE856A6A
:1024B00028EE258A20EE837A20EEA49A68EE831A0D
:1024C00062EE062A61EE063A62EE040A67EEA57A2B
:1024D00068EEA48A21EE041A36EE882A00E027E08E
:1024E00077EE286A71EEC91A30EE670AC4ED006A09
:1024F00032EE811AC4ED011A73EEE00A87ED002A6C
:1025000087ED010A8AED001A3344CAED010A8B42B5
:1025100088D309F10109F1457FF66CAF4FF6FF73DF
:1025200003EA8B0B009B9B080093042B3FF659AFEB
:10253000DDF8041090ED000AD0ED042A90ED025A67
:1025400090ED031AD0ED064A90ED073A30EE222ABC
:10255000D0ED011AD0ED050A75EE243A31EE034AAA
:1025600030EE620A71EEA02A31EE431A32EE233ABF
:1025700071EEE00A75EE641A72EE844A32EE632A56
:1025800072EEC43A80ED003A70EE012AC0ED014AC5
:1025900030EEE14A80ED022A30EE410AC0ED033A06
:1025A00071EEA00AC0ED042A80ED054A80ED060A0E
:1025B000C0ED070A2030491EBCD102B0BDEC048B2F
:1025C000BDE8F08F2DE9F04F4FEA910A2DED048B15
:1025D00082B00024D446A046CDF804A004EB0C053C
:1025E00005EB0C0606EB0C0900EBC40700EBC60676
:1025F00000EBC50500EBC909D7ED011AD6ED012A9C
:1026000095ED006AD9ED006AD7ED005A96ED007A93
:10261000D5ED010A99ED011A36EE262A71EEA23A9D
:1026200035EE873A71EEE21A30EE815A70EEC12A29
:102630004FEA480B02EBCB0E73EE020A9EED004A06
:10264000DEED014AC7ED000A73EE850A36EE666AD2
:1026500075EEC75AC7ED010A33EE422A02EBC807EE
:1026600031EE861A33EEC53A71EEC61A97ED006A5E
:1026700097ED015A75EEE20A0BEB080702EBC7076C
:1026800075EEA22AD7ED005AD7ED013A60EE866AC0
:1026900022EE047A62EEA57A23EE044A21EE066A5F
:1026A00061EEA55A60EE850A23EE243A22EE242A32
:1026B00021EE051A61EEA31A62EEA32A76EE203A05
:1026C00037EE433A74EE020A36EEC11A85ED003A4F
:1026D00077EEE11AC5ED010A35EEA22A86ED001A61
:1026E000C6ED013AC9ED001A641C89ED012A98442F
:1026F000BAF1010A7FF472AF4FF6FF7404EA830B5C
:10270000019B0093042B7CD966464FEA9C0C4FF04A
:102710000008C146ACF1010E4FEA480303EB080480
:1027200002EBC30302EBC805D3ED003A93ED017A47
:1027300002EBC403D5ED006AD5ED015AD3ED004A92
:1027400093ED013AD8444B4603EB0C0404EB0C0721
:1027500007EB0C0A00EBC30500EBC70700EBC40452
:1027600000EBCA0A95ED012A97ED018A95ED001A52
:10277000D4ED008AD4ED017A97ED009ADAED001AD3
:10278000DAED010A32EE485A71EE492A38EEE14A92
:1027900032EE082A37EEA08A37EEE06A78EEA11A08
:1027A00031EE091A75EE048A72EEC67A72EE862A46
:1027B00071EE610A31EE211A35EE444A32EE489A42
:1027C00085ED001A32EE081A28EEA66A27EEA65A00
:1027D00068EEA58A85ED011A20EEA31A69EE231A88
:1027E00022EEA42A24EE248A67EEA57A29EE079A1F
:1027F00060EE870A24EE034A62EE832A35EE685AB9
:1028000000E027E036EE276A71EE497A31EEA01A31
:1028100072EE440AC4ED007A84ED011A78EE221AB1
:1028200087ED005A87ED016ACAED000A3344CAED0C
:10283000011A8B4288D309F10109F1457FF66CAF8B
:102840004FF6FF7303EA8B0B009B9B080093042B4E
:102850003FF65AAFDDF8041090ED003AD0ED044A8F
:10286000D0ED032A90ED071A90ED024AD0ED061A3A
:10287000D0ED013AD0ED050A33EE242A72EE815AEA
:1028800033EE643A34EE215A73EEA04A73EEE03A26
:1028900032EEC11A74EE610A32EE454A72EE052A32
:1028A00074EEA51A34EEE55A73EE414A33EEA02ACF
:1028B00033EE011A33EEE03A62EE805A61EE800A9E
:1028C00064EE003A65EE002AC0ED005A64EE801A0C
:1028D000C0ED010A22EE002AC0ED023A21EE004AC4
:1028E000C0ED032A23EE001AC0ED041A80ED052A7C
:1028F00080ED064A80ED071A2030491EACD102B0A7
:10290000BDEC048BBDE8F08F70B504460D468078B1
:102910002188A389626801280ED02846FFF7C2FCEF
:10292000E078012818BF70BDE28921882846A36895
:10293000BDE8704000F066B894ED040A2846FFF741
:1029400041FEEDE710B40180234C446082704FF0EB
:10295000000CC370B1F5807F20D004DC10292FD08B
:10296000402906D122E0B1F5806F0FD0B1F5805F2C
:1029700004D04FF0FF3C10BC6046704701218181BC
:10298000C18116499FED160A816016E004218181FC
:10299000C18114499FED140A81600EE010218181EC
:1029A000C18112499FED120A816006E040218181B8
:1029B000C18110499FED100A816080ED040ADAE7B9
:1029C0004FF480718181C1810C499FED0D0A8160B6
:1029D00080ED040ACFE70000C83C0008C8340008B6
:1029E00000008039CE3400080000803AE634000848
:1029F0000000803B463500080000803CC6360008D9
:102A00000000803D2DE9F0014E0801244FF0000C3C
:102A100004EB51076146A6F102082CE061452AD279
:102A200000EBCC0500EBC104D5ED000A94ED000AE3
:102A3000C4ED000A85ED000AD5ED010A94ED010A06
:102A4000C4ED010A85ED010ACC1900EBC4050CEBBD
:102A5000070400EBC40495ED000AD4ED000AC5EDAF
:102A6000000A84ED000AD4ED010A95ED010AC5EDD6
:102A7000010A84ED010A00EBC104B44400EBCC0C64
:102A800094ED020ADCED000A891CC4ED020A8CED0B
:102A9000000ADCED010A94ED030AC4ED030A8CED93
:102AA000010AB3F800C089B203EB42034145B5D92E
:102AB000BDE8F00170472DE9F00701254C0805EB52
:102AC00051064FF0000C651E6146002D88BFA846D8
:102AD0002ED8BDE8F0077047614529D250F8315033
:102AE00050F83C7040F8317040F83C5000EBC107A2
:102AF00000EBCC097D68D9F804A0C7F804A0C9F898
:102B000004508D190CEB060750F8359050F837A09B
:102B100040F835A040F8379000EBC50500EBC7073B
:102B2000D5F80490D7F804A0C5F804A0C7F804901D
:102B300000EBC105A444AF6850F83C90C5F808907C
:102B400040F83C7000EBCC0CEF68DCF80490C5F862
:102B50000C90CCF80470B3F800C0891C03EB42035E
:102B60004145B9D3BDE8F00770472DE9F00F0124C6
:102B70004D084FF0000C04EB5107012D9CBFBDE840
:102B8000F00F7047014600EB870400264FEA550816
:102B900015E000BFBCEB460F11D950F82CA0D1F8BE
:102BA0000090C1F800A040F82C900CEB0709D4F875
:102BB00000A050F829B0C4F800B040F829A0AC44F7
:102BC000D1F8049050F82CA0C1F804A040F82C9043
:102BD000B3F800C008310834761C03EB4203B8F1A7
:102BE0000108D7D1BDE8F00F7047704770477047B4
:102BF00070477047754600F02BF8AE4605006946F1
:102C0000534620F00700854618B020B5FDF7A8FF11
:102C1000BDE820404FF000064FF000074FF00008DD
:102C20004FF0000B21F00701AC46ACE8C009ACE85E
:102C3000C009ACE8C009ACE8C0098D46704710B5C2
:102C40000446AFF300802046BDE81040FDF7E5BA2A
:102C5000004870470021012021F00042A2F160529B
:102C6000B2F5801F01F0004328BFD2F17F6C0BD971
:102C70005FEA001C43EAC20242EB507018BF704783
:102C800028BF20F001007047B2F5801FBCBF184676
:102C900070474FEA410C1CF5001F02D2084600F0B5
:102CA0000EBC70B500F0C8FA00000089FFF7F6BF4F
:102CB0004FF00040A0F580007047000010B591EA89
:102CC000030F48BF83F0004300F11283841A71EBB5
:102CD000030C05D2121943EB0C03001B61EB0C0132
:102CE000DFF824E14FEA1154A4EB135C1EEA430F12
:102CF00018BF9EEA445F73D023EA0E03DCF1200E76
:102D000021EA045143F4801332D322FA0CFE10EB73
:102D10000E0023FA0CFE41EB0E01CCF1200E03FA5B
:102D20000EFE10EB0E0051F10001B1F5801FCCF149
:102D3000200E32D201EB045112FA0EF2BDE810401F
:102D400058BF7047401C38BF5FEA420218BF704747
:102D5000002814BF20F0010041F100014FEA4103B7
:102D600013F5001F38BF7047A1F1C04100F0B2BA9F
:102D7000012A43EB0302ACF1200CDCF11F0E32BF41
:102D80004FF0000E23FA0CF310EB030041EB04515B
:102D9000B4EB115FD0D0A1EB045101F580114908CB
:102DA0005FEA300001EB04510ED350F1000038BF50
:102DB00012FA0EFE08D1BDE81040C9E7401C38BF2A
:102DC0005FEA4202CAD1C3E7BDE810404FEA4103BF
:102DD00013F5001F38BF7047A1F1C04100F07ABA67
:102DE0009EEA445F08D011EA5E0FBDE8104004BFC0
:102DF00001F0004100207047BDE8104070B500F0C0
:102E00001BFA00BF64FBBE3E0000E0FF2DE9C0419D
:102E100030B4DFF8A0C23CEA111418BF3CEA131426
:102E200000F0EC8081EA03051CEA111444EAD57431
:102E300018BF1CEA131500F0C780A4EB05044FF07F
:102E4000004545EAC12145EAC32341EA505143EA1E
:102E5000525304F17F74994204F500344FEAC020C4
:102E60004FEAC22208BF904200F09C804FEA1365EF
:102E70000FF24016765D4FEA134506FB05F7C7F1E2
:102E8000807706FB07F74FEAD737A7FB0368764240
:102E9000C8F58038A7FB06CE38BFA8F1010807FBAC
:102EA00008E64FF0000EA6FB028CE6FB03CEDCF139
:102EB000000CCEF1004E38BFAEF1010EA6FB0C584F
:102EC0004FF000074FF00005E6FB0E87A1FB08C698
:102ED000A0FB07CE16EB0E0645F10005E1FB0765EA
:102EE00015F1E04E7EBFA4F580345FEA46066D41E1
:102EF00016F1800745F100054FEA17274FEA0666ED
:102F000047EA0567A6F1DE46B6F1805F4FEA152570
:102F10001FD9384624F0010C05EBC471BCF1FE6FDB
:102F200001EB0C1102D8F0BCBDE8008124425CBF6B
:102F300001F5801E9EEAC47F02D4F0BCBDE800818A
:102F4000244238D4F0BCA1F1C041BDE8004100F0FA
:102F5000C1B94FEAD22242EA43524FEAD323A7FB38
:102F600002864FEAD02040EA415007FB03661EEA82
:102F70000E0F4FEAD12105FB026658BFA6EB0056A3
:102F8000B6EB00564FEA520E4EEAC37E18EB0E0E19
:102F900056EB530EBDD518EB02085E417F1C55F170
:102FA0000005B6E74FF480154FF000074FF000061C
:102FB0004FF00008ADE7F0BC4FF0000001F1C04158
:102FC00001F00041BDE8008111EA0C1F0CEA131565
:102FD00000D00CE013EA0C1F00F025804FF0000039
:102FE000F0BC81EA030101F00041BDE80081F0BCC2
:102FF000BDE8004181EA030100F06CB9F0BCBDE816
:10300000004170B500F018F9097EFC3E00F007B8E9
:1030100081EA03014FF0000001F00041704781EAAE
:10302000030100F057B9F0BCBDE800414FF00000CB
:1030300021497047FFFDFBF9F7F5F4F2F0EEEDEBF7
:10304000E9E8E6E4E3E1E0DEDDDBDAD8D7D5D4D3A6
:10305000D1D0CFCDCCCBCAC8C7C6C5C4C2C1C0BFF2
:10306000BEBDBCBBBAB9B8B7B6B5B4B3B2B1B0AFF8
:10307000AEADACABAAA9A8A8A7A6A5A4A3A3A2A1DC
:10308000A09F9F9E9D9C9C9B9A9999989797969597
:1030900095949393929191908F8F8E8E8D8C8C8B33
:1030A0008B8A8989888887878685858484838382BB
:1030B000828181800000FF070000F87FB0FA80F372
:1030C00010FA03F10AD0C3F11D0303F580634FEA40
:1030D00041504FEA035202EBD12170474FF00000FC
:1030E00070470000DFF848C170B51CEA111E1EBF12
:1030F0001CEA13159EEA0C0F95EA0C0F00F06F8086
:1031000081EA030423EA4C134EEAD47E21EA4C11EF
:1031100041F4801143F48013AE44A1FB024CA0FBA8
:103120000365AEF17F7E361955EB0C05A1FB034C10
:103130004CF10003A0FB021C16EB0C06654153F199
:103140000003094218BF46F0010613F4007F0BD1BB
:103150004FEA03314FEA0530340341EA155140EAA2
:1031600016506FF003020AE04FEAC3214FEAC52070
:10317000F40241EA555140EA56506FF0020202EB68
:103180002E4201EB025585EACE710AD05FEA440C6B
:1031900018BF24F0004450F1000041F1000120EA82
:1031A000D47040F2FE7C624500D270BDA84214BFCC
:1031B0004FF080444FF04044002E08BF0024BEF181
:1031C000806FA8BFA1F1C041BDE8704080F282804D
:1031D0004FF0000001F1C04101F0004170479EEA4C
:1031E0000C0F0CEA131518BF95EA0C0F06D04FF020
:1031F000000081EA030E0EF0004170BD00F01CF8E3
:103200008900013E00F007B800F009B84FEA430C0E
:103210005FEA5C5C08D081EA030100F05BB84FEA2A
:10322000410C5FEA5C5CF6D14FF000000149704749
:103230000000FF070000F87F0EF1020E2EF0030ED3
:103240005EF8046B364205D4012A43EB030515F5FD
:10325000001F12D8012841EB010C1CF5001F0CD8EF
:103260000ED14FEAD17C15F5001F0CEB4C0C0CF184
:10327000020C08BF4CEBD37C04E04FF0080C01E0DB
:103280004FEAD37C0CEB4C0526FA05F606F0070650
:10329000B6F1040C06D20EEB860CBDE870404CF083
:1032A000010C6047DFE80CF0090B02024FF000410F
:1032B0004FF00000A1F5002170BD1946104601280D
:1032C00051EB010418BFD4F5001484BF002001F0B5
:1032D000004170BD0808A0F500114FEA31017047A8
:1032E00010B591EA030F48BF83F000433FF5EEAC01
:1032F000841A71EB030C07D212198CF0004C43EBCB
:103300000C03001B61EB0C01DFF8A4E14FEA115440
:10331000A4EB135C1EEA430F18BF9EEA445F00F063
:10332000B08023EA6E03524221EA0451C3EB6E03DC
:1033300038BF5B1EDCF1200E25D322FA0CFE10EB09
:103340000E0043FA0CFE41EB0E01CCF1200E03FA05
:103350000EFE10EB0E0051F10001CCF1200E29D42D
:1033600012FA0EF201EB0451BDE8104058BF70474D
:10337000401C1CBFB2F1004F704700280CBF491C15
:1033800020F00100704712EB020E43EB030218BF5E
:103390004FF0010E4EEA4202ACF1200CDCF11E0EA1
:1033A00054D943FA0CFE10EB0E0051F1FF31CCF171
:1033B0001E0ED5D50EF1010E12FA0EFE404141EB64
:1033C000010101EB445C5FEA5C5C10D910EBDE703C
:1033D00001EB045138BFBEF1004FBDE8104018BFEB
:1033E000704700280CBF491C20F00100704730D204
:1033F0004FEAD42C11F5001124F400641BD0B1FA6B
:1034000081F20B3AA41AA41ED2F12003914030FAA3
:1034100003F31943904001EBCC71002C01EB0451F4
:10342000BDE81040A8BF704701F1C0414FF0000057
:1034300001F000417047B0FA80F310FA03F100D1B7
:1034400010BDE41A173C4805C90AE4E701EB045132
:1034500010BD491001EB0451BDE810404FEA3000A7
:1034600002E04FF0000170474A0008BF0042F8D068
:10347000B2F5001F28BF704701F000414FF0000077
:1034800070479EEA445F07D011EA5E0FBDE8104026
:1034900004BF002100207047BDE8104070B5FFF761
:1034A000CBFE00BF40DFF63E83F000411046704780
:1034B0000000E0FF4FF04070E1EE100A7047FF217E
:1034C00041EAD050C0057047000400020006000128
:1034D0000005000300078000800480028006800150
:1034E0008005800380074000400440024006400100
:1034F000400540034007C000C004C002C006C00130
:10350000C005C003C00720002004200220062001BF
:10351000200520032007A000A004A002A006A0010F
:10352000A005A003A00760006004600260066001BF
:10353000600560036007E000E004E002E006E001EF
:10354000E005E003E007100010041002100610016F
:10355000100510031007900090049002900690014F
:1035600090059003900750005004500250065001FF
:10357000500550035007D000D004D002D006D0012F
:10358000D005D003D00730003004300230063001BF
:10359000300530033007B000B004B002B006B0010F
:1035A000B005B003B00770007004700270067001BF
:1035B000700570037007F000F004F002F006F001EF
:1035C000F005F003F00708000804080208060801E7
:1035D000080508030807880088048802880688010F
:1035E00088058803880748004804480248064801BF
:1035F000480548034807C800C804C802C806C801EF
:10360000C805C803C807280028042802280628017E
:10361000280528032807A800A804A802A806A801CE
:10362000A805A803A807680068046802680668017E
:10363000680568036807E800E804E802E806E801AE
:10364000E805E803E807180018041802180618012E
:10365000180518031807980098049802980698010E
:1036600098059803980758005804580258065801BE
:10367000580558035807D800D804D802D806D801EE
:10368000D805D803D807380038043802380638017E
:10369000380538033807B800B804B802B806B801CE
:1036A000B805B803B807780078047802780678017E
:1036B000780578037807F800F804F802F806F801AE
:1036C000F805F803F80704000404040204060401E2
:1036D000040504030407840084048402840684012E
:1036E00084058403840744004404440244064401DE
:1036F000440544034407C400C404C402C406C4010E
:10370000C405C403C407240024042402240624019D
:10371000240524032407A400A404A402A406A401ED
:10372000A405A403A407640064046402640664019D
:10373000640564036407E400E404E402E406E401CD
:10374000E405E403E407140014041402140614014D
:10375000140514031407940094049402940694012D
:1037600094059403940754005404540254065401DD
:10377000540554035407D400D404D402D406D4010D
:10378000D405D403D407340034043402340634019D
:10379000340534033407B400B404B402B406B401ED
:1037A000B405B403B407740074047402740674019D
:1037B000740574037407F400F404F402F406F401CD
:1037C000F405F403F4070C000C040C020C060C01C5
:1037D0000C050C030C078C008C048C028C068C01ED
:1037E0008C058C038C074C004C044C024C064C019D
:1037F0004C054C034C07CC00CC04CC02CC06CC01CD
:10380000CC05CC03CC072C002C042C022C062C015C
:103810002C052C032C07AC00AC04AC02AC06AC01AC
:10382000AC05AC03AC076C006C046C026C066C015C
:103830006C056C036C07EC00EC04EC02EC06EC018C
:10384000EC05EC03EC071C001C041C021C061C010C
:103850001C051C031C079C009C049C029C069C01EC
:103860009C059C039C075C005C045C025C065C019C
:103870005C055C035C07DC00DC04DC02DC06DC01CC
:10388000DC05DC03DC073C003C043C023C063C015C
:103890003C053C033C07BC00BC04BC02BC06BC01AC
:1038A000BC05BC03BC077C007C047C027C067C015C
:1038B0007C057C037C07FC00FC04FC02FC06FC018C
:1038C000FC05FC03FC0702000204020202060201DE
:1038D000020502030207820082048202820682013C
:1038E00082058203820742004204420242064201EC
:1038F000420542034207C200C204C202C206C2011C
:10390000C205C203C20722002204220222062201AB
:10391000220522032207A200A204A202A206A201FB
:10392000A205A203A20762006204620262066201AB
:10393000620562036207E200E204E202E206E201DB
:10394000E205E203E207120012041202120612015B
:10395000120512031207920092049202920692013B
:1039600092059203920752005204520252065201EB
:10397000520552035207D200D204D202D206D2011B
:10398000D205D203D20732003204320232063201AB
:10399000320532033207B200B204B202B206B201FB
:1039A000B205B203B20772007204720272067201AB
:1039B000720572037207F200F204F202F206F201DB
:1039C000F205F203F2070A000A040A020A060A01D3
:1039D0000A050A030A078A008A048A028A068A01FB
:1039E0008A058A038A074A004A044A024A064A01AB
:1039F0004A054A034A07CA00CA04CA02CA06CA01DB
:103A0000CA05CA03CA072A002A042A022A062A016A
:103A10002A052A032A07AA00AA04AA02AA06AA01BA
:103A2000AA05AA03AA076A006A046A026A066A016A
:103A30006A056A036A07EA00EA04EA02EA06EA019A
:103A4000EA05EA03EA071A001A041A021A061A011A
:103A50001A051A031A079A009A049A029A069A01FA
:103A60009A059A039A075A005A045A025A065A01AA
:103A70005A055A035A07DA00DA04DA02DA06DA01DA
:103A8000DA05DA03DA073A003A043A023A063A016A
:103A90003A053A033A07BA00BA04BA02BA06BA01BA
:103AA000BA05BA03BA077A007A047A027A067A016A
:103AB0007A057A037A07FA00FA04FA02FA06FA019A
:103AC000FA05FA03FA0706000604060206060601CE
:103AD000060506030607860086048602860686011A
:103AE00086058603860746004604460246064601CA
:103AF000460546034607C600C604C602C606C601FA
:103B0000C605C603C6072600260426022606260189
:103B1000260526032607A600A604A602A606A601D9
:103B2000A605A603A6076600660466026606660189
:103B3000660566036607E600E604E602E606E601B9
:103B4000E605E603E6071600160416021606160139
:103B50001605160316079600960496029606960119
:103B600096059603960756005604560256065601C9
:103B7000560556035607D600D604D602D606D601F9
:103B8000D605D603D6073600360436023606360189
:103B9000360536033607B600B604B602B606B601D9
:103BA000B605B603B6077600760476027606760189
:103BB000760576037607F600F604F602F606F601B9
:103BC000F605F603F6070E000E040E020E060E01B1
:103BD0000E050E030E078E008E048E028E068E01D9
:103BE0008E058E038E074E004E044E024E064E0189
:103BF0004E054E034E07CE00CE04CE02CE06CE01B9
:103C0000CE05CE03CE072E002E042E022E062E0148
:103C10002E052E032E07AE00AE04AE02AE06AE0198
:103C2000AE05AE03AE076E006E046E026E066E0148
:103C30006E056E036E07EE00EE04EE02EE06EE0178
:103C4000EE05EE03EE071E001E041E021E061E01F8
:103C50001E051E031E079E009E049E029E069E01D8
:103C60009E059E039E075E005E045E025E065E0188
:103C70005E055E035E07DE00DE04DE02DE06DE01B8
:103C8000DE05DE03DE073E003E043E023E063E0148
:103C90003E053E033E07BE00BE04BE02BE06BE0198
:103CA000BE05BE03BE077E007E047E027E067E0148
:103CB0007E057E037E07FE00FE04FE02FE06FE0178
:103CC000FE05FE03FE0701000000803F000000002B
:103CD000ECFF7F3FD40FC93AB1FF7F3FC70F493B8D
:103CE0004EFF7F3FC1CB963BC4FE7F3F890FC93B50
:103CF00013FE7F3F3053FB3B39FD7F3F59CB163CD2
:103D000039FC7F3F02ED2F3C11FB7F3F900E493C79
:103D1000C1F97F3F0030623C4AF87F3F4B517B3C0A
:103D2000ACF67F3F38398A3CE6F47F3FB6C9963C13
:103D3000F8F27F3F1C5AA33CE3F07F3F69EAAF3CB7
:103D4000A7EE7F3F9B7ABC3C43EC7F3FB00AC93C67
:103D5000B8E97F3FA69AD53C05E77F3F7B2AE23C46
:103D60002BE47F3F2DBAEE3C29E17F3FB949FB3C74
:103D700000DE7F3F90EC033DAFDA7F3F2F340A3DFA
:103D800037D77F3FB87B103D98D37F3F2CC3163D7C
:103D9000D1CF7F3F880A1D3DE2CB7F3FCC51233DF1
:103DA000CCC77F3FF698293D8FC37F3F07E02F3D6B
:103DB0002ABF7F3FFC26363D9EBA7F3FD56D3C3DF6
:103DC000EAB57F3F91B4423D0FB17F3F2FFB483DA5
:103DD0000DAC7F3FAF414F3DE3A67F3F0E88553D81
:103DE00091A17F3F4CCE5B3D189C7F3F6814623DA4
:103DF00078967F3F625A683DB1907F3F38A06E3D14
:103E0000C28A7F3FE9E5743DAB847F3F742B7B3DE5
:103E10006D7E7F3F6CB8803D08787F3F0ADB833D35
:103E20007B717F3F94FD863DC76A7F3F0A208A3DB4
:103E3000EC637F3F6A428D3DE95C7F3FB464903D17
:103E4000BF557F3FE786933D6D4E7F3F05A9963D69
:103E5000F4467F3F0ACB993D543F7F3FF9EC9C3DB0
:103E60008D377F3FCF0EA03D9D2F7F3F8C30A33DF0
:103E700087277F3F3052A63D491F7F3FBA73A93D38
:103E8000E4167F3F2B95AC3D580E7F3F80B6AF3D8B
:103E9000A4057F3FBBD7B23DC9FC7E3FDAF8B53DF4
:103EA000C7F37E3FDD19B93D9DEA7E3FC33ABC3D75
:103EB0004CE17E3F8D5BBF3DD4D77E3F397CC23D18
:103EC00034CE7E3FC69CC53D6DC47E3F36BDC83DE9
:103ED0007FBA7E3F86DDCB3D69B07E3FB7FDCE3DEC
:103EE0002DA67E3FC81DD23DC99B7E3FB93DD53D25
:103EF0003D917E3F895DD83D8B867E3F377DDB3DA2
:103F0000B17B7E3FC49CDE3DB0707E3F2EBCE13D68
:103F100088657E3F76DBE43D385A7E3F9AFAE73D7E
:103F2000C14E7E3F9A19EB3D23437E3F7638EE3DEE
:103F30005E377E3F2E57F13D722B7E3FC075F43DBC
:103F40005E1F7E3F2C94F73D24137E3F73B2FA3DF3
:103F5000C2067E3F92D0FD3D38FA7D3F4577003E58
:103F600088ED7D3F2E06023EB1E07D3F0295033E87
:103F7000B2D37D3FC223053E8CC67D3F6EB2063E66
:103F800040B97D3F0541083ECCAB7D3F86CF093E21
:103F9000309E7D3FF35D0B3E6E907D3F4AEC0C3EC4
:103FA00085827D3F8B7A0E3E74747D3FB708103E4C
:103FB0003D667D3FCC96113EDE577D3FCA24133EC1
:103FC00059497D3FB2B2143EAC3A7D3F8340163E24
:103FD000D82B7D3F3DCE173EDD1C7D3FE05B193E7B
:103FE000BC0D7D3F6BE91A3E73FE7C3FDE761C3EC6
:103FF00003EF7C3F38041E3E6CDF7C3F7B911F3E0D
:10400000AECF7C3FA51E213EC9BF7C3FB6AB223E52
:10401000BDAF7C3FAD38243E8A9F7C3F8CC5253E9A
:10402000318F7C3F5152273EB07E7C3FFCDE283EE4
:10403000086E7C3F8D6B2A3E3A5D7C3F04F82B3E38
:10404000444C7C3F61842D3E283B7C3FA2102F3E98
:10405000E5297C3FC99C303E7A187C3FD428323E0B
:10406000E9067C3FC4B4333E31F57B3F9840353E92
:1040700053E37B3F50CC363E4DD17B3FEC57383E2F
:1040800020BF7B3F6CE3393ECDAC7B3FCF6E3B3EE8
:10409000539A7B3F15FA3C3EB2877B3F3E853E3EBE
:1040A000EA747B3F4910403EFC617B3F379B413EB9
:1040B000E74E7B3F0726433EAB3B7B3FB9B0443ED8
:1040C00048287B3F4D3B463EBE147B3FC2C5473E22
:1040D0000E017B3F1850493E37ED7A3F4FDA4A3E9A
:1040E0003AD97A3F67644C3E16C57A3F60EE4D3E42
:1040F000CBB07A3F38784F3E599C7A3FF101513E20
:10410000C1877A3F898B523E02737A3F0115543E34
:104110001C5E7A3F589E553E10497A3F8F27573E86
:10412000DD337A3FA4B0583E841E7A3F97395A3E19
:1041300004097A3F6AC25B3E5EF3793F1A4B5D3EEB
:1041400091DD793FA8D35E3E9DC7793F135C603E09
:1041500083B1793F5CE4613E439B793F836C633E6E
:10416000DC84793F86F4643E4E6E793F667C663E21
:104170009A57793F2204683EC040793FBA8B693E26
:10418000BF29793F2F136B3E9812793F7F9A6C3E7F
:104190004AFB783FAB216E3ED6E3783FB2A86F3E34
:1041A0003BCC783F942F713E7BB4783F51B6723E42
:1041B000939C783FE83C743E8684783F5AC3753EB2
:1041C000526C783FA649773EF853783FCCCF783E83
:1041D000773B783FCB557A3ED122783FA4DB7B3EBC
:1041E000040A783F56617D3E10F1773FE1E67E3E5E
:1041F000F7D7773F2236803EB7BE773FC0F8803E84
:1042000051A5773F4ABB813EC58B773FC07D823E3B
:104210001372773F2240833E3A58773F7002843EC4
:104220003C3E773FAAC4843E1724773FCE86853E26
:10423000CC09773FDF48863E5BEF763FDA0A873E60
:10424000C4D4763FC1CC873E07BA763F938E883E72
:10425000249F763F5050893E1B84763FF8118A3E5A
:10426000EC68763F8AD38A3E974D763F07958B3E22
:104270001B32763F6E568C3E7A16763FC0178D3EC7
:10428000B3FA753FFCD88D3EC6DE753F229A8E3E4E
:10429000B3C2753F325B8F3E7BA6753F2C1C903EB0
:1042A0001C8A753F10DD903E976D753FDD9D913EF8
:1042B000ED50753F945E923E1D34753F351F933E21
:1042C0002717753FBFDF933E0BFA743F31A0943E32
:1042D000C9DC743F8D60953E62BF743FD220963E2C
:1042E000D5A1743F00E1963E2284743F17A1973E0A
:1042F0004966743F1661983E4B48743FFE20993ED4
:10430000272A743FCEE0993EDD0B743F86A09A3E8B
:104310006EED733F27609B3ED9CE733FAF1F9C3E2F
:104320001FB0733F20DF9C3E3F91733F789E9D3EC0
:104330003972733FB85D9E3E0E53733FDF1C9F3E44
:10434000BE33733FEEDB9F3E4714733FE59AA03EBA
:10435000ACF4723FC259A13EEBD4723F8718A23E23
:1043600004B5723F33D7A23EF894723FC595A33E81
:10437000C774723F3F54A43E7054723F9F12A53ED3
:10438000F433723FE5D0A53E5213723F128FA63E22
:104390008CF2713F254DA73E9FD1713F1F0BA83E68
:1043A0008EB0713FFEC8A83E578F713FC486A93EAC
:1043B000FB6D713F6F44AA3E7A4C713F0102AB3EE8
:1043C000D42A713F77BFAB3E0809713FD47CAC3E25
:1043D00017E7703F153AAD3E02C5703F3CF7AD3E62
:1043E000C6A2703F49B4AE3E6680703F3A71AF3EA0
:1043F000E15D703F102EB03E373B703FCBEAB03EE0
:104400006718703F6BA7B13E73F56F3FEF63B23E25
:104410005AD26F3F5820B33E1BAF6F3FA5DCB33E6F
:10442000B88B6F3FD698B43E30686F3FEC54B53EC2
:1044300083446F3FE610B63EB0206F3FC3CCB63E1C
:10444000BAFC6E3F8488B73E9ED86E3F2A44B83E81
:104450005DB46E3FB2FFB83EF88F6E3F1EBBB93EF3
:104460006D6B6E3F6E76BA3EBE466E3FA031BB3E70
:10447000EB216E3FB6ECBB3EF2FC6D3FAFA7BC3EFE
:10448000D5D76D3F8B62BD3E93B26D3F4A1DBE3E98
:104490002D8D6D3FEBD7BE3EA1676D3F6F92BF3E46
:1044A000F2416D3FD54CC03E1D1C6D3F1E07C13E05
:1044B00024F66C3F48C1C13E07D06C3F557BC23EDD
:1044C000C5A96C3F4435C33E5E836C3F15EFC33EC8
:1044D000D45C6C3FC8A8C43E24366C3F5C62C53EC9
:1044E000500F6C3FD21BC63E58E86B3F29D5C63EE5
:1044F0003BC16B3F628EC73EFB996B3F7C47C83E1A
:1045000095726B3F7700C93E0C4B6B3F53B9C93E68
:104510005E236B3F1072CA3E8CFB6A3FAE2ACB3ED5
:1045200095D36A3F2CE3CB3E7BAB6A3F8B9BCC3E63
:104530003C836A3FCA53CD3ED95A6A3FEA0BCE3E0E
:1045400052326A3FEAC3CE3EA7096A3FCA7BCF3EDA
:10455000D7E0693F8A33D03EE4B7693F2AEBD03ECB
:10456000CC8E693FAAA2D13E9165693F095AD23EDD
:10457000323C693F4811D33EAE12693F67C8D33E13
:1045800007E9683F647FD43E3CBF683F4136D53E73
:104590004C95683FFDECD53E396B683F99A3D63EFC
:1045A0000341683F135AD73EA816683F6B10D83EA8
:1045B0002AEC673FA3C6D83E87C1673FB97CD93E86
:1045C000C196673FAD32DA3ED86B673F80E8DA3E8E
:1045D000CA40673F319EDB3E9915673FC153DC3EC1
:1045E00045EA663F2E09DD3ECCBE663F79BEDD3E24
:1045F0003093663FA273DE3E7167663FA928DF3EB7
:104600008E3B663F8DDDDF3E880F663F4F92E03E7A
:104610005EE3653FEE46E13E10B7653F6AFBE13E73
:10462000A08A653FC4AFE23E0B5E653FFA63E33E9E
:104630005431653F0E18E43E7904653FFECBE43EFD
:104640007BD7643FCB7FE53E59AA643F7533E63E96
:10465000147D643FFBE6E63EAC4F643F5D9AE73E67
:104660002122643F9C4DE83E73F4633FB700E93E6E
:10467000A1C6633FAEB3E93EAC98633F8166EA3EB4
:10468000956A633F3019EB3E5A3C633FBBCBEB3E30
:10469000FC0D633F217EEC3E7BDF623F6330ED3EED
:1046A000D7B0623F80E2ED3E1082623F7994EE3EE9
:1046B0002653623F4C46EF3E1A24623FFBF7EF3E23
:1046C000EAF4613F85A9F03E98C5613FEA5AF13EA0
:1046D0002296613F290CF23E8A66613F43BDF23E5D
:1046E000D036613F386EF33EF206613F071FF43E5D
:1046F000F2D6603FB1CFF43ECFA6603F3580F53EA5
:104700008976603F9330F63E2146603FCBE0F63E2F
:104710009615603FDC90F73EE9E45F3FC840F83E05
:1047200019B45F3F8EF0F83E27835F3F2DA0F93E1E
:1047300012525F3FA54FFA3EDB205F3FF7FEFA3E85
:1047400081EF5E3F22AEFB3E05BE5E3F275DFC3E35
:10475000678C5E3F040CFD3EA65A5E3FBBBAFD3E31
:10476000C3285E3F4A69FE3EBEF65D3FB217FF3E7C
:1047700097C45D3FF3C5FF3E4D925D3F063A003F53
:10478000E15F5D3FFF90003F532D5D3FE4E7003F59
:10479000A3FA5C3FB53E013FD1C75C3F7395013F33
:1047A000DD945C3F1CEC013FC7615C3FB142023FBE
:1047B0008E2E5C3F3299023F34FB5B3F9FEF023FFE
:1047C000B8C75B3FF845033F1A945B3F3D9C033FEE
:1047D0005A605B3F6DF2033F792C5B3F8948043F91
:1047E00075F85A3F919E043F50C45A3F84F4043FE9
:1047F00009905A3F624A053FA05B5A3F2CA0053FF3
:1048000016275A3FE2F5053F6AF2593F824B063FB1
:104810009CBD593F0EA1063FAD88593F86F6063F25
:104820009C53593FE84B073F6A1E593F36A1073F4B
:1048300017E9583F6FF6073FA1B3583F924B083F27
:104840000B7E583FA1A0083F5348583F9BF5083FB7
:104850007912583F7F4A093F7FDC573F4E9F093FFF
:1048600063A6573F09F4093F2670573FAD480A3FFA
:10487000C739573F3D9D0A3F4803573FB7F10A3FAD
:10488000A7CC563F1C460B3FE595563F6B9A0B3F16
:10489000025F563FA5EE0B3FFE27563FC9420C3F35
:1048A000D9F0553FD7960C3F93B9553FD0EA0C3F0E
:1048B0002C82553FB33E0D3FA44A553F81920D3F98
:1048C000FB12553F38E60D3F31DB543FDA390E3FDE
:1048D00047A3543F658D0E3F3B6B543FDBE00E3FDB
:1048E0000F33543F3B340F3FC3FA533F84870F3F8E
:1048F00055C2533FB8DA0F3FC789533FD52D103FFC
:104900001851533FDC80103F4918533FCDD3103F1F
:1049100059DF523FA726113F49A6523F6B79113FFD
:10492000186D523F19CC113FC633523FB01E123F93
:1049300054FA513F3071123FC2C0513F9AC3123FE7
:104940001087513FEE15133F3D4D513F2A68133FED
:104950004A13513F50BA133F37D9503F5F0C143FB1
:10496000039F503F585E143FAF64503F39B0143F2F
:104970003B2A503F0402153FA8EF4F3FB753153F66
:10498000F4B44F3F54A5153F1F7A4F3FD9F6153F5A
:104990002B3F4F3F4748163F17044F3F9F99163F05
:1049A000E4C84E3FDFEA163F908D4E3F073C173F6D
:1049B0001C524E3F188D173F89164E3F12DE173F8F
:1049C000D5DA4D3FF52E183F029F4D3FC07F183F6F
:1049D00010634D3F73D0183FFD264D3F0F21193F07
:1049E000CBEA4C3F9471193F79AE4C3F00C2193F5E
:1049F00008724C3F55121A3F78354C3F93621A3F6C
:104A0000C7F84B3FB8B21A3FF8BB4B3FC6021B3F3B
:104A1000097F4B3FBB521B3FFA414B3F99A21B3FC3
:104A2000CC044B3F5FF21B3F7FC74A3F0C421C3F09
:104A3000138A4A3FA2911C3F874C4A3F1FE11C3F0B
:104A4000DC0E4A3F84301D3F12D1493FD17F1D3FCC
:104A50002993493F06CF1D3F2155493F221E1E3F46
:104A6000FA16493F266D1E3FB3D8483F12BC1E3F81
:104A70004E9A483FE50A1F3FCA5B483F9F591F3F78
:104A8000271D483F41A81F3F65DE473FCBF61F3F2C
:104A9000849F473F3B45203F8560473F9393203F9E
:104AA0006721473FD2E1203F2AE2463FF92F213FCD
:104AB000CEA2463F067E213F5463463FFBCB213FBB
:104AC000BB23463FD719223F03E4453F9967223F66
:104AD0002DA4453F43B5223F3964453FD302233FD0
:104AE0002624453F4B50233FF5E3443FA99D233FF8
:104AF000A5A3443FEEEA233F3763443F1A38243FDF
:104B0000AB22443F2C85243F00E2433F25D2243F83
:104B100038A1433F041F253F5160433FCB6B253FE6
:104B20004C1F433F77B8253F29DE423F0A05263F09
:104B3000E89C423F8451263F895B423FE39D263FEC
:104B40000B1A423F2AEA263F70D8413F5636273F8C
:104B5000B796413F6882273FE154413F61CE273FEE
:104B6000EC12413F401A283FDAD0403F0566283F0B
:104B7000A98E403FB0B1283F5C4C403F41FD283FEB
:104B8000F009403FB848293F67C73F3F1594293F88
:104B9000C0843F3F57DF293FFC413F3F802A2A3FE7
:104BA0001BFF3E3F8E752A3F1BBC3E3F82C02A3F03
:104BB000FF783E3F5B0B2B3FC5353E3F1B562B3FDF
:104BC0006EF23D3FBFA02B3FF9AE3D3F4AEB2B3F7E
:104BD000676B3D3FB9352C3FB8273D3F0F802C3FD9
:104BE000ECE33C3F49CA2C3F03A03C3F69142D3FF6
:104BF000FC5B3C3F6F5E2D3FD9173C3F59A82D3FD2
:104C000098D33B3F29F22D3F3B8F3B3FDE3B2E3F6E
:104C1000C14A3B3F78852E3F29063B3FF7CE2E3FCA
:104C200075C13A3F5B182F3FA47C3A3FA5612F3FE7
:104C3000B7373A3FD3AA2F3FACF2393FE6F32F3FC5
:104C400085AD393FDE3C303F4268393FBB85303F60
:104C5000E122393F7CCE303F65DD383F2217313FBE
:104C6000CB97383FAD5F313F1652383F1DA8313FDB
:104C7000430C383F71F0313F55C6373FAA38323FB9
:104C80004A80373FC780323F233A373FC9C8323F57
:104C9000DFF3363FAF10333F7FAD363F7A58333FB7
:104CA0000467363F29A0333F6C20363FBCE7333FD3
:104CB000B8D9353F342F343FE792353F8F76343FB4
:104CC000FB4B353FCFBD343FF304353FF304353F55
:104CD000CFBD343FFB4B353F8F76343FE792353FB6
:104CE000342F343FB8D9353FBCE7333F6C20363FD3
:104CF00029A0333F0467363F7A58333F7FAD363FB4
:104D0000AF10333FDFF3363FC9C8323F233A373F56
:104D1000C780323F4A80373FAA38323F55C6373FB7
:104D200071F0313F430C383F1DA8313F1652383FD8
:104D3000AD5F313FCB97383F2217313F65DD383FBC
:104D40007CCE303FE122393FBB85303F4268393F5E
:104D5000DE3C303F85AD393FE6F32F3FACF2393FC3
:104D6000D3AA2F3FB7373A3FA5612F3FA47C3A3FE4
:104D70005B182F3F75C13A3FF7CE2E3F29063B3FC8
:104D800078852E3FC14A3B3FDE3B2E3F3B8F3B3F6A
:104D900029F22D3F98D33B3F59A82D3FD9173C3FCF
:104DA0006F5E2D3FFC5B3C3F69142D3F03A03C3FF1
:104DB00049CA2C3FECE33C3F0F802C3FB8273D3FD6
:104DC000B9352C3F676B3D3F4AEB2B3FF9AE3D3F7A
:104DD000BFA02B3F6EF23D3F1B562B3FC5353E3FDC
:104DE0005B0B2B3FFF783E3F82C02A3F1BBC3E3F00
:104DF0008E752A3F1BFF3E3F802A2A3FFC413F3FE2
:104E000057DF293FC0843F3F1594293F67C73F3F85
:104E1000B848293FF009403F41FD283F5C4C403FE6
:104E2000B0B1283FA98E403F0566283FDAD0403F09
:104E3000401A283FEC12413F61CE273FE154413FE9
:104E40006882273FB796413F5636273F70D8413F8B
:104E50002AEA263F0B1A423FE39D263F895B423FE9
:104E60008451263FE89C423F0A05263F29DE423F07
:104E700077B8253F4C1F433FCB6B253F5160433FE5
:104E8000041F253F38A1433F25D2243F00E2433F82
:104E90002C85243FAB22443F1A38243F3763443FDC
:104EA000EEEA233FA5A3443FA99D233FF5E3443FFA
:104EB0004B50233F2624453FD302233F3964453FCF
:104EC00043B5223F2DA4453F9967223F03E4453F68
:104ED000D719223FBB23463FFBCB213F5463463FBC
:104EE000067E213FCEA2463FF92F213F2AE2463FD0
:104EF000D2E1203F6721473F9393203F8560473FA2
:104F00003B45203F849F473FCBF61F3F65DE473F31
:104F100041A81F3F271D483F9F591F3FCA5B483F7D
:104F2000E50A1F3F4E9A483F12BC1E3FB3D8483F88
:104F3000266D1E3FFA16493F221E1E3F2155493F4E
:104F400006CF1D3F2993493FD17F1D3F12D1493FD5
:104F500084301D3FDC0E4A3F1FE11C3F874C4A3F17
:104F6000A2911C3F138A4A3F0C421C3F7FC74A3F15
:104F70005FF21B3FCC044B3F99A21B3FFA414B3FD2
:104F8000BB521B3F097F4B3FC6021B3FF8BB4B3F49
:104F9000B8B21A3FC7F84B3F93621A3F78354C3F7F
:104FA00055121A3F08724C3F00C2193F79AE4C3F70
:104FB0009471193FCBEA4C3F0F21193FFD264D3F1D
:104FC00073D0183F10634D3FC07F183F029F4D3F85
:104FD000F52E183FD5DA4D3F12DE173F89164E3FAA
:104FE000188D173F1C524E3F073C173F908D4E3F88
:104FF000DFEA163FE4C84E3F9F99163F17044F3F24
:105000004748163F2B3F4F3FD9F6153F1F7A4F3F7A
:1050100054A5153FF4B44F3FB753153FA8EF4F3F8A
:105020000402153F3B2A503F39B0143FAF64503F54
:10503000585E143F039F503F5F0C143F37D9503FD9
:1050400050BA133F4A13513F2A68133F3D4D513F19
:10505000EE15133F1087513F9AC3123FC2C0513F14
:105060003071123F54FA513FB01E123FC633523FC7
:1050700019CC113F186D523F6B79113F49A6523F31
:10508000A726113F59DF523FCDD3103F4918533F58
:10509000DC80103F1851533FD52D103FC789533F37
:1050A000B8DA0F3F55C2533F84870F3FC3FA533FCF
:1050B0003B340F3F0F33543FDBE00E3F3B6B543F1D
:1050C000658D0E3F47A3543FDA390E3F31DB543F25
:1050D00038E60D3FFB12553F81920D3FA44A553FE4
:1050E000B33E0D3F2C82553FD0EA0C3F93B9553F5C
:1050F000D7960C3FD9F0553FC9420C3FFE27563F8B
:10510000A5EE0B3F025F563F6B9A0B3FE595563F6E
:105110001C460B3FA7CC563FB7F10A3F4803573F09
:105120003D9D0A3FC739573FAD480A3F2670573F5C
:1051300009F4093F63A6573F4E9F093F7FDC573F65
:105140007F4A093F7912583F9BF5083F5348583F23
:10515000A1A0083F0B7E583F924B083FA1B3583F98
:105160006FF6073F17E9583F36A1073F6A1E593FC0
:10517000E84B073F9C53593F86F6063FAD88593FA1
:105180000EA1063F9CBD593F824B063F6AF2593F34
:10519000E2F5053F16275A3F2CA0053FA05B5A3F7A
:1051A000624A053F09905A3F84F4043F50C45A3F75
:1051B000919E043F75F85A3F8948043F792C5B3F24
:1051C0006DF2033F5A605B3F3D9C033F1A945B3F87
:1051D000F845033FB8C75B3F9FEF023F34FB5B3F9F
:1051E0003299023F8E2E5C3FB142023FC7615C3F65
:1051F0001CEC013FDD945C3F7395013FD1C75C3FE0
:10520000B53E013FA3FA5C3FE4E7003F532D5D3F0D
:10521000FF90003FE15F5D3F063A003F4D925D3FEA
:10522000F3C5FF3E97C45D3FB217FF3EBEF65D3F3C
:105230004A69FE3EC3285E3FBBBAFD3EA65A5E3FAA
:10524000040CFD3E678C5E3F275DFC3E05BE5E3F65
:1052500022AEFB3E81EF5E3FF7FEFA3EDB205F3F72
:10526000A54FFA3E12525F3F2DA0F93E27835F3FC4
:105270008EF0F83E19B45F3FC840F83EE9E45F3F66
:10528000DC90F73E9615603FCBE0F63E2146603F4E
:105290009330F63E8976603F3580F53ECFA6603F7D
:1052A000B1CFF43EF2D6603F071FF43EF206613FF5
:1052B000386EF33ED036613F43BDF23E8A66613FB1
:1052C000290CF23E2296613FEA5AF13E98C5613FB1
:1052D00085A9F03EEAF4613FFBF7EF3E1A24623FF6
:1052E0004C46EF3E2653623F7994EE3E1082623F79
:1052F00080E2ED3ED7B0623F6330ED3E7BDF623F40
:10530000217EEC3EFC0D633FBBCBEB3E5A3C633F42
:105310003019EB3E956A633F8166EA3EAC98633F85
:10532000AEB3E93EA1C6633FB700E93E73F4633F05
:105330009C4DE83E2122643F5D9AE73EAC4F643FBE
:10534000FBE6E63E147D643F7533E63E59AA643FB2
:10535000CB7FE53E7BD7643FFECBE43E7904653FDF
:105360000E18E43E5431653FFA63E33E0B5E653F41
:10537000C4AFE23EA08A653F6AFBE13E10B7653FDD
:10538000EE46E13E5EE3653F4F92E03E880F663FAA
:105390008DDDDF3E8E3B663FA928DF3E7167663FAD
:1053A000A273DE3E3093663F79BEDD3ECCBE663FE3
:1053B0002E09DD3E45EA663FC153DC3E9915673F45
:1053C000319EDB3ECA40673F80E8DA3ED86B673FDC
:1053D000AD32DA3EC196673FB97CD93E87C1673F9F
:1053E000A3C6D83E2AEC673F6B10D83EA816683F8C
:1053F000135AD73E0341683F99A3D63E396B683FA5
:10540000FDECD53E4C95683F4136D53E3CBF683FEC
:10541000647FD43E07E9683F67C8D33EAE12693F58
:105420004811D33E323C693F095AD23E9165693FEB
:10543000AAA2D13ECC8E693F2AEBD03EE4B7693FA9
:105440008A33D03ED7E0693FCA7BCF3EA7096A3F87
:10545000EAC3CE3E52326A3FEA0BCE3ED95A6A3F89
:10546000CA53CD3E3C836A3F8B9BCC3E7BAB6A3FAD
:105470002CE3CB3E95D36A3FAE2ACB3E8CFB6A3FF2
:105480001072CA3E5E236B3F53B9C93E0C4B6B3F53
:105490007700C93E95726B3F7C47C83EFB996B3FD6
:1054A000628EC73E3BC16B3F29D5C63E58E86B3F75
:1054B000D21BC63E500F6C3F5C62C53E24366C3F2B
:1054C000C8A8C43ED45C6C3F15EFC33E5E836C3FFE
:1054D0004435C33EC5A96C3F557BC23E07D06C3FE7
:1054E00048C1C13E24F66C3F1E07C13E1D1C6D3FE6
:1054F000D54CC03EF2416D3F6F92BF3EA1676D3FFC
:10550000EBD7BE3E2D8D6D3F4A1DBE3E93B26D3F23
:105510008B62BD3ED5D76D3FAFA7BC3EF2FC6D3F61
:10552000B6ECBB3EEB216E3FA031BB3EBE466E3FAC
:105530006E76BA3E6D6B6E3F1EBBB93EF88F6E3F06
:10554000B2FFB83E5DB46E3F2A44B83E9ED86E3F6F
:105550008488B73EBAFC6E3FC3CCB63EB0206F3FE6
:10556000E610B63E83446F3FEC54B53E30686F3F63
:10557000D698B43EB88B6F3FA5DCB33E1BAF6F3FF0
:105580005820B33E5AD26F3FEF63B23E73F56F3F80
:105590006BA7B13E6718703FCBEAB03E373B703F18
:1055A000102EB03EE15D703F3A71AF3E6680703FB5
:1055B00049B4AE3EC6A2703F3CF7AD3E02C5703F57
:1055C000153AAD3E17E7703FD47CAC3E0809713FF9
:1055D00077BFAB3ED42A713F0102AB3E7A4C713F9C
:1055E0006F44AA3EFB6D713FC486A93E578F713F41
:1055F000FEC8A83E8EB0713F1F0BA83E9FD1713FE1
:10560000254DA73E8CF2713F128FA63E5213723F7A
:10561000E5D0A53EF433723F9F12A53E7054723F11
:105620003F54A43EC774723FC595A33EF894723FA1
:1056300033D7A23E04B5723F8718A23EEBD4723F27
:10564000C259A13EACF4723FE59AA03E4714733FA5
:10565000EEDB9F3EBE33733FDF1C9F3E0E53733F16
:10566000B85D9E3E3972733F789E9D3E3F91733F79
:1056700020DF9C3E1FB0733FAF1F9C3ED9CE733FCF
:1056800027609B3E6EED733F86A09A3EDD0B743F14
:10569000CEE0993E272A743FFE20993E4B48743F46
:1056A0001661983E4966743F17A1973E2284743F65
:1056B00000E1963ED5A1743FD220963E62BF743F72
:1056C0008D60953EC9DC743F31A0943E0BFA743F67
:1056D000BFDF933E2717753F351F933E1D34753F3F
:1056E000945E923EED50753FDD9D913E976D753F06
:1056F00010DD903E1C8A753F2C1C903E7BA6753FAA
:10570000325B8F3EB3C2753F229A8E3EC6DE753F36
:10571000FCD88D3EB3FA753FC0178D3E7A16763FA2
:105720006E568C3E1B32763F07958B3E974D763FEB
:105730008AD38A3EEC68763FF8118A3E1B84763F16
:105740005050893E249F763F938E883E07BA763F1D
:10575000C1CC873EC4D4763FDA0A873E5BEF763F02
:10576000DF48863ECC09773FCE86853E1724773FBB
:10577000AAC4843E3C3E773F7002843E3A58773F4D
:105780002240833E1372773FC07D823EC58B773FB8
:105790004ABB813E51A5773FC0F8803EB7BE773FF8
:1057A0002236803EF7D7773FE1E67E3E10F1773F25
:1057B00056617D3E040A783FA4DB7B3ED122783FD0
:1057C000CB557A3E773B783FCCCF783EF853783F45
:1057D000A649773E526C783F5AC3753E8684783F1F
:1057E000E83C743E939C783F51B6723E7BB4783F60
:1057F000942F713E3BCC783FB2A86F3ED6E3783F02
:10580000AB216E3E4AFB783F7F9A6C3E9812793FFF
:105810002F136B3EBF29793FBA8B693EC040793F59
:105820002204683E9A57793F667C663E4E6E793F09
:1058300086F4643EDC84793F836C633E439B793F0E
:105840005CE4613E83B1793F135C603E9DC7793F64
:10585000A8D35E3E91DD793F1A4B5D3E5EF3793F02
:105860006AC25B3E04097A3F97395A3E841E7A3FEA
:10587000A4B0583EDD337A3F8F27573E10497A3F18
:10588000589E553E1C5E7A3F0115543E02737A3F86
:10589000898B523EC1877A3FF101513E599C7A3F34
:1058A00038784F3ECBB07A3F60EE4D3E16C57A3F1A
:1058B00067644C3E3AD97A3F4FDA4A3E37ED7A3F39
:1058C0001850493E0E017B3FC2C5473EBE147B3F88
:1058D0004D3B463E48287B3FB9B0443EAB3B7B3F07
:1058E0000726433EE74E7B3F379B413EFC617B3FB3
:1058F0004910403EEA747B3F3E853E3EB2877B3F87
:1059000015FA3C3E539A7B3FCF6E3B3ECDAC7B3F7E
:105910006CE3393E20BF7B3FEC57383E4DD17B3F97
:1059200050CC363E53E37B3F9840353E31F57B3FCC
:10593000C4B4333EE9067C3FD428323E7A187C3F1B
:10594000C99C303EE5297C3FA2102F3E283B7C3F7E
:1059500061842D3E444C7C3F04F82B3E3A5D7C3FF5
:105960008D6B2A3E086E7C3FFCDE283EB07E7C3F7D
:105970005152273E318F7C3F8CC5253E8A9F7C3F0C
:10598000AD38243EBDAF7C3FB6AB223EC9BF7C3FA5
:10599000A51E213EAECF7C3F7B911F3E6CDF7C3F3E
:1059A00038041E3E03EF7C3FDE761C3E73FE7C3FD8
:1059B0006BE91A3EBC0D7D3FE05B193EDD1C7D3F6F
:1059C0003DCE173ED82B7D3F8340163EAC3A7D3FFF
:1059D000B2B2143E59497D3FCA24133EDE577D3F83
:1059E000CC96113E3D667D3FB708103E74747D3FF6
:1059F0008B7A0E3E85827D3F4AEC0C3E6E907D3F59
:105A0000F35D0B3E309E7D3F86CF093ECCAB7D3FA4
:105A10000541083E40B97D3F6EB2063E8CC67D3FD3
:105A2000C223053EB2D37D3F0295033EB1E07D3FE8
:105A30002E06023E88ED7D3F4577003E38FA7D3FD9
:105A400092D0FD3DC2067E3F73B2FA3D24137E3FE5
:105A50002C94F73D5E1F7E3FC075F43D722B7E3F58
:105A60002E57F13D5E377E3F7638EE3D23437E3F35
:105A70009A19EB3DC14E7E3F9AFAE73D385A7E3F78
:105A800076DBE43D88657E3F2EBCE13DB0707E3F15
:105A9000C49CDE3DB17B7E3F377DDB3D8B867E3F08
:105AA000895DD83D3D917E3FB93DD53DC99B7E3F47
:105AB000C81DD23D2DA67E3FB7FDCE3D69B07E3FCD
:105AC00086DDCB3D7FBA7E3F36BDC83D6DC47E3F8F
:105AD000C69CC53D34CE7E3F397CC23DD4D77E3F87
