:020000040800F2
:100000006007002091090008B1020008B30200084F
:10001000B7020008BB020008BF0200080000000091
:10002000000000000000000000000000C302000803
:10003000C502000800000000C7020008C90200084D
:10004000AB090008AB090008AB090008AB090008C0
:10005000AB090008AB090008AB090008AB090008B0
:10006000AB090008AB090008AB090008AB090008A0
:10007000AB090008AB090008AB090008AB09000890
:10008000AB090008AB090008AB090008AB09000880
:10009000AB090008AB090008AB090008AB09000870
:1000A000AB090008AB090008AB090008AB09000860
:1000B000AB090008AB090008AB090008AB09000850
:1000C000AB090008AB090008AB090008AB09000840
:1000D000AB09000807090008AB090008AB090008D4
:1000E000AB090008AB090008AB090008AB09000820
:1000F000AB090008AB090008AB090008AB09000810
:10010000AB090008AB090008AB090008AB090008FF
:10011000AB090008AB090008AB090008AB090008EF
:10012000AB090008AB090008AB090008AB090008DF
:10013000AB090008AB090008AB090008AB090008CF
:10014000AB090008AB090008AB090008AB090008BF
:10015000AB090008AB090008AB090008AB090008AF
:10016000AB090008AB090008AB090008AB0900089F
:10017000AB090008AB090008AB090008AB0900088F
:10018000AB090008AB09000800F002F800F03CF8E9
:100190000AA090E8000C82448344AAF10107DA45E2
:1001A00001D100F031F8AFF2090EBAE80F0013F0F8
:1001B000010F18BFFB1A43F001031847D0270000B6
:1001C000F0270000103A24BF78C878C1FAD8520747
:1001D00024BF30C830C144BF04680C6070470000C1
:1001E0000023002400250026103A28BF78C1FBD840
:1001F000520728BF30C148BF0B6070471FB502F0DF
:10020000C0FB1FBD10B510BD01F0FFFE1146FFF78A
:10021000F5FF00F009F801F01DFF03B4FFF7F2FF4E
:1002200003BC00F00DFB000008B54FF4A06000F027
:10023000CFFBA82000F082FA4FF4E12000F00EFB83
:100240000420184B184A41060090184800F046F95F
:1002500000F09CF924E0002407E0102000F0E3F90E
:10026000054610490D55601C84B2042CF5DB0122B3
:1002700080210D48001F01F0D5F804210B4800F043
:100280006CF90BE04FF02051084800F04AFD28B10E
:100290004FF02051054800F060FD00E0F2E700BF9C
:1002A000D9E700000000002004100140B8640240BB
:1002B000704700BFFEE700BFFEE700BFFEE700BFDC
:1002C000FEE7704770477047704700000CB500208C
:1002D000019000907648006840F4803074490860CE
:1002E00000BF7348006800F4003000900198401C83
:1002F0000190009818B90198B0F5A04FF1D16C4861
:10030000006800F4003010B10120009001E00020EE
:1003100000900098012846D165484030006840F0C0
:1003200080506349403108606248006840F44040B2
:10033000604908605E48083000685D49083108601F
:100340000846006840F4004008600846006840F431
:10035000A05008605848091F0860081F006840F056
:100360008070091F086000BF5148006800F00070ED
:100370000028F9D040F20570504908604C48083018
:10038000006820F003004A49083108600846006808
:1003900040F00200086000BF45480830006800F0E7
:1003A0000C000828F8D10CBD10B54548006840F491
:1003B0007000434908603E48006840F001003C4935
:1003C000086000203A4908310860394800683D4912
:1003D0000840374908603C48091D0860081F00684C
:1003E00020F48020091F0860002031490C3108608A
:1003F000FFF76CFF4FF0006031498039086010BD95
:1004000070B500200022022300240221284D083567
:100410002D6805F00C0020B1042806D0082834D13E
:1004200007E02A4D2A4E356033E02A4D284E3560CC
:100430002FE01F4D2D1D2D68C5F380541C4D2D1D23
:100440002D6805F03F0154B1224DB5FBF1F5184E72
:10045000361D3668C6F3881605FB06F209E01B4D0B
:10046000B5FBF1F5124E361D3668C6F3881605FB4E
:1004700006F20F4D2D1D2D68C5F301456D1C6B0057
:10048000B2FBF3F5124E356003E0104D104E3560AF
:1004900000BF00BF064D08352D68C5F303150E4E8D
:1004A000705D0B4D2D68C540094E356070BD000074
:1004B000003802400070004008544007003C0240F1
:1004C00088ED00E0FFFFF6FE103000240024F40069
:1004D0000400002000127A00080000202DE9F041FD
:1004E00090B004460D4617461E46DDF85880264853
:1004F000844204D90121880501F0FCF903E00121BF
:10050000480501F0F7F9204600F0D2FA00BF204676
:1005100000F0F7FB0028FAD10195029703964020DE
:100520000490CDF81480002006904FF4806007906E
:100530000020089009900A904FF480300B90002022
:100540000C9003200D9000200E900F9001A92046E2
:1005500000F050FB10B0BDE8F08170B504460D46C8
:100560000021204600F080FB00BF204600F0C9FBC0
:100570000028FAD12946204600F097FB01212046A9
:1005800000F072FB70BD00000064024000B58DB049
:100590000121084601F0AEF90121080201F004FA38
:1005A00020200B9003208DF8300001208DF83300BF
:1005B0000BA9564800F0D6FC0121080201F049FAC7
:1005C00000214FF4807001F044FA012001F055FB46
:1005D000002007900A9009904FF48030089007A8F7
:1005E00001F016FB002001908DF808008DF809003D
:1005F0000390059001208DF8180001A9444801F0EE
:10060000D8FA072301220521414801F058FB0723AE
:10061000012210213E4801F052FB01213C4801F02B
:100620000EFB0DB000BD10B5044607230122214684
:10063000374801F044FB364801F09DFB00BF022122
:10064000334801F0B9FC0028F9D0314801F0CFFB64
:1006500010BD2DE9F04107460C460025002608E0B4
:100660003846FFF7E0FF0544052000F0C9F8701C8C
:10067000C6B2A642F4DBB5FBF4F080B2BDE8F0816F
:1006800010B52DED088B0A211020FFF7E2FF08EED0
:10069000100AB8EE480A10EE100A02F001F941EC17
:1006A0001A0B9FED1C0B53EC102B01F011FF41ECCA
:1006B000190B9FED1A0B53EC102B51EC190B02F098
:1006C00005F841EC1B0B9FED170B53EC102B01F0C1
:1006D00077FD41EC1A0B9FED150B53EC102B01F03D
:1006E000C7FC41EC190B9FED130B53EC102B51EC95
:1006F000190B01F0EDFE41EC190B41EC1A0B01F066
:10070000B7FE04B22046BDEC088B10BD00000240CD
:10071000002001406666666666664A3F52B81E85DE
:10072000EB51E83F7B14AE47E17A643F00000000E4
:1007300000003940000000000000594010B5044698
:100740006FF0040000F096F9E11704EB5171C1F36A
:10075000C701394A11701046007800EB4001C1EB27
:10076000C0104FF6FF7101EAC0003449088010BD87
:100770000146314A12784A434FF0E0235A61002281
:100780009A611A46126942F001021A6100BF4FF0E5
:10079000E022106900F001021AB100F48032002A50
:1007A000F5D04FF0E022126922F001024FF0E02371
:1007B0001A6100229A6170470146204A12884A4312
:1007C0004FF0E0235A6100229A611A46126942F002
:1007D00001021A6100BF4FF0E022106900F001022F
:1007E0001AB100F48032002AF5D04FF0E0221269ED
:1007F00022F001024FF0E0231A6100229A61704753
:1008000070B504464FF4077094FBF0F0C6B24FF495
:10081000077094FBF0F100FB114085B205E04FF446
:100820000770FFF7C9FF701EC6B2002EF7D115B1D1
:100830002846FFF7C1FF70BD180000201A000020F5
:10084000014600BF704700BF4D4A128802F04002C7
:10085000002AF9D0C2B24A4B9A80704710B588B0CE
:1008600004460121022001F045F80121102001F089
:100870009BF807220621434800F0FFFB07221146A0
:10088000404800F0FAFBC020069002208DF81C00C2
:100890008DF81D0000208DF81E0001208DF81F002E
:1008A00006A9384800F05EFB02940020ADF80C0069
:1008B000ADF80E00ADF81000ADF814000C20ADF846
:1008C000120002A92E4800F078FC01212C4800F00B
:1008D000FCFC40212A4800F0E0FD012240F22551B5
:1008E000274800F0A8FD25208DF8040003208DF88E
:1008F00005008DF8060001208DF8070001A800F022
:100900006CF808B010BD10B540F225511C4800F03D
:10091000CDFD10B31A4800F007FDC4B21A48008894
:1009200000F40040C8B91848008800F4804060B165
:100930000A2C03D000201449088020E012480088C7
:1009400040F400401049088019E00D2C06D10E48F3
:10095000008840F480400C49088010E00A48008874
:10096000C0F30D0009490C5407480088401C064993
:10097000088008460088C72801DD0020088010BDD7
:10098000001001400004024020000020340000203C
:100990000948804709480047FEE7FEE7FEE7FEE713
:1009A000FEE7FEE7FEE7FEE7FEE7FEE7044805494F
:1009B000054A064B70470000A9030008890100089A
:1009C0006001002060070020600300206003002019
:1009D00032490143324A1160704770B5002100234B
:1009E0000F22C4781CB32E4C246804F4E064C4F5D0
:1009F000E064C4F30721C1F10404E3B20A4144787E
:100A00009C40E1B28478144021430C07210E254C10
:100A100005786155047804F01F050124AC40057881
:100A20006D11AD0005F1E025C5F8004109E004783D
:100A300004F01F050124AC401B4D0678761145F8E3
:100A4000264070BD194A0A400243154B1B1F1A600D
:100A5000704739B1124A121D12680243104B1B1D18
:100A60001A6006E00E4A121D126882430C4B1B1DD1
:100A70001A607047042808D14FF0E021096941F05D
:100A800004014FF0E022116107E04FF0E021096915
:100A900021F004014FF0E022116170470000FA05D7
:100AA0000CED00E000E400E080E100E080FFFF1FCB
:100AB000016821F001010160002101604160816055
:100AC000C160016121214161DB49884204D13D219E
:100AD000D94A103A91608CE0D7491831884205D143
:100AE0004FF47461D44A103A916082E0D2493031B7
:100AF000884205D14FF47411CF4A103A916078E0E2
:100B0000CD494831884205D14FF07461CA4A103A44
:100B100091606EE0C8496031884204D1C749C64A35
:100B2000103AD16065E0C4497831884204D1C449A3
:100B3000C14A103AD1605CE0BF499031884204D18B
:100B4000C049BD4A103AD16053E0BB49A831884240
:100B500005D14FF03D51B84A103AD16049E0BA4949
:100B6000884204D13D21B84A083A116041E0B649B3
:100B70001831884205D14FF47461B34A083A1160C4
:100B800037E0B1493031884205D14FF47411AE4A93
:100B9000083A11602DE0AC494831884205D14FF048
:100BA0007461A94A083A116023E0A749603188427C
:100BB00004D1A249A44A121F11601AE0A249783157
:100BC000884204D19E49A04A121F116011E09E493B
:100BD0009031884204D19B499B4A121F116008E062
:100BE0009949A831884204D14FF03D51964A121FCD
:100BF0001160704710B500220268944B1A40CC680F
:100C00000B6823434C6923438C692343CC692343FA
:100C10000C6A23434C6A23438C6A23434C6B234363
:100C20008C6B23431A430260426922F00702D1E928
:100C30000B3423431A4342610B6943604B68836062
:100C40008B68C36010BD0021016041608160C1609C
:100C5000016141618161C161016241628162C16280
:100C6000016341638163704721B1026842F0010270
:100C7000026003E0026822F001020260704721B1C5
:100C8000026842F40042026003E0026822F400427B
:100C90000260704721B1026842F02002026003E066
:100CA000026822F0200202607047416070470146EE
:100CB000486880B2704722B1036843F400230360A0
:100CC00003E0036823F4002303600161704721B14E
:100CD000026842F48022026003E0026822F480226B
:100CE000026070470AB1016100E0C16070470146CF
:100CF00000200A6802F400220AB1012000E000206E
:100D00007047014600200A6802F001020AB1012082
:100D100000E000207047014600204A6902F03800D8
:100D2000704730B503460A4600200024464DAB42CA
:100D300002D24149103901E04349103902F000550F
:100D40000DB14C6800E00C68414D2C4004EA0205EE
:100D50000DB1012000E0002030BD02463A4B9A421E
:100D600002D23548103801E03748103801F00053FE
:100D70001BB1374B0B40C36002E0354B0B40836027
:100D8000704710B501F080034BB122B1436943F0C5
:100D90008003436103E0436923F0800343618029BA
:100DA0000BD02AB1036801F01E042343036004E062
:100DB000036801F01E04A343036010BD70B5024632
:100DC000002000240025204EB24202D21A4B103BD4
:100DD00001E01D4B103B1F4E0E4036B11E2606EAA9
:100DE000D124166806EA040502E0566906F080057B
:100DF00001F000560EB15C6800E01C68144E3440EF
:100E000004EA010616B10DB1012000E0002070BD1A
:100E100002460D4B9A4202D20748103801E00A48B8
:100E2000103801F000531BB1094B0B40C36002E0C6
:100E3000074B0B4083607047106002403D0000206C
:100E4000400F002000003D20106402403F801CF055
:100E50007D0F7D0F3C0F3C0F10B50446984884422F
:100E600008D10121084600F0B0FD0021012000F06A
:100E7000ACFD76E09348844208D10121022000F0C5
:100E8000A4FD0021022000F0A0FD6AE08E4884420B
:100E900008D10121042000F098FD0021042000F079
:100EA00094FD5EE08948844208D10121082000F0C9
:100EB0008CFD0021082000F088FD52E08448844227
:100EC00008D10121102000F080FD0021102000F049
:100ED0007CFD46E07F48844208D10121202000F0BB
:100EE00074FD0021202000F070FD3AE07A48844231
:100EF00008D10121402000F068FD0021402000F0D1
:100F000064FD2EE07548844208D10121802000F064
:100F10005CFD0021802000F058FD22E070488442F2
:100F200008D10121801500F050FD0021A01500F02E
:100F30004CFD16E06B48844208D10121401500F0B9
:100F400044FD0021601500F040FD0AE0664884423F
:100F500007D10121001500F038FD0021201500F017
:100F600034FD10BDF0B50A4600210023002400BF67
:100F70003DE0012505FA01F3156805EA03049C42EA
:100F800034D105684F000326BE40B543056015798E
:100F90004E00B5400668354305601579012D02D035
:100FA0001579022D16D185684F000326BE40B54342
:100FB000856055794E00B540866835438560456843
:100FC00001268E40B5434560456896798E40B6B29D
:100FD00035434560C5684F000326BE40B543C56034
:100FE000D5794E00B540C6683543C560491C102907
:100FF000BFD3F0BD4FF6FF71016000210171417157
:101000008171C171704708B54FF480320092009A27
:101010000A430092009AC261C161009AC261C2692A
:101020000092C269009208BD0246002013690B407D
:101030000BB1012000E0002070470146086980B232
:1010400070470246002053690B400BB1012000E0BD
:10105000002070470146486980B27047018370479D
:10106000418370470AB1018300E0418370474161C9
:10107000704742694A4042617047F0B5002300243E
:101080004D07ED0E02FA05F3CE1000F1200555F8DC
:1010900026504E07F70E0F26BE40B543CF1000F185
:1010A000200646F82750CE1000F1200555F82650AE
:1010B00045EA0304CE1000F1200545F82640F0BDB6
:1010C000000002400004024000080240000C024000
:1010D000001002400014024000180240001C0240B0
:1010E00000200240002402400028024010B50446BF
:1010F000FA48844208D10121102000F0AAFC002106
:10110000102000F0A6FC57E0F548844209D10121E7
:10111000480400F08DFC00214FF4003000F088FC02
:101120004AE0F048844209D10121880400F080FCA3
:1011300000214FF4802000F07BFC3DE0EA4884422F
:1011400009D10121C80400F073FC00214FF40020F4
:1011500000F06EFC30E0E548844209D10121080529
:1011600000F066FC00214FF4801000F061FC23E0E9
:10117000DF48844208D10121202000F06AFC0021D0
:10118000202000F066FC17E0DA48844209D10121F2
:10119000880700F04DFC00214FF0804000F048FC33
:1011A0000AE0D548844207D10121400500F040FC07
:1011B0000021600500F03CFC10BD2DE9FF4705460D
:1011C0000E460024A14600BFA046B08900B100BF72
:1011D0002C8A24F44054F08804432C82AC8941F2D8
:1011E0000C608443B0883189084371890843044303
:1011F000AC81AC8A24F44074B0890443AC82684664
:1012000000F0A7FAB548854202D0B948854202D11C
:10121000DDF80C9001E0DDF80890A88900F40040AA
:1012200040B109EBC90000EB091031684900B0FB7F
:10123000F1F707E009EBC90000EB091031688900FC
:10124000B0FBF1F76420B7FBF0F004012009642142
:1012500001FB1078A88900F4004040B1322000EB77
:10126000C800B0FBF1F000F00700044308E03220B2
:1012700000EB08106421B0FBF1F000F00F00044314
:101280002C81BDE8FF874FF4165101600021818059
:10129000C18001810C21418100218181704710B5FD
:1012A00002460020108A20F470600B884C8823438B
:1012B0008C882343CC8823431843108210BD00211F
:1012C000018041808180C180704721B1828942F4D0
:1012D0000052828104E082894DF6FF731A408281B8
:1012E0007047028B02F47F420283028B0A4302831F
:1012F000704721B1828942F40042828103E08289F1
:10130000C2F30E028281704721B1828A42F40062E8
:10131000828204E0828A4FF2FF731A408282704711
:10132000C1F308028280704701468888C0F3080034
:101330007047028A4FF6F0731A400282028A0A430B
:101340000282704721B1828942F00202828104E068
:1013500082894FF6FD731A408281704782894FF26D
:10136000FF731A40828182890A4382817047028A10
:101370004FF6DF731A400282028A0A4302827047E4
:1013800021B1028A42F48042028204E0028A4BF6D2
:10139000FF731A4002827047818941F00101818107
:1013A000704721B1828A42F00802828204E0828A78
:1013B0004FF6F7731A4082827047028BD2B20283D3
:1013C000028B42EA01220283704721B1828A42F0F5
:1013D0002002828204E0828A4FF6DF731A40828202
:1013E000704721B1828A42F01002828204E0828A30
:1013F0004FF6EF731A4082827047828A4FF6FB7372
:101400001A408282828A0A438282704721B1828A8C
:1014100042F00202828204E0828A4FF6FD731A4093
:10142000828270471AB1838A0B43838202E0838AE7
:101430008B4383827047F0B50346002400260025C5
:10144000002040F66A17B94200D100BF1846C1F328
:10145000421401F01F06012707FA06F5012C01D1FD
:101460000C3004E0022C01D1103000E014301AB12D
:1014700007682F43076002E00768AF430760F0BDCD
:1014800002460020B1F5007F00D100BF13880B4059
:101490000BB1012000E00020704701F40072B2F5AA
:1014A000007F00D100BFCA430280704770B502467A
:1014B000002400230025002040F66A16B14200D126
:1014C00000BFC1F3421501F01F03012606FA03F322
:1014D000012D13D19689334017E000000010014020
:1014E0000044004000480040004C004000500040D4
:1014F0000014014000780040007C0040022D02D121
:10150000168A334001E0968A33400C12012606FA0F
:1015100004F41688344013B10CB1012000E000201F
:1015200070BD10B50022002340F66A14A14200D11C
:1015300000BF0A1201249440A3B2DC43048010BD12
:10154000F948006840F00100F74908600020F649BA
:1015500008310860F4480068F4490840F24908601E
:10156000F348091D0860F348EF4984310860F048EA
:101570001038091D0860EC48006820F48020EA4912
:1015800008600020E8490C310860E7498C310860A8
:1015900070470021E44A921C117011460870704790
:1015A00010B501460022002300204A11012A02D171
:1015B000DD4C236808E0022A03D1DB4C7034236839
:1015C00002E0D94C7434236801F01F0201249440D6
:1015D0001C400CB1012000E0002010BD38B50020F7
:1015E00000900024002500BF3120FFF7D9FF0546F9
:1015F0000098401C00900098B0F5A04F01D0002D3D
:10160000F2D03120FFF7CCFF08B1012400E0002424
:10161000204638BD01460020C34A106820F0F8007B
:1016200040EAC10010607047C3490860704700215C
:10163000BD4A703211701170012802D004280AD1FD
:1016400004E00121B84A7032117005E00521B64A64
:101650007032117000E000BF00BF7047B7490860EA
:10166000704770B5049C41EA82150126C6EB53060B
:1016700045EA0645054345EA0465AB4E361D35602F
:1016800070BDAD4908667047820142EA0172A64BFF
:1016900084331A607047A8498866704710B5830183
:1016A00043EA016343EA02739F4C8834236010BD10
:1016B000A14908677047A049C864704702460020E6
:1016C000994B0833186820F0EC6042EA0103184394
:1016D000954B08331860704702460020924B083340
:1016E000186820F0784042EA010318438E4B083313
:1016F00018607047014600208B4A0832106820F0BD
:10170000030008431060704787480830006800F005
:101710000C00704701460020834A0832106820F010
:10172000F000084310607047014600207E4A0832EE
:10173000106820F4E0500843106070470146002014
:10174000794A0832106820F4604040EAC100106015
:101750007047F0B500210022002402250026022354
:10176000714F08373F6807F00C0121B1042905D0FB
:10177000082937D105E0724F076036E0714F0760E6
:1017800033E0694F3F1D3F68C7F38056664F3F1DEA
:101790003F6807F03F036EB16A4FB7FBF3F7DFF81E
:1017A00088C10CF1040CDCF800C0CCF3881C07FBEA
:1017B0000CF40CE0624FB7FBF3F7DFF86CC10CF1EF
:1017C000040CDCF800C0CCF3881C07FB0CF4564F6B
:1017D0003F1D3F68C7F301477F1C7D00B4FBF5F751
:1017E000076002E0564F076000BF00BF4E4F08374A
:1017F0003F6807F0F0010909534F7A5C0768D7404A
:101800004760494F08373F6807F4E051890A4E4F57
:101810007A5C4768D7408760434F08373F6807F4D2
:101820006041490B484F7A5C4768D740C760F0BDBC
:10183000002100F44072B2F5407F0AD13A4A0832E2
:10184000116821F4F811414A02401143364A083226
:101850001160354A70321268C0F30B031A43324BE1
:1018600070331A607047354944390860704733490E
:1018700040390860704736490860704701460020CB
:10188000294A8C32106820F01F004A1E1043264A55
:101890008C321060704701460020234A8C32106859
:1018A00020F4F8504A1E40EA02201F4A8C32106091
:1018B0007047014600201C4A8C32106820F440100A
:1018C00008431060704701460020174A8C321068A8
:1018D00020F4400008431060704701460020124A7F
:1018E0008C32106820F4403008431060704719496A
:1018F0000860704739B10C4A3032126802430A4B13
:1019000030331A6006E0084A303212688243064BD0
:1019100030331A607047F9B1034A34321268024317
:10192000014B34331A601CE000380240FFFFF6EA36
:10193000103000240030002000004742800E474253
:101940000024F40000127A0022000020FFFCFF0FA8
:101950005C014742E01147428F4A126882438E4B36
:101960001A60704739B18C4A121D126802438A4BC3
:101970001B1D1A6006E0884A121D12688243864BBE
:101980001B1D1A60704739B1834A0C32126802433A
:10199000814B0C331A6006E07F4A0C321268824396
:1019A0007D4B0C331A60704739B17B4A1032126894
:1019B0000243794B10331A6006E0774A10321268FE
:1019C0008243754B10331A60704739B1724A243A1A
:1019D00012680243704B243B1A6006E06E4A243AB8
:1019E000126882436C4B243B1A60704739B16A4AD3
:1019F000203A12680243684B203B1A6006E0664AB0
:101A0000203A12688243644B203B1A60704739B118
:101A1000614A1C3A126802435F4B1C3B1A6006E0A5
:101A20005D4A1C3A126882435B4B1C3B1A6070474C
:101A300039B1594A143A12680243574B143B1A60A1
:101A400006E0554A143A12688243534B143B1A601D
:101A5000704739B1504A103A126802434E4B103B5E
:101A60001A6006E04C4A103A126882434A4B103B17
:101A70001A60704739B1484A1C3212680243464B1B
:101A80001C331A6006E0444A1C3212688243424BFF
:101A90001C331A60704739B13F4A20321268024342
:101AA0003D4B20331A6006E03B4A203212688243E5
:101AB000394B20331A60704739B1374A24321268E3
:101AC0000243354B24331A6006E0334A243212684D
:101AD0008243314B24331A60704739B12E4A2C327D
:101AE000126802432C4B2C331A6006E02A4A2C322F
:101AF00012688243284B2C331A60704739B1264A4A
:101B0000303212680243244B30331A6006E0224A16
:101B1000303212688243204B30331A6070470128FC
:101B200008D11D493C31096841F008011A4A3C328C
:101B3000116007E018493C31096821F00801164A94
:101B40003C321160704739B1134A273A1278024388
:101B5000114B273B1A7006E00F4A273A127882434E
:101B60000D4B273B1A7070470B484030006840F01F
:101B70008070094940310860704701460020064ADC
:101B8000283A12680A400AB1012000E0002070479C
:101B900001492639087070473438024010B50121D8
:101BA0000802FFF756FF00214FF48070FFF751FF46
:101BB00010BD30B50246002000235068F84C20408C
:101BC0000D790C6844EA0524204350609068F54C78
:101BD0002040D1E903542C438D682C434D7944EACD
:101BE000450420439060D06A20F470000C7D641E90
:101BF000E4B2234340EA0350D06230BD00210160CB
:101C0000017141718160C1600161012101757047FD
:101C10000021E54A1168E54A1140D0E900231A4342
:101C200083681A43C3681A431143E14AC2F8041394
:101C300070470021016041608160C160704721B13F
:101C4000826842F00102826003E0826822F00102B1
:101C5000826070470A4600214168D64B1940114303
:101C6000416070474162826270470A4600214168C4
:101C700021F01F0111434160704738B1CA4909681A
:101C800041F40001CA4AC2F8041306E0C6490968D3
:101C900021F40001C64AC2F80413704738B1C249A2
:101CA000096841F48001C24AC2F8041306E0BE4943
:101CB000096821F48001BE4AC2F804137047F0B5E8
:101CC00004460D4600200021092D11DDE068A5F134
:101CD0000A0606EB4607072606FA07F18843A5F130
:101CE0000A0606EB460603FA06F10843E0600CE03C
:101CF000206905EB4507072606FA07F1884305EB3F
:101D0000450603FA06F108432061072A0FDA606BE3
:101D1000561E06EB86071F2606FA07F18843561E55
:101D200006EB860605FA06F10843606322E00D2AF9
:101D30000FDA206BD61F06EB86071F2606FA07F17F
:101D40008843D61F06EB860605FA06F10843206392
:101D500010E0E06AA2F10D0606EB86071F2606FAE0
:101D600007F18843A2F10D0606EB860605FA06F197
:101D70000843E062F0BD816841F0804181607047B6
:101D8000014600208A6802F080420AB1012000E08A
:101D90000020704721B1826842F48062826003E0D3
:101DA000826822F480628260704721B1826842F0CA
:101DB0000202826003E0826822F0020282607047C1
:101DC00010B50A4600210023416821F46041531EEA
:101DD00041EA4331416010BD21B1426842F40062E2
:101DE000426003E0426822F40062426070470146AC
:101DF000C86C80B270476C48001D0068704721B104
:101E0000826842F48072826003E0826822F4807209
:101E10008260704721B1826842F40072826003E000
:101E2000826822F400728260704738B15E490968A6
:101E300041F400515E4AC2F8041306E05A490968A9
:101E400021F400515A4AC2F804137047F0B5044611
:101E50001546002000220026092911DDE068A1F1C5
:101E60000A0707EB470C072707FA0CF29043A1F18A
:101E70000A0707EB470703FA07F21043E0600CE09C
:101E8000206901EB410C072707FA0CF2904301EBA4
:101E9000410703FA07F210432061A06BC0F301561B
:101EA000EF1C06F1010CA7EB0C0707EB870C1F27B3
:101EB00007FA0CF29043EF1C06F1010CA7EB0C079C
:101EC00007EB870701FA07F21043A063F0BD10B5D6
:101ED0000A4600210023816B21F44011531E41EA80
:101EE0000351816310BD08B5002300930090009B4F
:101EF0000B440093009B1A6008BD0A4600218168CC
:101F000021F470211143816070470A4600218168E5
:101F100021F44011114381607047816841F48001D0
:101F200081607047014600208A6802F480020AB18D
:101F3000012000E00020704721B1426842F4806235
:101F4000426003E0426822F480624260704721B13F
:101F5000426842F48052426003E0426822F48052B8
:101F60004260704708B5024600200090009201F1DF
:101F70002800009B184400900098006880B208BDBB
:101F800010B50B460021D9B2012404FA01F11AB1AF
:101F900044680C43446002E044688C43446010BDD4
:101FA000FFFEFFFCFDF7FFC004230140E030FCFF13
:101FB00000200140FFFD3FFF0246002013680B4058
:101FC0000BB1012000E000207047CA430260704757
:101FD00070B502460020002300240B12556801262C
:101FE0008E4005EA060415681D4015B10CB10120AC
:101FF00000E0002070BD00220A12D3430360704746
:1020000070477047704770477047754600F02CF86E
:10201000AE4605006946534620F00700854618B0D5
:1020200020B5FEF7C3FCBDE820404FF000064FF09E
:1020300000074FF000084FF0000B21F00701AC46FD
:10204000ACE8C009ACE8C009ACE8C009ACE8C0091C
:102050008D46704710B50446AFF300802046BDE8BA
:102060001040FEF7DAB8000000487047FC0000207E
:1020700010B591EA030F48BF83F0004300F12E83AF
:10208000841A71EB030C05D2121943EB0C03001BED
:1020900061EB0C01DFF824E14FEA1154A4EB135C6F
:1020A0001EEA430F18BF9EEA445F73D023EA0E0373
:1020B000DCF1200E21EA045143F4801332D322FADA
:1020C0000CFE10EB0E0023FA0CFE41EB0E01CCF1DE
:1020D000200E03FA0EFE10EB0E0051F10001B1F5D7
:1020E000801FCCF1200E32D201EB045112FA0EF215
:1020F000BDE8104058BF7047401C38BF5FEA42023D
:1021000018BF7047002814BF20F0010041F1000102
:102110004FEA410313F5001F38BF7047A1F1C041DA
:1021200000F0CEBA012A43EB0302ACF1200CDCF143
:102130001F0E32BF4FF0000E23FA0CF310EB03001A
:1021400041EB0451B4EB115FD0D0A1EB045101F588
:10215000801149085FEA300001EB04510ED350F1C1
:10216000000038BF12FA0EFE08D1BDE81040C9E7E2
:10217000401C38BF5FEA4202CAD1C3E7BDE8104045
:102180004FEA410313F5001F38BF7047A1F1C0416A
:1021900000F096BA9EEA445F08D011EA5E0FBDE8EF
:1021A000104004BF01F0004100207047BDE810401E
:1021B00070B500F037FA00BF64FBBE3E0000E0FFE0
:1021C0002DE9C04130B4DFF8A0C23CEA111418BFB9
:1021D0003CEA131400F0EC8081EA03051CEA1114B8
:1021E00044EAD57418BF1CEA131500F0C780A4EBAD
:1021F00005044FF0004545EAC12145EAC32341EA01
:10220000505143EA525304F17F74994204F500346B
:102210004FEAC0204FEAC22208BF904200F09C80E3
:102220004FEA13650FF24016765D4FEA134506FB41
:1022300005F7C7F1807706FB07F74FEAD737A7FB0B
:1022400003687642C8F58038A7FB06CE38BFA8F1F0
:10225000010807FB08E64FF0000EA6FB028CE6FB28
:1022600003CEDCF1000CCEF1004E38BFAEF1010E12
:10227000A6FB0C584FF000074FF00005E6FB0E8759
:10228000A1FB08C6A0FB07CE16EB0E0645F1000524
:10229000E1FB076515F1E04E7EBFA4F580345FEAEF
:1022A00046066D4116F1800745F100054FEA1727F4
:1022B0004FEA066647EA0567A6F1DE46B6F1805F9B
:1022C0004FEA15251FD9384624F0010C05EBC471DF
:1022D000BCF1FE6F01EB0C1102D8F0BCBDE800812F
:1022E00024425CBF01F5801E9EEAC47F02D4F0BC8C
:1022F000BDE80081244238D4F0BCA1F1C041BDE862
:10230000004100F0DDB94FEAD22242EA43524FEADF
:10231000D323A7FB02864FEAD02040EA415007FBB7
:1023200003661EEA0E0F4FEAD12105FB026658BF75
:10233000A6EB0056B6EB00564FEA520E4EEAC37EAD
:1023400018EB0E0E56EB530EBDD518EB02085E418E
:102350007F1C55F10005B6E74FF480154FF00007DC
:102360004FF000064FF00008ADE7F0BC4FF0000062
:1023700001F1C04101F00041BDE8008111EA0C1FEC
:102380000CEA131500D00CE013EA0C1F00F02580B6
:102390004FF00000F0BC81EA030101F00041BDE80C
:1023A0000081F0BCBDE8004181EA030100F088B97A
:1023B000F0BCBDE8004170B500F034F9097EFC3E88
:1023C00000F007B881EA03014FF0000001F000417E
:1023D000704781EA030100F073B9F0BCBDE8004129
:1023E0004FF0000021497047FFFDFBF9F7F5F4F2CB
:1023F000F0EEEDEBE9E8E6E4E3E1E0DEDDDBDAD8A0
:10240000D7D5D4D3D1D0CFCDCCCBCAC8C7C6C5C4FD
:10241000C2C1C0BFBEBDBCBBBAB9B8B7B6B5B4B314
:10242000B2B1B0AFAEADACABAAA9A8A8A7A6A5A4FF
:10243000A3A3A2A1A09F9F9E9D9C9C9B9A999998C3
:102440009797969595949393929191908F8F8E8E66
:102450008D8C8C8B8B8A89898888878786858584F3
:1024600084838382828181800000FF070000F87FDF
:102470004FEA41034FEA5353A3F58063D3F11E03A0
:10248000C8BFD3F1210C0CDD4FF0004242EAC1225B
:1024900042EA505232FA03FC8CEAE17CACEBE17088
:1024A0007047102BC4BF0020704703F5787CBCF147
:1024B000FF3F04D06FF0004282EA2100704770B500
:1024C00000F0B0F84992248000207047F2E7000045
:1024D000DFF848C170B51CEA111E1EBF1CEA1315B7
:1024E0009EEA0C0F95EA0C0F00F06F8081EA03045E
:1024F00023EA4C134EEAD47E21EA4C1141F48011B8
:1025000043F48013AE44A1FB024CA0FB0365AEF183
:102510007F7E361955EB0C05A1FB034C4CF10003F3
:10252000A0FB021C16EB0C06654153F100030942A7
:1025300018BF46F0010613F4007F0BD14FEA0331B8
:102540004FEA0530340341EA155140EA16506FF066
:1025500003020AE04FEAC3214FEAC520F40241EA30
:10256000555140EA56506FF0020202EB2E4201EB49
:10257000025585EACE710AD05FEA440C18BF24F0F8
:10258000004450F1000041F1000120EAD47040F213
:10259000FE7C624500D270BDA84214BF4FF080445B
:1025A0004FF04044002E08BF0024BEF1806FA8BF4A
:1025B000A1F1C041BDE8704080F282804FF0000080
:1025C00001F1C04101F0004170479EEA0C0F0CEA96
:1025D000131518BF95EA0C0F06D04FF0000081EAE2
:1025E000030E0EF0004170BD00F01CF88900013EA2
:1025F00000F007B800F009B84FEA430C5FEA5C5CF2
:1026000008D081EA030100F05BB84FEA410C5FEAB1
:102610005C5CF6D14FF00000014970470000FF07F5
:102620000000F87F0EF1020E2EF0030E5EF8046B30
:10263000364205D4012A43EB030515F5001F12D8D5
:10264000012841EB010C1CF5001F0CD80ED14FEAFC
:10265000D17C15F5001F0CEB4C0C0CF1020C08BFE3
:102660004CEBD37C04E04FF0080C01E04FEAD37C44
:102670000CEB4C0526FA05F606F00706B6F1040C3D
:1026800006D20EEB860CBDE870404CF0010C6047A2
:10269000DFE80CF0090B02024FF000414FF00000A0
:1026A000A1F5002170BD19461046012851EB010427
:1026B00018BFD4F5001484BF002001F0004170BDA4
:1026C0000808A0F500114FEA3101704710B591EAF2
:1026D000030F48BF83F000433FF5D2AC841A71EB7F
:1026E000030C07D212198CF0004C43EB0C03001BB7
:1026F00061EB0C01DFF8A4E14FEA1154A4EB135C89
:102700001EEA430F18BF9EEA445F00F0B08023EA40
:102710006E03524221EA0451C3EB6E0338BF5B1EC5
:10272000DCF1200E25D322FA0CFE10EB0E0043FA4A
:102730000CFE41EB0E01CCF1200E03FA0EFE10EB65
:102740000E0051F10001CCF1200E29D412FA0EF244
:1027500001EB0451BDE8104058BF7047401C1CBF3E
:10276000B2F1004F704700280CBF491C20F0010057
:10277000704712EB020E43EB030218BF4FF0010E3D
:102780004EEA4202ACF1200CDCF11E0E54D943FAA1
:102790000CFE10EB0E0051F1FF31CCF11E0ED5D521
:1027A0000EF1010E12FA0EFE404141EB010101EB68
:1027B000445C5FEA5C5C10D910EBDE7001EB045105
:1027C00038BFBEF1004FBDE8104018BF7047002869
:1027D0000CBF491C20F00100704730D24FEAD42CC6
:1027E00011F5001124F400641BD0B1FA81F20B3A08
:1027F000A41AA41ED2F12003914030FA03F3194326
:10280000904001EBCC71002C01EB0451BDE810406D
:10281000A8BF704701F1C0414FF0000001F0004136
:102820007047B0FA80F310FA03F100D110BDE41A3A
:10283000173C4805C90AE4E701EB045110BD4910F3
:1028400001EB0451BDE810404FEA300002E04FF0C8
:10285000000170474A0008BF0042F8D0B2F5001FDF
:1028600028BF704701F000414FF0000070479EEA1A
:10287000445F07D011EA5E0FBDE8104004BF00219D
:1028800000207047BDE8104070B5FFF7CBFE00BFD9
:1028900040DFF63E83F00041104670470000E0FF45
:1028A00043004FEAD30C4FEA3C0C43401FBF4007A4
:1028B0000CF1605113F0FE4F70471CF0006F03D114
:1028C00000200CF0004170470CF0004343EA5070C8
:1028D00010B540EACC0000F00EF800BF00000092F6
:1028E0004FEA0001FFF7ECBE4FF000414FF000004F
:1028F000A1F5002170470EF1020E2EF0030E5EF8D6
:10290000044B244204D44FEA4102B2F17F4F11D864
:102910004FEA4003B3F17F4F0CD80ED14FEAD07C81
:10292000B2F17F4F0CEB4C0C0CF1020C08BF4CEBDE
:10293000D17C04E04FF0080C01E04FEAD17C0CEBB5
:102940004C0324FA03F404F00704B4F1040C06D297
:102950000EEB840CBDE810404CF0010C6047DFE842
:102960000CF0070802024FF00040A0F5800010BDF7
:102970000846420018BFD2F1807288BF00F00040C4
:1029800010BD4FF04070E1EE100A7047AC2900080E
:102990000000002034000000C4010008E029000805
:1029A000340000202C070000E001000800000000B7
:1029B000007A030A00000000000000000102030486
:1029C00006070809000000000000000000000000E9
:1029D00000000102030401020304060708090000C5
:040000050800018965
:00000001FF
