:020000040800F2
:1000000078DA002035150008E50F0008E70F000832
:10001000EB0F0008EF0F0008F30F000800000000CE
:10002000000000000000000000000000F70F0008C2
:10003000F90F000800000000FB0F0008FD0F00088A
:100040004F1500084F1500084F1500084F15000800
:100050004F1500084F1500084F1500084F150008F0
:100060004F1500084F1500084F1500084F150008E0
:100070004F1500084F1500084F1500084F150008D0
:100080004F1500084F1500084F1500084F150008C0
:100090004F1500084F1500084F1500084F150008B0
:1000A0004F1500084F1500084F1500084F150008A0
:1000B0004F150008091500084F1500084F150008D6
:1000C0004F1500084F1500084F1500084F15000880
:1000D0004F1500088B1400084F1500084F15000835
:1000E0004F1500084F1500084F1500084F15000860
:1000F0004F1500084F1500084F1500084F15000850
:100100004F1500084F1500084F1500084F1500083F
:100110004F1500084F1500084F1500084F1500082F
:10012000890C00084F1500084F1500084F150008EE
:100130004F1500084F1500084F1500084F1500080F
:100140004F1500084F1500084F1500084F150008FF
:100150004F1500084F1500084F1500084F150008EF
:100160004F1500084F1500084F1500084F150008DF
:100170004F1500084F1500084F1500084F150008CF
:100180004F1500084F15000800F002F800F03CF889
:100190000AA090E8000C82448344AAF10107DA45E2
:1001A00001D100F031F8AFF2090EBAE80F0013F0F8
:1001B000010F18BFFB1A43F0010318473CE600008B
:1001C0005CE60000103A24BF78C878C1FAD852071C
:1001D00024BF30C830C144BF04680C6070470000C1
:1001E0000023002400250026103A28BF78C1FBD840
:1001F000520728BF30C148BF0B6070471FB505F0DC
:1002000030FE1FBD10B510BD04F052F81146FFF7C7
:10021000F5FF00F0C8F804F070F803B4FFF7F2FF40
:1002200003BC01F0CFF8000000B58BB006200790AA
:10023000002008904FF48040099000200A9007A801
:1002400002F0B8FA002001908DF808008DF809003E
:100250004FF0805003904FF0C06004900020059054
:1002600001208DF8180001A9FE4802F074FA01A9D6
:10027000FD4802F070FA01231A460A21F94802F0FB
:10028000F0FA01231A460B21F74802F0EAFA01209E
:1002900002F09DFB0121F34802F0A3FA0121F2488C
:1002A00002F09FFA0BB000BD00B58FB000200090A7
:1002B000EE480290EE480190002003904FF48040F9
:1002C0000490002005904FF4806006904000079055
:1002D000800008904011099040020A9004200B9081
:1002E00001200C9000200D900E906946E14801F02D
:1002F00053FA01221821DF4801F015FB0121DD48E6
:1003000001F084FA0FB000BD0EB5684602F02BFD77
:1003100040F6AD2001900020ADF80000ADF80800D7
:10032000ADF8020069464FF0804002F0E8FC202161
:10033000480603F03DFA0121880702F069FD0EBD71
:1003400008B538208DF8000000208DF801008DF8E8
:10035000020001208DF80300684601F010F908BD85
:100360001CB5032000908DF8040000208DF80700D4
:100370006946C14801F0C8FB1CBD10B501218805C4
:1003800002F08AF80121042002F086F80121080217
:1003900002F0DCF80121480202F0D8F801210846F9
:1003A00002F0C3F810BD2DED108B88B000BF00BF68
:1003B000B7EE080A10EE106A0020B0490860A820C5
:1003C00000F07EFF4FF4E12001F00AF84FF4EA70EC
:1003D000AB4BAC4A51060090A648A83000F018FF7D
:1003E000FFF7CBFFFFF7BCFFFFF7AAFFFFF78CFF7C
:1003F000FFF75AFFFFF718FF9A4802F08EFA012321
:100400000022990202A803F0E7FD00209E4908603F
:1004100053214FF6FF7001F04BF800219B4802F08A
:10042000B7FC00209A490870FEE300BF96480068B8
:100430000028FBD0954802F0AFFC9549097800EB05
:10044000014000EE100AB8EE400A924880ED000A22
:100450009FED910AF0EE408A9FED8F0AB0EE40FAD0
:10046000002496E1ECBB304605F08AFC41EC1B0B06
:100470008A4AA01C02EB800090ED000A601C02EB8F
:100480008000D0ED000A30EE600A10EE101A084627
:1004900005F076FC41EC1D0BB0EE4D0AF0EE6D0A56
:1004A00003F04CFFB0EE40CAF0EE60CA53EC1B2BD9
:1004B00051EC1C0B05F06EF941EC190B774A601CEE
:1004C00002EB800090ED000A104600EB8400D0EDB6
:1004D000000A30EE600A10EE101A084605F050FCD3
:1004E00000E01EE041EC1B0BB0EE4B0AF0EE6B0A95
:1004F00003F024FFB0EE40AAF0EE60AA53EC192BF3
:1005000051EC1A0B05F044FA0BD26449601C01EB64
:10051000800090ED000A084600EB840080ED000AA0
:1005200035E140F2FF3084425BD1304605F028FCD3
:1005300041EC1B0B601E594A02EB800090ED000A53
:10054000A01E02EB8000D0ED000A30EE600A10EE33
:10055000101A084605F014FC41EC1D0BB0EE4D0AD4
:10056000F0EE6D0A03F0EAFEB0EE40CAF0EE60CAAB
:1005700053EC1B2B51EC1C0B05F00CF941EC190B47
:10058000464800EB840090ED000A601E434A02EBEF
:100590008000D0ED000A30EE600A10EE101A084616
:1005A00005F0EEFB41EC1B0BB0EE4B0AF0EE6B0AD4
:1005B00003F0C4FEB0EE40AAF0EE60AA53EC192B93
:1005C00051EC1A0B05F0E4F90BD2601E334901EB34
:1005D000800090ED000A084600EB840080ED000AE0
:1005E000D5E0304605F0CCFB41EC1B0B601E2B4ADE
:1005F00002EB800090ED000AA01E02EB8000D0ED1F
:10060000000A30EE600A10EE101A084605F0B8FB3A
:1006100041EC1D0BB0EE4D0AF0EE6D0A03F08EFEBC
:10062000B0EE40CAF0EE60CA53EC1B2B51EC1C0B31
:1006300005F0B0F841EC190B184800EB840090ED80
:10064000000A601E154A02EB8000D0ED000A30EE71
:10065000600A10EE101A084605F092FB41EC1B0BE5
:100660001EE000000020014000210140185400203D
:1006700008230140106402400008024010000020DE
:100680004400002004100140140000200004004039
:1006900018000020000000200000000018120020B8
:1006A000B0EE4B0AF0EE6B0A03F048FEB0EE40AA43
:1006B000F0EE60AA53EC192B51EC1A0B05F068F917
:1006C00065D2304605F05CFB41EC1B0BFE4AA01CDA
:1006D00002EB800090ED000A601C02EB8000D0ED80
:1006E000000A30EE600A10EE101A084605F048FBCA
:1006F00041EC1D0BB0EE4D0AF0EE6D0A03F01EFE4C
:10070000B0EE40CAF0EE60CA53EC1B2B51EC1C0B50
:1007100005F040F841EC190BEB4A601C02EB80003D
:1007200090ED000A104600EB8400D0ED000A30EE98
:10073000600A10EE101A084605F022FB41EC1B0B74
:10074000B0EE4B0AF0EE6B0A03F0F8FDB0EE40AAF3
:10075000F0EE60AA53EC192B51EC1A0B05F018F9C6
:1007600015D2601ED84901EB800090ED000A601C94
:1007700001EB8000D0ED000A30EE200AF0EE000A16
:1007800080EE201A084600EB840080ED001A601C01
:1007900084B2B4F5806FFFF665AE002413E0CB4859
:1007A00000EB840090ED000A30EE280AF0EE408A5B
:1007B000C54800EB840090ED000A30EE0F0AB0EE61
:1007C00040FA601C84B2B4F5806FE8DB9FEDC00A8C
:1007D000C8EE800AF0EE608A9FEDBD0ACFEE000AF7
:1007E000B0EE60FA00242BE0B84800EB840090EDF6
:1007F000000A30EE680AB54800EB840080ED000A7C
:10080000B14800EB840090ED000A30EE4F0AAE488C
:1008100000EB840080ED000AAB4800EB840090ED13
:10082000000AAC4901EBC40080ED000A1FED660A26
:100830006000401C01EB800080ED000A601C84B267
:10084000B4F5806FD0DB002494E10025D8E005EBFF
:1008500084109D4A02EB800090ED000A05EB8410A5
:100860009A4A02EB8000D0ED000A20EE200A10EE3A
:10087000101A084605F084FA41EC1A0BB0EE4A0A49
:10088000F0EE6A0A03F05AFDB0EE409AF0EE609A7C
:1008900051EC190B04F0E4FC08EE100AF5BB8E488D
:1008A00000EB840080ED008A05EB8410874A02EBA0
:1008B000800090ED000A10EE101A084605F060FA6C
:1008C00041EC1A0BB0EE4A0AF0EE6A0A03F036FD6C
:1008D000B0EE409AF0EE609A51EC190B04F0C0FCB7
:1008E0007E4941F8240005EB8410774A02EB800032
:1008F00090ED000A10EE101A084605F041FA41EC9E
:100900001A0BB0EE4A0AF0EE6A0A03F017FDB0EED9
:10091000409AF0EE609A51EC190B00E005E004F00B
:100920009FFC6F4941F8240068E06B4800EB8400AD
:1009300090ED000AB4EEC80AF1EE10FA04D266484F
:1009400000EB840080ED008A05EB84105F4A02EB27
:10095000800090ED000A10EE101A084605F010FA1B
:1009600041EC1A0BB0EE4A0AF0EE6A0A03F0E6FC1C
:10097000B0EE409AF0EE609A51EC190B04F070FC66
:1009800008EE100A554800EB840090ED000AB4EE22
:10099000C80AF1EE10FA04D2504800EB840080ED52
:1009A000008A05EB8410484A02EB800090ED000AB3
:1009B00010EE101A084605F0E3F941EC1A0BB0EE00
:1009C0004A0AF0EE6A0A03F0B9FCB0EE409AF0EE83
:1009D000609A51EC190B04F043FC08EE100A4048F1
:1009E00000EB840090ED000AB4EEC80AF1EE10FAB4
:1009F00004D23B4800EB840080ED008A681C85B27D
:100A0000402DFFF624AF354800EB840090ED000A3E
:100A1000344800EB840080ED000A314800EB84008C
:100A200090ED000A04F110002E4901EB800080EDEA
:100A3000000A9FED2D0B04F0B3FAB0EE40AAF0EEE1
:100A400060AA254800EB840090ED000A10EE101A11
:100A5000084605F095F941EC1B0B53EC1A2B04F0FA
:100A6000EDFC41EC190B04F0FBFB1B4941F82400A1
:100A7000084600EB840090ED000A04F120001949BB
:100A800001EB800080ED000A134800EB840090ED3C
:100A9000000A10EE101A084605F072F941EC1C0B22
:100AA0009FED111BB0EE4C0AF0EE6C0A03F050FC07
:100AB000B0EE40AAF0EE60AA9FED0B0B04F070FAC6
:100AC000B0EE40DA14E000001812002018020020F6
:100AD00000008044183400201822002098220020B2
:100AE000D822002044000020000000000000004048
:100AF000F0EE60DAFE4800EB840090ED000AFD485D
:100B000000EB8400D0ED000A20EE200A10EE101A4F
:100B1000084605F035F941EC1E0B53EC1D2B04F093
:100B20008DFC41EC1C0B1FED101BB0EE4C0AF0EEDF
:100B30006C0A03F00DFCB0EE40BAF0EE60BA53EC74
:100B40001A2B51EC1B0B05F031F8CDE900019DED9E
:100B5000000B04F025FAB0EE409AF0EE609A51ECEA
:100B6000190B04F07DFB04F13001E34A42F8210047
:100B7000601C84B2102CFFF668AEE04802F00CF95D
:100B8000DF49097800EB014000EE100AB8EE400A98
:100B9000DC4880ED000ADC4902A803F0FFF94FF4BD
:100BA0008062DA49D84802F04FFE00241BE0611C45
:100BB0008802C11700EB91618911D44A02EB8101CF
:100BC000D1ED000A1FED3E1A80EE810AF0EE000A18
:100BD00080EE201A04F14001C74A02EB810181ED49
:100BE000001A601C84B2052CE1DB452408E09FED6F
:100BF000C80AC14800EB840080ED000A601C84B282
:100C0000752CF4DB0020C3490860BC4802F0C4F82E
:100C1000BB49097800EB014000EE100AB8EE400A2B
:100C2000B84880ED000A00E02CE001228021BA489B
:100C300001F0CAF9B9480068B0B14FF48A71B848F8
:100C400000F025FB0BE04FF02051B54800F03BFED3
:100C500028B14FF02051B24800F051FE00E0F2E719
:100C600000BF0020AD490860A44802F095F8A449EF
:100C7000097800EB014000EE100AB8EE400AA148E6
:100C800080ED000AFFF7D1BB70B52DED0E8B9FED07
:100C9000A50AB0EE408A9FEDA40AF0EE408A1FED4F
:100CA0006E0B04F07DF9B0EE40DAF0EE60DA9FED05
:100CB0009F0B53EC102B51EC1D0B04F06BFD41EC22
:100CC0001C0B9FED9C0B53EC102B04F063FD41ECCF
:100CD0001B0B9FED9A0B53EC102B04F0AFFB41EC78
:100CE0001A0B04F0BDFA09EE100A9FED960AF0EE19
:100CF000409A9FED950AB0EE40EA9FED940AF0EE1F
:100D000040EA93498648A83800F02AFE00287DD0A2
:100D10008F498348A83800F04DFE002481E000256B
:100D20004EE0FDB9690001EB04108A4931F810006A
:100D300000EE100AB8EE400A874800EB840080ED10
:100D4000000A690001EB0410401C824931F81000D0
:100D500000EE100AB8EE400A804800EB840080EDF7
:100D6000000A2CE0690001EB04107A4931F8100008
:100D700000EE100AB8EE400A774800EB8400D0ED90
:100D8000000A30EE200A744800EB840080ED000A6F
:100D9000690001EB0410401C6E4931F8100000EEB0
:100DA000100AB8EE400A6D4800EB8400D0ED000A4E
:100DB00030EE200A694800EB840080ED000A6D1CCB
:100DC000082DAEDB644800EB840090ED000AB2EE23
:100DD000001AC0EE010AB0EE680A10EE880A30EE82
:100DE0004E0A20EE090A5C4800EB840080ED000A00
:100DF0005A4800EB840090ED000AB2EE001AC0EEF3
:100E0000010AB0EE680A10EE880A00E00DE030EE4C
:100E10006E0A20EE290A514800EB840080ED000A9A
:100E2000641CB4F5007FFFF67AAF4D493C48A83802
:100E300000F096FD002859D049493948A83800F0FB
:100E4000B9FD4FF40074BDE000254EE0FDB9690026
:100E500001EB04103F4931F8100000EE100AB8EE23
:100E6000400A3D4800EB840080ED000A690001EB78
:100E70000410401C374931F8100000EE100AB8EE9B
:100E8000400A364800EB840080ED000A2CE069003F
:100E900001EB04102F4931F8100000EE100AB8EEF3
:100EA000400A2D4800EB8400D0ED000A30EE200A05
:100EB000294800EB840080ED000A690001EB041072
:100EC000401C244931F8100000EE100AB8EE400A28
:100ED000224800EB8400D0ED000A30EE200A1F48C3
:100EE00000EB840080ED000A6D1C3BE071E0000027
:100EF00098220020D8220020440000200004004056
:100F000018000020000000201834002018240020C1
:100F1000000000001400002000100140100000201C
:100F2000B86402403333533AD70ECC3F0000000080
:100F300000805B4098229F75838975400000000007
:100F400000206C40E4385E42CBA1853E57EC2F3E3A
:100F50001040001018540020180200201812002021
:100F600020800010082DFFF671AF1B4800EB8400B5
:100F700090ED000AB2EE001AC0EE010AB0EE680A67
:100F800010EE880A30EE4E0A20EE090A124800EBF5
:100F9000840080ED000A114800EB840090ED000A07
:100FA000B2EE001AC0EE010AB0EE680A10EE880A2E
:100FB00030EE6E0A20EE290A084800EB840080ED2E
:100FC000000A641CB4F5806FFFF63EAF01200449AF
:100FD0000860BDEC0E8B70BD1802002018120020B6
:100FE00014000020704700BFFEE700BFFEE700BF0F
:100FF000FEE700BFFEE7704770477047704700008C
:101000000CB50020019000907648006840F48030D4
:101010007449086000BF7348006800F40030009015
:101020000198401C0190009818B90198B0F5A04FA4
:10103000F1D16C48006800F4003010B1012000903C
:1010400001E0002000900098012846D1654840301A
:10105000006840F080506349403108606248006891
:1010600040F44040604908605E48083000685D49CF
:10107000083108600846006840F4004008600846EF
:10108000006840F4A05008605848091F0860081F15
:10109000006840F08070091F086000BF5148006878
:1010A00000F000700028F9D040F205705049086047
:1010B0004C480830006820F003004A4908310860B5
:1010C0000846006840F00200086000BF454808304C
:1010D000006800F00C000828F8D10CBD10B5454898
:1010E000006840F47000434908603E48006840F0E2
:1010F00001003C49086000203A490831086039483D
:1011000000683D490840374908603C48091D0860AF
:10111000081F006820F48020091F08600020314962
:101120000C310860FFF76CFF4FF0006031498039E7
:10113000086010BD70B500200022022300240221A7
:10114000284D08352D6805F00C0020B1042806D084
:10115000082834D107E02A4D2A4E356033E02A4D65
:10116000284E35602FE01F4D2D1D2D68C5F380548E
:101170001C4D2D1D2D6805F03F0154B1224DB5FBCE
:10118000F1F5184E361D3668C6F3881605FB06F2D3
:1011900009E01B4DB5FBF1F5124E361D3668C6F35E
:1011A000881605FB06F20F4D2D1D2D68C5F3014570
:1011B0006D1C6B00B2FBF3F5124E356003E0104D71
:1011C000104E356000BF00BF064D08352D68C5F3D1
:1011D00003150E4E705D0B4D2D68C540094E3560F0
:1011E00070BD000000380240007000400854400705
:1011F000003C024088ED00E0FFFFF6FE10300024C6
:101200000024F4001C00002000127A0020000020BE
:101210002DE9F04190B004460D4617461E46DDF814
:1012200058802648844204D90121880501F034F908
:1012300003E00121480501F02FF9204600F00AFAE9
:1012400000BF204600F02FFB0028FAD1019502973D
:10125000039640200490CDF81480002006904FF4AF
:10126000806007900020089009900A904FF4803029
:101270000B9000200C9003200D9000200E900F90FA
:1012800001A9204600F088FA10B0BDE8F08170B5E1
:1012900004460D460021204600F0B8FA00BF204663
:1012A00000F001FB0028FAD12946204600F0CFFAD1
:1012B0000121204600F0AAFA70BD0000006402403F
:1012C00010B504466FF0040000F0A6F9E11704EB36
:1012D0005171C1F3C701394A11701046007800EB13
:1012E0004001C1EBC0104FF6FF7101EAC000344964
:1012F000088010BD0146314A12784A434FF0E0237E
:101300005A6100229A611A46126942F001021A617A
:1013100000BF4FF0E022106900F001021AB100F4A2
:101320008032002AF5D04FF0E022126922F001024B
:101330004FF0E0231A6100229A6170470146204A6B
:1013400012884A434FF0E0235A6100229A611A46FC
:10135000126942F001021A6100BF4FF0E0221069E9
:1013600000F001021AB100F48032002AF5D04FF0EB
:10137000E022126922F001024FF0E0231A610022FC
:101380009A61704770B504464FF4077094FBF0F013
:10139000C6B24FF4077094FBF0F100FB114085B228
:1013A00005E04FF40770FFF7C9FF701EC6B2002EAC
:1013B000F7D115B12846FFF7C1FF70BD30000020FE
:1013C00032000020014600BF704700BF354A128836
:1013D00002F04002002AF9D0C2B2324B9A80704724
:1013E00010B588B004460121022001F055F8012112
:1013F000102001F0ABF8072206212B4800F00FFC6B
:1014000007221146284800F00AFCC020069002205E
:101410008DF81C008DF81D0000208DF81E000120A5
:101420008DF81F0006A9204800F06EFB02940020F2
:10143000ADF80C00ADF80E00ADF81000ADF81400DA
:101440000C20ADF8120002A9164800F088FC01211A
:10145000144800F00CFD4021124800F0F0FD01227C
:1014600040F225510F4800F0B8FD25208DF804000A
:1014700003208DF805008DF8060001208DF8070087
:1014800001A800F07CF808B010BD10B540F225515D
:10149000044800F0DDFD20B1024800F017FD0349CB
:1014A000086010BD00100140000402401000002040
:1014B0007FB505460C460121022001F036F8029561
:1014C000ADF804400020ADF80600ADF80C0001A90D
:1014D000164801F014FC01221146144802F0B0F83D
:1014E0000121124801F094FC1D208DF8000001201C
:1014F0008DF8010003208DF8020001208DF8030013
:10150000684600F03CF87FBD10B50121074802F0A5
:10151000AEF8012804D106480078401C0449087040
:101520000121024802F0B4F810BD000000040040A0
:10153000180000200948804709480047FEE7FEE7F9
:10154000FEE7FEE7FEE7FEE7FEE7FEE7FEE7FEE773
:1015500004480549054A064B70470000DD100008A5
:101560008901000878D4002078DA002078D600209D
:1015700078D6002032490143324A1160704770B575
:10158000002100230F22C4781CB32E4C246804F4DD
:10159000E064C4F5E064C4F30721C1F10404E3B2DC
:1015A0000A4144789C40E1B28478144021430C07FE
:1015B000210E254C05786155047804F01F0501249F
:1015C000AC4005786D11AD0005F1E025C5F800418E
:1015D00009E0047804F01F050124AC401B4D067897
:1015E000761145F8264070BD194A0A400243154B52
:1015F0001B1F1A60704739B1124A121D126802434C
:10160000104B1B1D1A6006E00E4A121D1268824321
:101610000C4B1B1D1A607047042808D14FF0E021C5
:10162000096941F004014FF0E022116107E04FF039
:10163000E021096921F004014FF0E02211617047B7
:101640000000FA050CED00E000E400E080E100E0BD
:1016500080FFFF1F016821F001010160002101608E
:1016600041608160C160016121214161DB498842A3
:1016700004D13D21D94A103A91608CE0D749183104
:10168000884205D14FF47461D44A103A916082E0E7
:10169000D2493031884205D14FF47411CF4A103A03
:1016A000916078E0CD494831884205D14FF07461AE
:1016B000CA4A103A91606EE0C8496031884204D14C
:1016C000C749C64A103AD16065E0C44978318842BA
:1016D00004D1C449C14A103AD1605CE0BF4990319D
:1016E000884204D1C049BD4A103AD16053E0BB4999
:1016F000A831884205D14FF03D51B84A103AD16027
:1017000049E0BA49884204D13D21B84A083A1160FB
:1017100041E0B6491831884205D14FF47461B34AAB
:10172000083A116037E0B1493031884205D14FF4B1
:101730007411AE4A083A11602DE0AC494831884234
:1017400005D14FF07461A94A083A116023E0A74916
:101750006031884204D1A249A44A121F11601AE0E4
:10176000A2497831884204D19E49A04A121F1160D3
:1017700011E09E499031884204D19B499B4A121F37
:10178000116008E09949A831884204D14FF03D51D9
:10179000964A121F1160704710B500220268944BE0
:1017A0001A40CC680B6823434C6923438C6923435C
:1017B000CC6923430C6A23434C6A23438C6A23433A
:1017C0004C6B23438C6B23431A430260426922F023
:1017D0000702D1E90B3423431A4342610B6943608A
:1017E0004B6883608B68C36010BD0021016041605D
:1017F0008160C160016141618161C16101624162D9
:101800008162C162016341638163704721B10268F3
:1018100042F00102026003E0026822F0010202606D
:10182000704721B1026842F40042026003E002689E
:1018300022F400420260704721B1026842F02002A7
:10184000026003E0026822F02002026070474160FB
:1018500070470146486880B2704722B1036843F47C
:101860000023036003E0036823F4002303600161A5
:10187000704721B1026842F48022026003E00268EE
:1018800022F48022026070470AB1016100E0C16069
:101890007047014600200A6802F400220AB10120C4
:1018A00000E000207047014600200A6802F00102B3
:1018B0000AB1012000E000207047014600204A697B
:1018C00002F03800704730B503460A460020002475
:1018D000464DAB4202D24149103901E0434910392B
:1018E00002F000550DB14C6800E00C68414D2C40F1
:1018F00004EA02050DB1012000E0002030BD0246DF
:101900003A4B9A4202D23548103801E03748103835
:1019100001F000531BB1374B0B40C36002E0354B65
:101920000B408360704710B501F080034BB122B1CA
:10193000436943F08003436103E0436923F080037C
:10194000436180290BD02AB1036801F01E042343B0
:10195000036004E0036801F01E04A343036010BDAC
:1019600070B50246002000240025204EB24202D26B
:101970001A4B103B01E01D4B103B1F4E0E4036B181
:101980001E2606EAD124166806EA040502E0566916
:1019900006F0800501F000560EB15C6800E01C689E
:1019A000144E344004EA010616B10DB1012000E0E6
:1019B000002070BD02460D4B9A4202D207481038F3
:1019C00001E00A48103801F000531BB1094B0B40ED
:1019D000C36002E0074B0B40836070471060024019
:1019E0003D000020400F002000003D201064024018
:1019F0003F801CF07D0F7D0F3C0F3C0F10B504465F
:101A00009848844208D10121084600F0B0FD002129
:101A1000012000F0ACFD76E09348844208D101211A
:101A2000022000F0A4FD0021022000F0A0FD6AE0E9
:101A30008E48844208D10121042000F098FD002145
:101A4000042000F094FD5EE08948844208D1012121
:101A5000082000F08CFD0021082000F088FD52E0F5
:101A60008448844208D10121102000F080FD00212B
:101A7000102000F07CFD46E07F48844208D101211F
:101A8000202000F074FD0021202000F070FD3AE0DD
:101A90007A48844208D10121402000F068FD0021ED
:101AA000402000F064FD2EE07548844208D10121F9
:101AB000802000F05CFD0021802000F058FD22E035
:101AC0007048844208D10121801500F050FD0021AA
:101AD000A01500F04CFD16E06B48844208D10121AE
:101AE000401500F044FD0021601500F040FD0AE0C3
:101AF0006648844207D10121001500F038FD00211D
:101B0000201500F034FD10BDF0B50A460021002379
:101B1000002400BF3DE0012505FA01F3156805EA40
:101B200003049C4234D105684F000326BE40B543F0
:101B3000056015794E00B540066835430560157996
:101B4000012D02D01579022D16D185684F0003268C
:101B5000BE40B543856055794E00B5408668354333
:101B60008560456801268E40B54345604568967995
:101B70008E40B6B235434560C5684F000326BE406F
:101B8000B543C560D5794E00B540C6683543C560DC
:101B9000491C1029BFD3F0BD4FF6FF710160002131
:101BA000017141718171C171704708B54FF4803284
:101BB0000092009A0A430092009AC261C161009AA1
:101BC000C261C2690092C269009208BD024600204B
:101BD00013690B400BB1012000E000207047014663
:101BE000086980B270470246002053690B400BB170
:101BF000012000E0002070470146486980B270472C
:101C000001837047418370470AB1018300E041833B
:101C100070474161704742694A4042617047F0B580
:101C2000002300244D07ED0E02FA05F3CE1000F15B
:101C3000200555F826504E07F70E0F26BE40B54337
:101C4000CF1000F1200646F82750CE1000F12005F5
:101C500055F8265045EA0304CE1000F1200545F85A
:101C60002640F0BD0000024000040240000802408F
:101C7000000C024000100240001402400018024014
:101C8000001C0240002002400024024000280240C4
:101C900010B50446FA48844208D10121102000F012
:101CA000AAFC0021102000F0A6FC57E0F548844271
:101CB00009D10121480400F08DFC00214FF40030CF
:101CC00000F088FC4AE0F048844209D101218804F0
:101CD00000F080FC00214FF4802000F07BFC3DE010
:101CE000EA48844209D10121C80400F073FC0021B4
:101CF0004FF4002000F06EFC30E0E548844209D14A
:101D00000121080500F066FC00214FF4801000F06E
:101D100061FC23E0DF48844208D10121202000F04B
:101D20006AFC0021202000F066FC17E0DA488442BB
:101D300009D10121880700F04DFC00214FF08040BF
:101D400000F048FC0AE0D548844207D10121400553
:101D500000F040FC0021600500F03CFC10BD2DE9C6
:101D6000FF4705460E460024A14600BFA046B089A5
:101D700000B100BF2C8A24F44054F08804432C8224
:101D8000AC8941F20C608443B08831890843718981
:101D900008430443AC81AC8A24F44074B089044302
:101DA000AC82684600F0A7FAB548854202D0B9482F
:101DB000854202D1DDF80C9001E0DDF80890A88999
:101DC00000F4004040B109EBC90000EB0910316894
:101DD0004900B0FBF1F707E009EBC90000EB09107F
:101DE00031688900B0FBF1F76420B7FBF0F0040123
:101DF0002009642101FB1078A88900F4004040B15B
:101E0000322000EBC800B0FBF1F000F00700044303
:101E100008E0322000EB08106421B0FBF1F000F084
:101E20000F0004432C81BDE8FF874FF41651016079
:101E300000218180C18001810C21418100218181AB
:101E4000704710B502460020108A20F470600B889D
:101E50004C8823438C882343CC8823431843108227
:101E600010BD0021018041808180C180704721B177
:101E7000828942F40052828104E082894DF6FF7328
:101E80001A4082817047028B02F47F420283028BE8
:101E90000A430283704721B1828942F40042828161
:101EA00003E08289C2F30E028281704721B1828AE7
:101EB00042F40062828204E0828A4FF2FF731A4089
:101EC00082827047C1F30802828070470146888889
:101ED000C0F308007047028A4FF6F0731A4002827E
:101EE000028A0A430282704721B1828942F00202CB
:101EF000828104E082894FF6FD731A408281704727
:101F000082894FF2FF731A40828182890A4382815B
:101F10007047028A4FF6DF731A400282028A0A4330
:101F20000282704721B1028A42F48042028204E0B8
:101F3000028A4BF6FF731A4002827047818941F092
:101F400001018181704721B1828A42F008028282B8
:101F500004E0828A4FF6F7731A4082827047028B40
:101F6000D2B20283028B42EA01220283704721B17E
:101F7000828A42F02002828204E0828A4FF6DF7376
:101F80001A408282704721B1828A42F01002828216
:101F900004E0828A4FF6EF731A4082827047828A89
:101FA0004FF6FB731A408282828A0A43828270470C
:101FB00021B1828A42F00202828204E0828A4FF6D4
:101FC000FD731A40828270471AB1838A0B43838261
:101FD00002E0838A8B4383827047F0B50346002476
:101FE00000260025002040F66A17B94200D100BF44
:101FF0001846C1F3421401F01F06012707FA06F53F
:10200000012C01D10C3004E0022C01D1103000E091
:1020100014301AB107682F43076002E00768AF4326
:102020000760F0BD02460020B1F5007F00D100BF7F
:1020300013880B400BB1012000E00020704701F431
:102040000072B2F5007F00D100BFCA430280704722
:1020500070B50246002400230025002040F66A16D1
:10206000B14200D100BFC1F3421501F01F030126A8
:1020700006FA03F3012D13D19689334017E00000CF
:10208000001001400044004000480040004C004067
:10209000005000400014014000780040007C0040E7
:1020A000022D02D1168A334001E0968A33400C1289
:1020B000012606FA04F41688344013B10CB101204D
:1020C00000E0002070BD10B50022002340F66A1425
:1020D000A14200D100BF0A1201249440A3B2DC4304
:1020E000048010BDF948006840F00100F74908601D
:1020F0000020F64908310860F4480068F4490840B7
:10210000F2490860F348091D0860F348EF4984313B
:102110000860F0481038091D0860EC48006820F499
:102120008020EA4908600020E8490C310860E7494E
:102130008C31086070470021E44A921C11701146EE
:102140000870704710B501460022002300204A1194
:10215000012A02D1DD4C236808E0022A03D1DB4CBE
:102160007034236802E0D94C7434236801F01F02F4
:10217000012494401C400CB1012000E0002010BD5F
:1021800038B5002000900024002500BF3120FFF763
:10219000D9FF05460098401C00900098B0F5A04F6C
:1021A00001D0002DF2D03120FFF7CCFF08B101247F
:1021B00000E00024204638BD01460020C34A1068D4
:1021C00020F0F80040EAC10010607047C349086081
:1021D00070470021BD4A703211701170012802D081
:1021E00004280AD104E00121B84A7032117005E0D8
:1021F0000521B64A7032117000E000BF00BF704781
:10220000B7490860704770B5049C41EA8215012601
:10221000C6EB530645EA0645054345EA0465AB4E61
:10222000361D356070BDAD4908667047820142EACF
:102230000172A64B84331A607047A84988667047BC
:1022400010B5830143EA016343EA02739F4C88346B
:10225000236010BDA14908677047A049C864704752
:1022600002460020994B0833186820F0EC6042EADF
:1022700001031843954B083318607047024600204D
:10228000924B0833186820F0784042EA0103184363
:102290008E4B083318607047014600208B4A083285
:1022A000106820F00300084310607047874808302A
:1022B000006800F00C00704701460020834A083295
:1022C000106820F0F00008431060704701460020BD
:1022D0007E4A0832106820F4E050084310607047CE
:1022E00001460020794A0832106820F4604040EA34
:1022F000C10010607047F0B50021002200240225C3
:1023000000260223714F08373F6807F00C0121B106
:10231000042905D0082937D105E0724F076036E05F
:10232000714F076033E0694F3F1D3F68C7F3805628
:10233000664F3F1D3F6807F03F036EB16A4FB7FB22
:10234000F3F7DFF888C10CF1040CDCF800C0CCF323
:10235000881C07FB0CF40CE0624FB7FBF3F7DFF8C7
:102360006CC10CF1040CDCF800C0CCF3881C07FB3A
:102370000CF4564F3F1D3F68C7F301477F1C7D009B
:10238000B4FBF5F7076002E0564F076000BF00BFDF
:102390004E4F08373F6807F0F0010909534F7A5C48
:1023A0000768D7404760494F08373F6807F4E05156
:1023B000890A4E4F7A5C4768D7408760434F083799
:1023C0003F6807F46041490B484F7A5C4768D74043
:1023D000C760F0BD002100F44072B2F5407F0AD121
:1023E0003A4A0832116821F4F811414A0240114377
:1023F000364A08321160354A70321268C0F30B0356
:102400001A43324B70331A607047354944390860BB
:102410007047334940390860704736490860704753
:1024200001460020294A8C32106820F01F004A1E05
:102430001043264A8C321060704701460020234A20
:102440008C32106820F4F8504A1E40EA02201F4ADD
:102450008C3210607047014600201C4A8C32106894
:1024600020F4401008431060704701460020174ACE
:102470008C32106820F44000084310607047014619
:102480000020124A8C32106820F44030084310605B
:10249000704719490860704739B10C4A30321268E8
:1024A00002430A4B30331A6006E0084A30321268A1
:1024B0008243064B30331A607047F9B1034A343215
:1024C00012680243014B34331A601CE000380240AA
:1024D000FFFFF6EA103000240030002000004742E1
:1024E000800E47420024F40000127A0034000020DD
:1024F000FFFCFF0F5C014742E01147428F4A126820
:1025000082438E4B1A60704739B18C4A121D126893
:1025100002438A4B1B1D1A6006E0884A121D12688E
:102520008243864B1B1D1A60704739B1834A0C32B7
:1025300012680243814B0C331A6006E07F4A0C326A
:10254000126882437D4B0C331A60704739B17B4A65
:10255000103212680243794B10331A6006E0774A52
:10256000103212688243754B10331A60704739B1CC
:10257000724A243A12680243704B243B1A6006E008
:102580006E4A243A126882436C4B243B1A607047AF
:1025900039B16A4A203A12680243684B203B1A60FC
:1025A00006E0664A203A12688243644B203B1A6078
:1025B000704739B1614A1C3A126802435F4B1C3BB9
:1025C0001A6006E05D4A1C3A126882435B4B1C3B72
:1025D0001A60704739B1594A143A12680243574B8E
:1025E000143B1A6006E0554A143A12688243534B72
:1025F000143B1A60704739B1504A103A12680243CE
:102600004E4B103B1A6006E04C4A103A1268824367
:102610004A4B103B1A60704739B1484A1C32126865
:102620000243464B1C331A6006E0444A1C321268CF
:102630008243424B1C331A60704739B13F4A203203
:10264000126802433D4B20331A6006E03B4A2032B9
:1026500012688243394B20331A60704739B1374AC8
:10266000243212680243354B24331A6006E0334AA1
:10267000243212688243314B24331A60704739B1D7
:102680002E4A2C32126802432C4B2C331A6006E07F
:102690002A4A2C3212688243284B2C331A60704726
:1026A00039B1264A303212680243244B30331A6063
:1026B00006E0224A303212688243204B30331A60DF
:1026C0007047012808D11D493C31096841F00801D3
:1026D0001A4A3C32116007E018493C31096821F080
:1026E0000801164A3C321160704739B1134A273A43
:1026F00012780243114B273B1A7006E00F4A273A23
:10270000127882430D4B273B1A7070470B484030BC
:10271000006840F080700949403108607047014608
:102720000020064A283A12680A400AB1012000E057
:10273000002070470149263908707047343802403C
:1027400010B501210802FFF756FF00214FF48070F9
:10275000FFF751FF10BD30B502460020002350683E
:10276000F84C20400D790C6844EA05242043506061
:102770009068F54C2040D1E903542C438D682C43DC
:102780004D7944EA450420439060D06A20F47000FB
:102790000C7D641EE4B2234340EA0350D06230BD96
:1027A00000210160017141718160C16001610121FD
:1027B000017570470021E54A1168E54A1140D0E9EA
:1027C00000231A4383681A43C3681A431143E14A3A
:1027D000C2F8041370470021016041608160C1604C
:1027E000704721B1826842F00102826003E0826892
:1027F00022F00102826070470A4600214168D64BF0
:1028000019401143416070474162826270470A4635
:102810000021416821F01F0111434160704738B128
:10282000CA49096841F40001CA4AC2F8041306E023
:10283000C649096821F40001C64AC2F8041370476A
:1028400038B1C249096841F48001C24AC2F8041390
:1028500006E0BE49096821F48001BE4AC2F80413AB
:102860007047F0B504460D4600200021092D11DD0A
:10287000E068A5F10A0606EB4607072606FA07F107
:102880008843A5F10A0606EB460603FA06F108435B
:10289000E0600CE0206905EB4507072606FA07F122
:1028A000884305EB450603FA06F108432061072A31
:1028B0000FDA606B561E06EB86071F2606FA07F135
:1028C0008843561E06EB860605FA06F10843606348
:1028D00022E00D2A0FDA206BD61F06EB86071F2693
:1028E00006FA07F18843D61F06EB860605FA06F1BD
:1028F0000843206310E0E06AA2F10D0606EB8607AC
:102900001F2606FA07F18843A2F10D0606EB86069C
:1029100005FA06F10843E062F0BD816841F08041AC
:1029200081607047014600208A6802F080420AB147
:10293000012000E00020704721B1826842F48062EB
:10294000826003E0826822F480628260704721B175
:10295000826842F00202826003E0826822F0020292
:102960008260704710B50A4600210023416821F4B7
:102970006041531E41EA4331416010BD21B14268BC
:1029800042F40062426003E0426822F40062426066
:1029900070470146C86C80B270476C48001D0068E3
:1029A000704721B1826842F48072826003E08268DD
:1029B00022F480728260704721B1826842F4007212
:1029C000826003E0826822F400728260704738B14E
:1029D0005E49096841F400515E4AC2F8041306E0FA
:1029E0005A49096821F400515A4AC2F80413704741
:1029F000F0B504461546002000220026092911DD05
:102A0000E068A1F10A0707EB470C072707FA0CF269
:102A10009043A1F10A0707EB470703FA07F21043B7
:102A2000E0600CE0206901EB410C072707FA0CF28B
:102A3000904301EB410703FA07F210432061A06BBA
:102A4000C0F30156EF1C06F1010CA7EB0C0707EBD6
:102A5000870C1F2707FA0CF29043EF1C06F1010CBC
:102A6000A7EB0C0707EB870701FA07F21043A063F7
:102A7000F0BD10B50A4600210023816B21F44011FE
:102A8000531E41EA0351816310BD08B50023009332
:102A90000090009B0B440093009B1A6008BD0A46FF
:102AA0000021816821F470211143816070470A463A
:102AB0000021816821F440111143816070478168D1
:102AC00041F4800181607047014600208A6802F469
:102AD00080020AB1012000E00020704721B1426865
:102AE00042F48062426003E0426822F48062426005
:102AF000704721B1426842F48052426003E042686C
:102B000022F480524260704708B5024600200090CF
:102B1000009201F12800009B184400900098006882
:102B200080B208BD10B50B460021D9B2012404FAC9
:102B300001F11AB144680C43446002E044688C43DC
:102B4000446010BDFFFEFFFCFDF7FFC00423014001
:102B5000E030FCFF00200140FFFD3FFF0246002067
:102B600013680B400BB1012000E000207047CA43FE
:102B70000260704770B502460020002300240B124B
:102B8000556801268E4005EA060415681D4015B1FA
:102B90000CB1012000E0002070BD00220A12D343D6
:102BA0000360704710B50446FE48844208D10121F5
:102BB0000846FFF720FD00210120FFF71CFD9DE0E6
:102BC000B4F1804F08D101210846FFF703FD002131
:102BD0000120FFF7FFFC91E0F348844208D1012176
:102BE0000220FFF7F7FC00210220FFF7F3FC85E04D
:102BF000EE48844208D101210420FFF7EBFC0021BC
:102C00000420FFF7E7FC79E0E948844208D101217C
:102C10000820FFF7DFFC00210820FFF7DBFC6DE058
:102C2000E448844208D101211020FFF7D3FC0021A1
:102C30001020FFF7CFFC61E0DF48844208D101217A
:102C40002020FFF7C7FC00212020FFF7C3FC55E040
:102C5000DA48844208D101210220FFF7CCFC002190
:102C60000220FFF7C8FC49E0D548844209D1012180
:102C70000804FFF7C0FC00214FF48030FFF7BBFCD5
:102C80003CE0D048844209D101214804FFF7B3FC5D
:102C900000214FF40030FFF7AEFC2FE0CA48844219
:102CA00009D101218804FFF7A6FC00214FF4802000
:102CB000FFF7A1FC22E0C548844208D10121402051
:102CC000FFF788FC00214020FFF784FC16E0C04895
:102CD000844208D101218020FFF77CFC0021802064
:102CE000FFF778FC0AE0BB48844207D10121801538
:102CF000FFF770FC0021A015FFF76CFC10BD00224F
:102D00000288A84B98420ED0AC4B98420BD0B0F141
:102D1000804F08D0A44B984205D0A44B984202D0D3
:102D2000A34B984204D14FF68F731A404B881A4335
:102D3000A04B984207D0A04B984204D04FF6FF43D7
:102D40001A400B891A4302804B68C3620B880385C3
:102D5000944B984202D0994B984201D18B7A0386CA
:102D60000123838270474FF0FF31416000210180D1
:102D700001814180817270470185828270470A46D5
:102D8000002101884FF68F7319401143018070476D
:102D900041627047C16270470146486A7047014608
:102DA000088D704721B1028842F00202028004E0DF
:102DB00002884FF6FD731A400280704721B10288E5
:102DC00042F00402028004E002884FF6FB731A40CE
:102DD0000280704721B1028842F08002028004E044
:102DE00002884FF67F731A400280704702884FF6C0
:102DF000F7731A40028002880A43028070470288F3
:102E00004FF6FF431A40028002880A43028070474F
:102E100021B1028842F00102028004E002884FF6EC
:102E2000FE731A400280704770B500240022002310
:102E3000058C4FF6FE7635400584028C8388048B22
:102E40004FF68F752C40B51E2C400D882C43751EF7
:102E50002A408D892A434D882A43524DA84202D0E8
:102E6000564DA84213D14FF6F7752A40CD892A4313
:102E70004FF6FB752A408D882A434FF6FF652B409D
:102E80004FF6FF552B400D8A2B434D8A2B438380F1
:102E900004838D684563028470BD70B500240022F0
:102EA0000023058C4FF6EF7635400584028C83882D
:102EB000048B48F6FF752C404FF6FF452C400D88DB
:102EC0004FF6FF7606EA05252C434FF6DF752A40BC
:102ED0008D8906EA05152A434D8806EA05152A4319
:102EE000304DA84202D0354DA8421DD14FF67F7516
:102EF0002A40CD894FF6FF7606EA05152A434FF69C
:102F0000BF752A408D8806EA05152A434FF6FF351E
:102F10002B404FF2FF752B400D8A06EA85052B43A7
:102F20004D8A06EA85052B43838004838D6885637B
:102F3000028470BD70B5002400220023058C4FF67A
:102F4000FF6635400584028C8388848B4FF68F752D
:102F50002C404FF6FC752C400D882C434FF6FF5546
:102F60002A408D894FF6FF7606EA05252A434D88CB
:102F700006EA05252A430B4DA84202D00F4DA84270
:102F800038D14FF2FF752A40CD894FF6FF7606EA19
:102F900005252A434FF6FF352A408D8806EA052588
:102FA0002A4319E0000001400004004000080040EE
:102FB000000C0040001000400014004000040140DC
:102FC000004001400044014000480140001800401A
:102FD000001C0040002000404EF6FF752B404DF6CF
:102FE000FF752B400D8A06EA05152B434D8A06EA2C
:102FF00005152B43838084838D68C563028470BD6F
:1030000070B5002200230024058C4EF6FF76354073
:103010000584038C8488828B48F6FF752A404FF61E
:10302000FF452A400D884FF6FF7606EA05252A431C
:103030004DF6FF752B408D8906EA05352B434D88EB
:1030400006EA05352B43FE4DA84202D0FD4DA842AD
:1030500008D14BF6FF752C400D8A4FF6FF7606EA35
:1030600085152C43848082838D680564038470BD3C
:10307000002101804180818081608181C181018244
:103080004182704770B5034600200024184618306E
:1030900001258D40ACB21D8CA5431D8409B10829C2
:1030A0000AD100EB610005684FF68F763540056068
:1030B0000568154305600FE00D1FC5F34E05284454
:1030C000056848F6FF763540056005684FF6FF76DF
:1030D00006EA02263543056070BD4163704781638F
:1030E0007047C1637047016470470A460021018B35
:1030F0004FF68F7319401143018370470A46002130
:10310000018B48F6FF7319404FF6FF7303EA022361
:103110001943018370470A460021818B4FF68F7354
:1031200019401143818370470A460021818B48F67C
:10313000FF7319404FF6FF7303EA0223194381839B
:1031400070470A460021018B4FF6F773194011436F
:10315000018370470A460021018B4FF2FF7319402B
:103160004FF6FF7303EA02231943018370470A46AF
:103170000021818B4FF6F77319401143818370470B
:103180000A460021818B4FF2FF7319404FF6FF73FF
:1031900003EA02231943818370470A460021018B09
:1031A0004FF6FB7319401143018370470A46002113
:1031B000018B4FF6FF3319404FF6FF7303EA0223EA
:1031C0001943018370470A460021818B4FF6FB7338
:1031D00019401143818370470A460021818B4FF6C5
:1031E000FF3319404FF6FF7303EA0223194381832B
:1031F00070470A460021018B4FF67F731940114337
:10320000018370470A460021018BC1F30E014FF67E
:10321000FF7303EA02231943018370470A46002122
:10322000818B4FF67F7319401143818370470A46A3
:103230000021818BC1F30E014FF6FF7303EA0223D5
:103240001943818370470A460021018C4FF6FD73B4
:1032500019401143018470470A460021018C4FF642
:10326000F77319401143018470470A460021018C0D
:103270004FF6DF7319404FF6FF7303EA0213194349
:10328000018470470A460021018C4FF67F73194074
:103290004FF6FF7303EA02131943018470470A468D
:1032A0000021018C4FF6FF5319404FF6FF7303EADC
:1032B00002231943018470470A460021018C4FF212
:1032C000FF7319404FF6FF7303EA02231943018489
:1032D00070470A460021018C4DF6FF7319404FF6E6
:1032E000FF7303EA023319430184704730B50023AA
:1032F00001248C40A3B2048C9C430484048C02FA05
:1033000001F5ADB22C43048430BD30B50023042454
:103310008C40A3B2048C9C430484048C02FA01F513
:10332000ADB22C43048430BD828B4FF2FF331A4080
:103330008283828B4FF6FF7303EA01231A43828351
:103340007047F0B50C461546002100220026078C78
:103350004EF6FF7C07EA0C070784818B028C4FF640
:10336000FF7707EA043640F6FF4739404FF6FF770C
:1033700007EA052739434FF6FF7707EA0337394352
:1033800045F6FF773A4046F480573A4381830284FA
:10339000F0BD828B4FF6F3731A408283828B0A430F
:1033A00082837047F0B50C461546002100220026A6
:1033B000078C4FF6FF6C07EA0C070784818B028CA1
:1033C0004FF6FF7707EA04264FF60C7739404FF6A1
:1033D000FF7707EA03172F4339434FF2FF573A406D
:1033E00046F480773A4381830284F0BD028B4FF22A
:1033F000FF331A400283028B4FF6FF7303EA012367
:103400001A4302837047F0B50C461546002100228E
:103410000026078C4FF6EF7C07EA0C070784018B28
:10342000028C4FF6FF7707EA041640F6FF47394053
:103430004FF6FF7707EA033739434FF6FF7703E08C
:10344000000001400004014007EA052739434FF618
:103450005F773A4046F010073A4301830284F0BD9B
:10346000028B4FF6F3731A400283028B0A430283E6
:103470007047F0B50C46154600210022068C4FF629
:10348000FE773E400684018B028C4FF60C7631406D
:103490007E1C06EA03162E4331434FF6F576324082
:1034A00044F00106324301830284F0BD70B5054645
:1034B0000C46208850B92389A28861882846FFF7E6
:1034C000D8FFE1882846FFF7CBFF25E020880428B5
:1034D0000AD12389A28861882846FFF794FFE188F2
:1034E0002846FFF783FF17E0208808280AD12389A0
:1034F000A28861882846FFF755FFE1882846FFF734
:1035000048FF09E02389A28861882846FFF719FF50
:10351000E1882846FFF708FF70BD00210180418047
:10352000012181800021C180018170472DE9F04196
:1035300005460C4600260127608808B9022600E0EF
:103540000026A088012801D1022700E00127208859
:10355000A0B92389A28861882846FFF78AFFE188FD
:103560002846FFF77DFF23893A4631462846FFF774
:103570004AFFE1882846FFF739FF13E02389A28834
:1035800061882846FFF73FFFE1882846FFF72EFFB6
:1035900023893A4631462846FFF76BFFE1882846E3
:1035A000FFF75EFFBDE8F0810146486B70470146BA
:1035B000886B70470146C86B70470146086C7047BE
:1035C0000A884B881A438B881A43CB881A430B8985
:1035D0001A434B891A438B891A43A0F84420704739
:1035E0000021018041808180C180018141818181F0
:1035F000704731B1B0F8442042F40042A0F84420B2
:1036000005E0B0F84420C2F30E02A0F84420704751
:1036100021B1828842F00402828004E082884FF661
:10362000FB731A408280704721B1828842F0010208
:10363000828004E082884FF6FE731A4082807047D1
:103640001AB183890B43838102E083898B43838191
:1036500070478182704702460020138A0B400BB1ED
:10366000012000E000207047CA430282704730B555
:103670000246002000230024158A05EA01039589EB
:1036800005EA010413B10CB1012000E0002030BDB7
:10369000CA430282704741EA0203A0F848307047EB
:1036A0001AB183890B43838102E083898B43838131
:1036B000704721B1828842F00802828004E082884B
:1036C0004FF6F7731A408280704701894FF6F872FF
:1036D0001140018170470A46002101894FF68F731E
:1036E000194011430181704730B504460D46294603
:1036F0002046FFF7F0FF208940F00700208130BD11
:103700002DE9F04104460D4616461F46602D06D1B0
:103710003B46012231462046FFF775FE05E03B4659
:10372000012231462046FFF7A4FE29462046FFF736
:10373000D2FF208940F007002081BDE8F08130B53C
:103740000C4600210189C9B24FF6FF7505EA032531
:10375000154325432943018130BD2DE9F04105463C
:103760000E4617469846002443463A4631462846B8
:10377000FFF7E5FF2C894FF6F870044044F007048A
:103780004FF68F70044044F070042C81BDE8F08146
:10379000F0B504460D4616461F463B4632462946BE
:1037A0002046FFF7CCFF208940F480402081F0BD07
:1037B00082884FF68F731A40828082880A43828003
:1037C000704702894FF6F8731A40028102890A4352
:1037D0000281704702894FF67F731A400281028985
:1037E0000A4302817047F0B50C4615461E4600217B
:1037F000002200230189028B038C4FF6F8773940B1
:1038000021434FF6FC473A4040F201173A434FF646
:10381000DD773B404FF6FF7707EA06172F433B4320
:10382000018102830384F0BD21B1828842F08002CD
:10383000828004E082884FF67F731A40828070474E
:10384000A0F85010704700009FED3A0A5FEA920C12
:1038500053D000BFF0EC010A0B1DB0EC011A60EE72
:10386000A00A41EE010AF5EEC00AF1EE10FAC6BF59
:10387000B1EEE01A81ED001A81ED000AF0EC010AC8
:10388000191DB0EC011A60EEA00A41EE010AF5EE36
:10389000C00AF1EE10FAC6BFB1EEE01A83ED001ACD
:1038A00083ED000AF0EC010A0B1DB0EC011A60EE8A
:1038B000A00A41EE010AF5EEC00AF1EE10FAC6BF09
:1038C000B1EEE01A81ED001A81ED000AF0EC010A78
:1038D000191DB0EC011A60EEA00A41EE010AF5EEE6
:1038E000C00AF1EE10FAC6BFB1EEE01A83ED001A7D
:1038F00083ED000ABCF1010CACD112F0030208BF49
:10390000704700BFF0EC010A0B46B0EC011A091D2C
:1039100060EEA00A41EE010AF5EEC00AF1EE10FADF
:10392000C6BFB1EEE01A83ED001A83ED000A521E05
:10393000E8D17047000000002DE9F04F8D082DED13
:10394000048B82B00026AC463446019506EB0C0988
:1039500009EB0C0A0AEB0C0800EBC60700EBC909DF
:1039600000EBCA0A00EBC80897ED003AD9ED003A1F
:10397000DAED006A98ED006A97ED010ADAED014A86
:1039800033EE265A73EE860A99ED014AD8ED015AB4
:1039900030EE241A4FEA440B02EBCB0E70EE644A71
:1039A00074EE251A35EE200A9EED002ADEED012A7E
:1039B00087ED000A31EE210A73EEC63A34EE656AED
:1039C00087ED010A35EE600A33EE663A71EE610A60
:1039D00002EBC40774EEE35A33EE064A97ED005A41
:1039E00073EEA41AD7ED014A33EE461A24EE056AA7
:1039F0000BEB040725EE855A02EBC70760EE026A5F
:103A000065EEA45A24EE244A97ED003AD7ED013A28
:103A100060EEA24A20EE822A21EE037A20EE220AEC
:103A200061EEA30A21EE833A61EE231A76EEA42A10
:103A300032EE400A36EE251A75EE443AC9ED002AF8
:103A400077EE200A89ED010A73EE611A8AED001AF9
:103A5000CAED013AC8ED000A761CC8ED011A1C44F3
:103A60006D1E7FF473AF4FF6FF7404EA830B019B66
:103A70000093042B7DD966464FEA9C0C4FF000085A
:103A8000C146ACF1010E00BF4FEA480303EB080446
:103A900002EBC30302EBC80593ED003AD3ED014AF4
:103AA00002EBC40395ED005AD5ED015A93ED006A7F
:103AB00093ED014AD8444B4603EB0C0404EB0C078E
:103AC00007EB0C0A00EBC30500EBC70700EBC404CF
:103AD00000EBCA0AD5ED003A97ED007AD4ED008AE2
:103AE0009AED008A95ED010AD4ED010AD7ED017A2D
:103AF000DAED011A33EEC72A70EE676A70EEE12A3A
:103B000033EE877A78EE883A30EE270A38EEC81A14
:103B100070EEA11A72EE227A32EE622A77EE232A32
:103B200070EE618A36EEC18A30EE210A77EE630AC2
:103B300031EE261AC5ED002A85ED010A28EE050AA8
:103B400067EE856A28EE258A20EE837A20EEA49A15
:103B500068EE831A62EE062A61EE063A62EE040A05
:103B600067EEA57A68EEA48A21EE041A36EE882A5A
:103B700000E027E077EE286A71EEC91A30EE670A96
:103B8000C4ED006A32EE811AC4ED011A73EEE00A48
:103B900087ED002A87ED010A8AED001A3344CAED49
:103BA000010A8B4288D309F10109F1457FF66CAF18
:103BB0004FF6FF7303EA8B0B009B9B080093042BCB
:103BC0003FF659AFDDF8041090ED000AD0ED042A5D
:103BD00090ED025A90ED031AD0ED064A90ED073AA7
:103BE00030EE222AD0ED011AD0ED050A75EE243A06
:103BF00031EE034A30EE620A71EEA02A31EE431A2A
:103C000032EE233A71EEE00A75EE641A72EE844ADF
:103C100032EE632A72EEC43A80ED003A70EE012A69
:103C2000C0ED014A30EEE14A80ED022A30EE410A51
:103C3000C0ED033A71EEA00AC0ED042A80ED054AFA
:103C400080ED060AC0ED070A2030491EBCD102B043
:103C5000BDEC048BBDE8F08F2DE9F04F4FEA910ADF
:103C60002DED048B82B00024D446A046CDF804A0EC
:103C700004EB0C0505EB0C0606EB0C0900EBC40786
:103C800000EBC60600EBC50500EBC909D7ED011A2C
:103C9000D6ED012A95ED006AD9ED006AD7ED005AFC
:103CA00096ED007AD5ED010A99ED011A36EE262A35
:103CB00071EEA23A35EE873A71EEE21A30EE815A91
:103CC00070EEC12A4FEA480B02EBCB0E73EE020AEC
:103CD0009EED004ADEED014AC7ED000A73EE850A4B
:103CE00036EE666A75EEC75AC7ED010A33EE422A10
:103CF00002EBC80731EE861A33EEC53A71EEC61AEA
:103D000097ED006A97ED015A75EEE20A0BEB080792
:103D100002EBC70775EEA22AD7ED005AD7ED013A9C
:103D200060EE866A22EE047A62EEA57A23EE044AF9
:103D300021EE066A61EEA55A60EE850A23EE243A6A
:103D400022EE242A21EE051A61EEA31A62EEA32ABE
:103D500076EE203A37EE433A74EE020A36EEC11A96
:103D600085ED003A77EEE11AC5ED010A35EEA22A9B
:103D700086ED001AC6ED013AC9ED001A641C89ED02
:103D8000012A9844BAF1010A7FF472AF4FF6FF742A
:103D900004EA830B019B0093042B7CD966464FEA0F
:103DA0009C0C4FF00008C146ACF1010E4FEA4803ED
:103DB00003EB080402EBC30302EBC805D3ED003AA2
:103DC00093ED017A02EBC403D5ED006AD5ED015AFB
:103DD000D3ED004A93ED013AD8444B4603EB0C0473
:103DE00004EB0C0707EB0C0A00EBC30500EBC7075D
:103DF00000EBC40400EBCA0A95ED012A97ED018A95
:103E000095ED001AD4ED008AD4ED017A97ED009A71
:103E1000DAED001ADAED010A32EE485A71EE492A5B
:103E200038EEE14A32EE082A37EEA08A37EEE06A31
:103E300078EEA11A31EE091A75EE048A72EEC67A8E
:103E400072EE862A71EE610A31EE211A35EE444A8D
:103E500032EE489A85ED001A32EE081A28EEA66A6C
:103E600027EEA65A68EEA58A85ED011A20EEA31A60
:103E700069EE231A22EEA42A24EE248A67EEA57A9C
:103E800029EE079A60EE870A24EE034A62EE832A3F
:103E900035EE685A00E027E036EE276A71EE497A7F
:103EA00031EEA01A72EE440AC4ED007A84ED011AD4
:103EB00078EE221A87ED005A87ED016ACAED000AF2
:103EC0003344CAED011A8B4288D309F10109F14547
:103ED0007FF66CAF4FF6FF7303EA8B0B009B9B08DA
:103EE0000093042B3FF65AAFDDF8041090ED003A32
:103EF000D0ED044AD0ED032A90ED071A90ED024A66
:103F0000D0ED061AD0ED013AD0ED050A33EE242AA1
:103F100072EE815A33EE643A34EE215A73EEA04ABF
:103F200073EEE03A32EEC11A74EE610A32EE454A9F
:103F300072EE052A74EEA51A34EEE55A73EE414A84
:103F400033EEA02A33EE011A33EEE03A62EE805AE5
:103F500061EE800A64EE003A65EE002AC0ED005A78
:103F600064EE801AC0ED010A22EE002AC0ED023A8A
:103F700021EE004AC0ED032A23EE001AC0ED041A18
:103F800080ED052A80ED064A80ED071A2030491E93
:103F9000ACD102B0BDEC048BBDE8F08F70B5044627
:103FA0000D4680782188A389626801280ED02846B2
:103FB000FFF7C2FCE078012818BF70BDE2892188B4
:103FC0002846A368BDE8704000F066B894ED040A86
:103FD0002846FFF741FEEDE710B40180234C446012
:103FE00082704FF0000CC370B1F5807F20D004DCEC
:103FF00010292FD0402906D122E0B1F5806F0FD0D3
:10400000B1F5805F04D04FF0FF3C10BC60467047B4
:1040100001218181C18116499FED160A816016E058
:1040200004218181C18114499FED140A81600EE051
:1040300010218181C18112499FED120A816006E041
:1040400040218181C18110499FED100A816080ED7E
:10405000040ADAE74FF480718181C1810C499FED38
:104060000D0A816080ED040ACFE700006867000850
:10407000665F0008000080396C5F00080000803A2D
:10408000845F00080000803BE45F00080000803C83
:10409000646100080000803D2DE9F0014E08012414
:1040A0004FF0000C04EB51076146A6F102082CE02A
:1040B00061452AD200EBCC0500EBC104D5ED000A26
:1040C00094ED000AC4ED000A85ED000AD5ED010A61
:1040D00094ED010AC4ED010A85ED010ACC1900EB4B
:1040E000C4050CEB070400EBC40495ED000AD4ED05
:1040F000000AC5ED000A84ED000AD4ED010A95ED31
:10410000010AC5ED010A84ED010A00EBC104B444C3
:1041100000EBCC0C94ED020ADCED000A891CC4ED26
:10412000020A8CED000ADCED010A94ED030AC4EDED
:10413000030A8CED010AB3F800C089B203EB420315
:104140004145B5D9BDE8F00170472DE9F0070125DB
:104150004C0805EB51064FF0000C651E6146002D22
:1041600088BFA8462ED8BDE8F0077047614529D220
:1041700050F8315050F83C7040F8317040F83C50E5
:1041800000EBC10700EBCC097D68D9F804A0C7F8A3
:1041900004A0C9F804508D190CEB060750F83590AF
:1041A00050F837A040F835A040F8379000EBC5052F
:1041B00000EBC707D5F80490D7F804A0C5F804A011
:1041C000C7F8049000EBC105A444AF6850F83C90D8
:1041D000C5F8089040F83C7000EBCC0CEF68DCF8B8
:1041E0000490C5F80C90CCF80470B3F800C0891C9A
:1041F00003EB42034145B9D3BDE8F00770472DE911
:10420000F00F01244D084FF0000C04EB5107012D75
:104210009CBFBDE8F00F7047014600EB8704002605
:104220004FEA550815E000BFBCEB460F11D950F816
:104230002CA0D1F80090C1F800A040F82C900CEB15
:104240000709D4F800A050F829B0C4F800B040F82D
:1042500029A0AC44D1F8049050F82CA0C1F804A0D7
:1042600040F82C90B3F800C008310834761C03EBFA
:104270004203B8F10108D7D1BDE8F00F704770478D
:10428000704770477047704710B500F009F8006834
:1042900010BD10B5044600F003F8046010BD000026
:1042A0000048704718D400200048704718D40020F8
:1042B0007546FFF7F9FFAE4605006946534620F004
:1042C0000700854618B020B5FDF742F9BDE820404B
:1042D0004FF000064FF000074FF000084FF0000BC2
:1042E00021F00701AC46ACE8C009ACE8C009ACE875
:1042F000C009ACE8C0098D46704710B50446AFF35D
:1043000000802046BDE81040FBF787BF03B401984A
:104310004100009850EAC12018BF04204A0D18BF80
:1043200040F0010040F2FF72B2EB515F08BF40F075
:104330000200012808BF052002B070472DED020BD6
:10434000019820F0004001909DED000B02B07047F5
:104350002DE9F04D2DED040B2DED0E8B96B0DDE922
:104360002550279CDDF890A025F0004624F0004859
:10437000BAF1000F14BF0121002101EB4502FC49F5
:1043800053184A1093422AD3002814BF0123002354
:1043900003EB44030B44F7498B4220D358EA000156
:1043A0009FEDF59B76D0DFF8D8B35D4503D1BAF128
:1043B000000F05D188E0BAF1000F08BF002100D03E
:1043C000012101EB450111F5001F08D8002814BF99
:1043D0000121002101EB440111F5001F0BD99DEDD6
:1043E000261B9DED240B16B0BDEC0E8B04B0BDE872
:1043F000F04D00F0A9BE0027002DBCBFE149884563
:1044000021DAE1498845A8BF02271CDAC3451ADC36
:10441000DE4901EB2851142908DDC1F1340220FAEC
:1044200002F101FA02F282420DD108E058B9C1F15D
:10443000140228FA02F101FA02F2424503D101F016
:104440000101C1F1020756EA0A0124D1002C22DA47
:10445000002D18BF022F01D0012F0AD00220FFF734
:1044600018FF16B0BDEC0E8B04B0BDE8F04D00F0A7
:1044700053BE0220FFF70DFF00F04EFE51EC100B73
:1044800000F0E1FE41EC100B16B0BDEC0E8B04B059
:10449000BDE8F08D18E09FEDBEAB9FEDBF8B00280F
:1044A00071D1B848804522D105F1804010F58010C7
:1044B00008BFBAF1000F07D0B3450ADC002CA8BF33
:1044C0009DED260BE0DA0DE0B0EE490AF0EE690A48
:1044D000DAE7002C06DA9DED260B51EC100B00F00C
:1044E000B2FE6FE0AE48784490ED000BCCE7D845C3
:1044F0004DD1002C48DA2EB186423AD1BAF1000FE4
:1045000042D126E0BAF1000F13D00220FFF7C1FE1E
:1045100000F036FE8DED020B9DED240B8DED000BB2
:1045200010EE900A039961F31E0003909DED020BBB
:10453000AAE78DED02AB9DED240B1AEE901A10EE5A
:10454000900A8DED000B61F31E0003909DED020BB0
:104550009AE78DED028B9DED240B18EE901A10EE6C
:10456000900A8DED000B61F31E0003909DED020B90
:104570008AE709DA9DED240B51EC190B53EC102B53
:1045800000F05CFF1EE020E09DED240B7CE78642FE
:104590001BDAB4F1804F0DD0A4F10050B0F1FF5000
:1045A00013D1002D11DB9DED240B51EC100B00F00D
:1045B00013FE07E09DED240B53EC102B51EC100B78
:1045C00000F0C2BC41EC100B5EE79DED240B51ECFA
:1045D000100B00F0F5FDBAF1000FCDE90E0142D14C
:1045E0009FED710B46B3A6F1E040B0F17F600CD0B7
:1045F0005E4538D1002D00DAA7B3022F0CBF012091
:104600004FF0FF3001F072F8DCE7002D01DD002CE7
:104610000DDA002D01DD002C1FDB002D16DA002C39
:1046200014DB012F08BF9FED620B3FF42DAFB0EEFE
:104630004A0AF0EE6A0A27E7022F18BF002D0CD0B5
:10464000012F0AD1002DFFF61FAF06E0002DB8BFE5
:10465000002C08DA012F3FF417AFB0EE480AF0EE55
:10466000680A11E71BE0012000EBE57050EA070142
:1046700015D0791EB0EE498AF0EE698A084308BF6A
:104680009FED4D8B4E480025804570DD4D494E48CD
:10469000884514DDB0420DDB002C19DB2FE0012032
:1046A000FFF7F7FD16B0BDEC0E8B04B0BDE8F04D82
:1046B00000F056BDB34502DC002C09DC1FE0864249
:1046C00002DA002C1BDA03E05E452BDD002C16DD40
:1046D0000220FFF7DEFD00F053FD8DED020B53ECE1
:1046E0001A2B51EC180B01F055F8CDE90001039994
:1046F000019861F31E0003909DED020BC4E60220B9
:10470000FFF7C7FD00F04CFD10EE901A18EE900A6E
:104710008DED020B8DED008B61F31E0003909DED7E
:10472000020BB1E69DED0E0B53EC192B51EC100B67
:1047300001F03CFA9FED260BCDE9080153EC102B5C
:104740009DED080B51EC100B01F024F89FED221B9E
:1047500053EC112B01F052F99DED081B53EC112B7A
:1047600001F018F89FED1E1B53EC112B3CE08CE080
:10477000FFFF1F00FFFF0F00000000000000F03FE0
:104780000000F03F0000F07F0000404301FCFFFF0D
:10479000000000000000F07F0000000000000000AA
:1047A00006A30000000000000000000000000080E0
:1047B000000000000000F0FF000000000000F0BF5B
:1047C0000000E0410000F043FFFFEF3F0000000069
:1047D000000000000000D03F555555555555D53FB8
:1047E000000000000000E03F01F008F99DED080B1B
:1047F00041EC1A0B53EC102B51EC100B00F0CAFFDC
:1048000053EC1A2B00F0C6FF41EC1A0B9FEDFE0B88
:1048100053EC102B9DED080B51EC100B00F0BAFF80
:1048200041EC1B0B9FEDFA0B51EC1A0B53EC102BC8
:1048300000F0B0FF41EC1A0B9FEDF70B53EC102B7F
:104840009DED080B51EC100B00F0A4FF53EC1A2B5C
:1048500001F0ACF941EC1A0B51EC1B0B53EC1A2B89
:1048600000F030FD0690CDE906519DED060B53ECAE
:104870001B2B51EC100B01F099F953EC1A2B01F0A2
:10488000BDF841EC100B00F0A1B90020B6F5801F77
:104890000EDA9FEDE30B53EC102B9DED0E0B51EC5C
:1048A000100B00F077FFCDE90E016FF034000E46DB
:1048B00000EB2650A0F2FF37C6F31300DA4940F0B0
:1048C0007F6646F040568842D8BF002408DDD749AD
:1048D0008142C8BF012403DC0024A6F580167F1C9A
:1048E000D348784400EBC4000F9690ED00CB9DEDCB
:1048F0000E0B53EC1C2B51EC100B01F057F99DEDF6
:104900000E0B41EC1B0B53EC1C2B51EC100B00F06D
:10491000D9FC41EC100B51EC190B53EC102B00F0AF
:104920008DFD41EC1D0B51EC1B0B53EC1D2B00F0CE
:1049300031FF41EC1A0BBF488DED10AB7844109558
:1049400090ED000B4FF0005040EA660000EB844011
:104950008DED080B00F5002009909DED080B53EC40
:104960001C2B51EC100B01F021F99DED0E1B53ECAB
:10497000112B01F043F841EC100B53EC102B9DED83
:10498000100B51EC100B00F005FF9DED080B41ECF6
:104990001C0B53EC102B9DED100B51EC100B00F089
:1049A000F9FE53EC1B2B01F029F853EC1C2B01F002
:1049B000FDF853EC1D2B00F0EDFE41EC1C0B53EC0D
:1049C0001A2B51EC1A0B00F0E5FE41EC1B0B9A4838
:1049D0000621B0EE4B0AF0EE6B0A784400F01DFBA6
:1049E000B0EE401AF0EE601AB0EE41DAF0EE61DAA5
:1049F00053EC1B2B51EC1B0B00F0CCFE53EC1D2B8E
:104A000000F0C8FE9DED100B41EC1B0B53EC1A2B74
:104A100051EC100B00F056FC53EC1C2B00F0BAFECE
:104A200053EC1B2B00F04EFC9DED100B41EC1B0BCF
:104A300053EC102B51EC100B00F0ACFE41EC1D0BB5
:104A40009FED7FEB53EC1E2B00F03CFC53EC1B2B3B
:104A500000F038FC0890CDE908519DED080B53ECAF
:104A60001E2B51EC100B01F0A1F853EC1D2B01F0A3
:104A70009DF853EC1B2B00F0C1FF9DED080B41ECA2
:104A80001D0B53EC102B9DED100B51EC100B00F097
:104A900081FE41EC1B0B53EC1A2B51EC1D0B00F06B
:104AA00079FE9DED080B41EC1A0B53EC102B51ECE9
:104AB0001C0B00F06FFE53EC1A2B00F003FC41ECD2
:104AC0001A0B51EC1B0B53EC1A2B00F0FBFB0C9058
:104AD000CDE90C519DED0C0B53EC1B2B51EC100B45
:104AE00001F064F853EC1A2B00F088FF41EC1B0B2B
:104AF0009FED550B53EC102B9DED0C0B51EC100B57
:104B000000F048FE41EC1A0B9FED510B51EC1B0BD2
:104B100053EC102B00F03EFE41EC1B0B9FED4E0BB7
:104B200053EC102B9DED0C0B51EC100B00F032FEF2
:104B300053EC1B2B00F0C6FB41EC100B48487844AB
:104B400000EBC40090ED001B51EC100B53EC112B4B
:104B500000F0B8FB41EC1B0B384600F0C7FDCDE977
:104B6000080153EC1B2B51EC1A0B00F0ABFB41EC92
:104B7000100B3C48784400EBC40090ED00CB51ECA6
:104B8000100B53EC1C2B00F09DFB9DED081B53EC10
:104B9000112B00F097FB0690CDE906519DED080B17
:104BA00053EC102B9DED060B51EC100B00F0FEFFAB
:104BB00053EC1C2B00F0FAFF53EC1A2B00F0F6FF1D
:104BC00053EC1B2B00F01AFF41EC100B9DED261B44
:104BD00053EC102B8DED001B00959DED260B51EC39
:104BE000100B00F0D7FD9DED000B41EC1A0B53ECC0
:104BF000102B9DED260B51EC100B00F0D7FF9DED17
:104C0000061B53EC112B2FE0000000604715F73F07
:104C1000FE822B654715F73F44DF5DF80BAE543E2F
:104C200000000000000040438E9803007AB60B009D
:104C3000829E0000B09E0000BA9D000000000000AF
:104C40000000000000000840000000E009C7EE3F3F
:104C5000FD033ADC09C7EE3FF5015B14E02F3EBED1
:104C6000469C0000009C000000F094FD53EC1A2BC1
:104C700000F028FB9DED060B41EC1A0B53EC102BBA
:104C80009DED000B51EC100B00F084FDCDE90C0103
:104C90009DED0C0B51EC1A0B53EC102B00F012FB9A
:104CA000CDE902010C46AA498C422FDB611A084368
:104CB00018D19DED0C0B53EC102B9DED020B51EC1C
:104CC000100B00F073FF41EC1B0B9FEDA30B51EC9D
:104CD0001A0B53EC102B00F0F5FA53EC1B2B00F0E1
:104CE00057FE2DD20220FFF7D4FA00F049FA10EE59
:104CF000901A18EE900A8DED020B8DED008B61F38A
:104D00001E0003909DED020BFFF7BEBB944A24F0FA
:104D10000041914214D39349214408437FF4EFACFE
:104D20009DED0C0B53EC102B9DED020B51EC100B79
:104D300000F03CFF53EC1A2B00F02AFE7FF6DFACAC
:104D400024F000408849894A002601EB2051824224
:104D50002BDA481C4FF4801121FA00F02044844AD9
:104D6000C0F30A517A44A1F2FF3192ED000B814A5F
:104D70008DED080BCA4020EA0202C0F3130040F494
:104D80008010C1F1140120FA01F60992002CB8BF7D
:104D900076429DED080B53EC102B9DED0C0B51EC66
:104DA000100B00F003FFCDE90C019DED0C0B51EC55
:104DB0001A0B53EC102B00F085FA9FED6F0B089047
:104DC000CDE9085153EC102B9DED080B51EC100B65
:104DD00000F0E0FC41EC1B0B9FED690B53EC102B3A
:104DE0009DED080B51EC100B00F0D4FC9DED0C0B6D
:104DF00041EC1C0B53EC102B9DED080B51EC100BF0
:104E000000F0D4FE53EC1A2B00F0F8FD9FED5E1B72
:104E100053EC112B00F0BEFC53EC1C2B00F052FAAB
:104E200041EC1A0B51EC1B0B53EC1A2B00F04AFA15
:104E3000CDE902019DED020B53EC1B2B51EC100B45
:104E400000F0B4FE53EC1A2B00F0D8FD9DED020BE0
:104E500041EC1A0B53EC102B51EC100B00F09AFCA8
:104E6000CDE908014A489DED080B0521784400F082
:104E7000D4F89DED081B51EC100B53EC112B00F0F6
:104E800089FC9DED021B53EC112B00F0B7FDCDE921
:104E900006019DED020B53EC1A2B51EC100B00F0A8
:104EA00079FC53EC1A2B00F00DFA9FED3B0B41EC13
:104EB0001A0B53EC102B9DED060B51EC100B00F070
:104EC00075FE9DED060B41EC1B0B53EC102B9DED7D
:104ED000020B51EC100B00F05DFC53EC1B2B00F0AF
:104EE000ADFA53EC1A2B00F061FE9DED021B53EC62
:104EF000112B00F05BFE53EC192B00F07FFDCDE988
:104F0000020101EB065001150029C8BF039015DC12
:104F10009DED020B324651EC100B00F0DEFFFFF767
:104F2000F5F9042808BF00F03BF932469DED020B6D
:104F300051EC100B00F0D1FFCDE902019DED020B09
:104F400051EC180B53EC102B00F024FCFFF73ABB8C
:104F50000000904000000000FE822B654715973C42
:104F600000CC904000346F3F01FCFFFF0000E03FA9
:104F7000889A0000FFFF0F0000000000432EE63F6C
:104F8000396CA80C615C20BEEF39FAFE422EE63F78
:104F900058990000000000000000000000000040E0
:104FA00000B52DED048BB0EE409AF0EE609A83B020
:104FB00051EC190B00F02EFD41EC180B18EE100A05
:104FC00018EE901A8DED008B002818BF01200843C1
:104FD00020F00040C0F17F6000F1E040C00F14D02D
:104FE00019EE101A19EE900A8DED009B002918BFDA
:104FF0000121084320F00040C0F17F6000F1E04053
:10500000C00F04BF0120FFF744F9B0EE480A03B017
:10501000F0EE680ABDEC048B00BD70B504462DEDC2
:10502000028B4D1E00EBC500B0EE408AF0EE608AA8
:1050300090ED000B35F0060017D053EC182B51EC17
:10504000100B00F0A7FB41EC100B6D1E04EBC5002C
:1050500090ED001B51EC100B53EC112B00F032F9CA
:1050600041EC100B35F00600E7D1022D36D0042DAF
:105070001CD0062D1CBFBDEC028B70BD53EC182B51
:1050800051EC100B00F086FB94ED0A1B53EC112B36
:1050900000F018F953EC182B00F07CFB94ED081B82
:1050A00053EC112B00F00EF941EC100B53EC182BC4
:1050B00051EC100B00F06EFB94ED061B53EC112B22
:1050C00000F000F953EC182B00F064FB94ED040B96
:1050D00053EC102B00F0F6F841EC100B53EC182BAE
:1050E00051EC100B00F056FB94ED021B53EC112B0E
:1050F00000F0E8F853EC182B00F04CFB94ED001B8B
:1051000053EC112B00F0DEF8BDEC028B41EC100BE0
:1051100070BD0000000000009FED070B10B553ECC0
:10512000102B9FED070B51EC100B00F087F941ECB1
:10513000100B10BD00000000000000000000000087
:10514000000000000000F03F10B553EC112B51ECB3
:10515000100B00F0B7F841EC100B10BD0000000080
:105160009FED050B10B553EC102B51EC100B00F01C
:1051700065F941EC100B10BD0000000000000000BC
:105180009FED050B10B553EC102B51EC100B00F0FC
:1051900001FB41EC100B10BD00000000000000708E
:1051A0009FED050B10B553EC102B51EC100B00F0DC
:1051B000F1FA41EC100B10BD0000000000000010DF
:1051C00082B0CDE9000121F0004001909DED000B7F
:1051D00002B051EC100B704700B52DED048B83B07D
:1051E00041EC190B00F016FC41EC180B18EE100AFC
:1051F00018EE901A8DED008B002818BF012008438F
:1052000020F00040C0F17F6000F1E040C00F14D0FA
:1052100019EE101A19EE900A8DED009B002918BFA7
:105220000121084320F00040C0F17F6000F1E04020
:10523000C00F04BF0120FFF72CF851EC180B03B08E
:10524000BDEC048B00BD81F00041704780F0004050
:10525000704721F00041704720F000407047000087
:1052600021F00042A2F16052B2F5801F01F000432C
:1052700028BFD2F17F6C0BD95FEA001C43EAC2025F
:1052800042EB507018BF704728BF20F001007047F4
:10529000B2F5801FBCBF184670474FEA410C1CF5A1
:1052A000001F02D2084600F0E1BD70B500F01CFB03
:1052B00000000089FFF7F6BF4FF00040A0F5800026
:1052C0007047000010B591EA030F48BF83F0004318
:1052D00000F17484841A71EB030C05D2121943EBAC
:1052E0000C03001B61EB0C01DFF824E14FEA1154C1
:1052F000A4EB135C1EEA430F18BF9EEA445F73D011
:1053000023EA0E03DCF1200E21EA045143F480135A
:1053100032D322FA0CFE10EB0E0023FA0CFE41EB06
:105320000E01CCF1200E03FA0EFE10EB0E0051F12F
:105330000001B1F5801FCCF1200E32D201EB0451F7
:1053400012FA0EF2BDE8104058BF7047401C38BF3B
:105350005FEA420218BF7047002814BF20F0010026
:1053600041F100014FEA410313F5001F38BF7047B8
:10537000A1F1C04100F006BB012A43EB0302ACF1EE
:10538000200CDCF11F0E32BF4FF0000E23FA0CF39D
:1053900010EB030041EB0451B4EB115FD0D0A1EB53
:1053A000045101F5801149085FEA300001EB045116
:1053B0000ED350F1000038BF12FA0EFE08D1BDE83E
:1053C0001040C9E7401C38BF5FEA4202CAD1C3E7B8
:1053D000BDE810404FEA410313F5001F38BF704786
:1053E000A1F1C04100F0CEBA9EEA445F08D011EAB4
:1053F0005E0FBDE8104004BF01F00041002070477F
:10540000BDE8104070B500F06FFA00BF64FBBE3E0F
:105410000000E0FF02494FF0000000F02CBD00BF8B
:105420000000F87F491058BFC1F140415B1058BFE0
:10543000C3F140438B42EFF3008070472DE9C04138
:1054400030B4DFF8A0C23CEA111418BF3CEA1314D0
:1054500000F0EC8081EA03051CEA111444EAD574DB
:1054600018BF1CEA131500F0C780A4EB05044FF029
:10547000004545EAC12145EAC32341EA505143EAC8
:10548000525304F17F74994204F500344FEAC0206E
:105490004FEAC22208BF904200F09C804FEA136599
:1054A0000FF24016765D4FEA134506FB05F7C7F18C
:1054B000807706FB07F74FEAD737A7FB03687642EA
:1054C000C8F58038A7FB06CE38BFA8F1010807FB56
:1054D00008E64FF0000EA6FB028CE6FB03CEDCF1E3
:1054E000000CCEF1004E38BFAEF1010EA6FB0C58F9
:1054F0004FF000074FF00005E6FB0E87A1FB08C642
:10550000A0FB07CE16EB0E0645F10005E1FB076593
:1055100015F1E04E7EBFA4F580345FEA46066D418A
:1055200016F1800745F100054FEA17274FEA066696
:1055300047EA0567A6F1DE46B6F1805F4FEA15251A
:105540001FD9384624F0010C05EBC471BCF1FE6F85
:1055500001EB0C1102D8F0BCBDE8008124425CBF15
:1055600001F5801E9EEAC47F02D4F0BCBDE8008134
:10557000244238D4F0BCA1F1C041BDE8004100F0A4
:1055800001BA4FEAD22242EA43524FEAD323A7FBA1
:1055900002864FEAD02040EA415007FB03661EEA2C
:1055A0000E0F4FEAD12105FB026658BFA6EB00564D
:1055B000B6EB00564FEA520E4EEAC37E18EB0E0EC3
:1055C00056EB530EBDD518EB02085E417F1C55F11A
:1055D0000005B6E74FF480154FF000074FF00006C6
:1055E0004FF00008ADE7F0BC4FF0000001F1C04102
:1055F00001F00041BDE8008111EA0C1F0CEA13150F
:1056000000D00CE013EA0C1F00F025804FF00000E2
:10561000F0BC81EA030101F00041BDE80081F0BC6B
:10562000BDE8004181EA030100F0ACB9F0BCBDE87F
:10563000004170B500F058F9097EFC3E00F007B853
:1056400081EA03014FF0000001F00041704781EA58
:10565000030100F097B9F0BCBDE800414FF0000035
:1056600021497047FFFDFBF9F7F5F4F2F0EEEDEBA1
:10567000E9E8E6E4E3E1E0DEDDDBDAD8D7D5D4D350
:10568000D1D0CFCDCCCBCAC8C7C6C5C4C2C1C0BF9C
:10569000BEBDBCBBBAB9B8B7B6B5B4B3B2B1B0AFA2
:1056A000AEADACABAAA9A8A8A7A6A5A4A3A3A2A186
:1056B000A09F9F9E9D9C9C9B9A9999989797969541
:1056C00095949393929191908F8F8E8E8D8C8C8BDD
:1056D0008B8A898988888787868585848483838265
:1056E000828181800000FF070000F87F10F00042F7
:1056F00048BF4042B0FA80F310FA03F10AD0C3F178
:105700001D0303F580634FEA415002EB035202EBA5
:10571000D12170474FF000007047000051EA030CA0
:1057200017D41CF5801F58BFBCF5801F00F1068000
:10573000994218BF704708BF9042704707D711F5CC
:10574000801F58BF13F5801F19D4994270478942B2
:1057500070471CF5801F08D5BCF5801FF7D58B421C
:1057600018BF704708BF824270474FF4001C1CEB03
:10577000410F38BF1CEB430F01D28B42704770B50D
:1057800000F0B2F8922449004FF000514FF08053DE
:10579000FFF748BEDFF848C170B51CEA111E1EBFF6
:1057A0001CEA13159EEA0C0F95EA0C0F00F06F80AF
:1057B00081EA030423EA4C134EEAD47E21EA4C1119
:1057C00041F4801143F48013AE44A1FB024CA0FBD2
:1057D0000365AEF17F7E361955EB0C05A1FB034C3A
:1057E0004CF10003A0FB021C16EB0C06654153F1C3
:1057F0000003094218BF46F0010613F4007F0BD1E5
:105800004FEA03314FEA0530340341EA155140EACB
:1058100016506FF003020AE04FEAC3214FEAC52099
:10582000F40241EA555140EA56506FF0020202EB91
:105830002E4201EB025585EACE710AD05FEA440C94
:1058400018BF24F0004450F1000041F1000120EAAB
:10585000D47040F2FE7C624500D270BDA84214BFF5
:105860004FF080444FF04044002E08BF0024BEF1AA
:10587000806FA8BFA1F1C041BDE8704080F2828076
:105880004FF0000001F1C04101F0004170479EEA75
:105890000C0F0CEA131518BF95EA0C0F06D04FF049
:1058A000000081EA030E0EF0004170BD00F01CF80C
:1058B0008900013E00F007B800F009B84FEA430C38
:1058C0005FEA5C5C08D081EA030100F05BB84FEA54
:1058D000410C5FEA5C5CF6D14FF000000149704773
:1058E0000000FF070000F87F0EF1020E2EF0030EFD
:1058F0005EF8046B364205D4012A43EB030515F527
:10590000001F12D8012841EB010C1CF5001F0CD818
:105910000ED14FEAD17C15F5001F0CEB4C0C0CF1AD
:10592000020C08BF4CEBD37C04E04FF0080C01E004
:105930004FEAD37C0CEB4C0526FA05F606F0070679
:10594000B6F1040C06D20EEB860CBDE870404CF0AC
:10595000010C6047DFE80CF0090B02024FF0004138
:105960004FF00000A1F5002170BD19461046012836
:1059700051EB010418BFD4F5001484BF002001F0DE
:10598000004170BD0808A0F500114FEA31017047D1
:1059900053EA010C17D41CF5801F58BFBCF5801FBB
:1059A00000F106808B4218BF704708BF82427047E3
:1059B00007D713F5801F58BF11F5801F19D48B42EC
:1059C00070479B4270471CF5801F08D5BCF5801FAF
:1059D000F7D5994218BF704708BF904270474FF4FF
:1059E000001C1CEB430F38BF1CEB410F01D2994246
:1059F00070470FB40CBC03BCFFF7C1BE91EA030FA4
:105A000010B581F000413FF565AC83F0004300F034
:105A1000D5B800002DE9F04101F5801CBCF5001F50
:105A2000C0F2A9804FEA115C21EA0C510CF1FD0C87
:105A300041F480115FEA5C0C0CF5C07C01D340009E
:105A4000494130A4890241EA905187028E0E0A0C26
:105A5000A45D04FB04F602FB06F6C6F14046A4FB77
:105A60000662F60D46EA422606FB06F4A4FB012375
:105A70005242C3F1404338BF5B1EA6FB02420024E2
:105A8000E6FB0324D20B42EA4446A6FB0623A1FB15
:105A900002E2A3FB07E4E3FB61426442C2F1404E31
:105AA00038BFAEF1010EA6FB04234FF00002E6FB67
:105AB0000E32A2FB03463400E2FB6264A1FB06E661
:105AC000A4FB07E8E4FB61687642C8F1405838BFA0
:105AD000A8F10108A2FB06E4A3FB08E5E2FB685479
